:100000000C9451000C94C00A0C94C00A0C94C00AC1
:100010000C94C00A0C9404080C94C00A0C94C00AF6
:100020000C94C00A0C94C00A0C94C00A0C94C00A28
:100030000C94C00A0C94C00A0C94C00A0C94C00A18
:100040000C94C00A0C94C00A0C94C00A0C94C00A08
:100050000C94C00A0C9435080C94C00A0C94C00A85
:100060000C94C00A0C94C00A0C94C00A0C94C00AE8
:100070000C94C00A0C94C00A0C94C00A0C94C00AD8
:100080000C94C00A0C94C00A0C94C00A0C94C00AC8
:1000900060006147806147614F00158E614F615D6F
:1000A0008000809101108F7C8060806880930110B7
:1000B00011241FBECFEFCDBFDFE7DEBFE0E9F0E0E8
:1000C00040E017C0B591A59135912591059107FDA7
:1000D0000CC095918591EF01F92FE82F05900D92B5
:1000E000A217B307D9F7FE0104C01D92A217B307E8
:1000F000E1F7E13AF40731F70E9482000C94E70936
:04010000F894FFCFA1
:10010400CF93DF93CDB7DEB76E97CDBFDEBF23E0CD
:100114002093500088E88093B60490E29093A10461
:1001240084E0809300091092010981E08093020920
:100134003DEF309305093FE03093060935E03093F5
:1001440003093CE03093010448E040930B043093EE
:100154000C04109253611092546180930B0830E99F
:1001640030930508209307082BE830E02093080813
:10017400309309081092060820E120936504209327
:100184006104909362049091E20593609093E20578
:10019400909106089064909306081092556110920D
:1001A40056618093450180934201109247018091EA
:1001B400410182FDFCCF8FE090E080934A0190934F
:1001C4004B018091410180FDFCCF89EB809340017C
:1001D400B699D8C20E941509882309F4D3C280E0D5
:1001E40090E00E94940A5C0182E090E00E94940AEC
:1001F4006C0184E090E00E94940A7C0185010C2546
:100204001D25082719278AE390E00E94940A8F8706
:10021400988B8F8598890817190709F0B3C2EDE008
:10022400F1E680819181A816B90609F0ABC28281FA
:100234009381C816D90609F0A5C284819581E81670
:10024400F90609F09FC286E090E00E94580AE7E3AD
:10025400F1E60E94BA0A8AE090E00E94580AA3E3F9
:10026400B1E60E94380A8EE090E00E94580AEFE25C
:10027400F1E60E94BA0A82E190E00E94580AABE3D8
:10028400B1E60E94380A86E190E00E94580AE7E14C
:10029400F1E60E94BA0A8AE190E00E94580AA3E1BA
:1002A400B1E60E94380A8EE190E00E94580AEBE21F
:1002B400F1E60E94BA0A82E290E00E94580AAFE195
:1002C400B1E60E94380A86E290E00E94580AE3E20E
:1002D400F1E60E94BA0A8AE290E00E94580AA3E476
:1002E400B1E60E94380A8EE290E00E94580AEFE3D9
:1002F400F1E60E94BA0A82E390E00E94580AA7E25B
:10030400B1E60E94380A86E390E00E94580AEBE1C5
:10031400F1E60E94BA0A81E0809359617894B1E0D1
:100324002B2EB1E63B2ECE010B96898B9A8B8091B6
:100334005B61813061F140F0823009F497C0833011
:1003440009F4C6C183E0C2C180E380934F6111E028
:100354001093506188E08093516182E080935261F0
:100364000E94670A79F084E7809307090E9436099E
:10037400882341F084E00E94AE0893E0909304093E
:10038400811102C084E0A2C110935B61A1C18FE31B
:1003940080934F618FEF809350610E94670A09F444
:1003A40097C184E7809307090E943609882309F4DA
:1003B4008FC182E00E94AE08811104C083E0809363
:1003C400040986C162E081E591E60E9476078823EC
:1003D40009F47EC180915161909152610E94AA0AF0
:1003E40080FF08C0892F992786958695A1E08A27E2
:1003F400817001C080E080FF6BC142E0BE01635F99
:100404007F4F8FEF9FE30E946208882309F4BACFDD
:100414008E858C7790E095958795959587958093B3
:100424005A614CE00E94A60A83E090E40E946208AC
:10043400882309F4A7CF89819A810E94AA0AF1012D
:100444000E9468098F8198850E94AA0A86839783EF
:1004540089859A850E94AA0A808791878B859C85C5
:100464000E94AA0A8287938782E030C180E2809347
:10047400A70480915A61823029F080915A618130B9
:1004840009F080CFD1011A966D917C911B970E943F
:100494006C0A0E94C9074B015C01F10164817581FA
:1004A4000E946C0A0E94C90720E030E040E451E455
:1004B4000E94B20A6B017C01A3E4B1E60E947B0AAC
:1004C4000E94B60AA50194010E941D0A9B01AC0179
:1004D400C701B6010E94B20A0E949E0A59E40E9412
:1004E400B60A6B8B7C8B8D8B9E8B80915A6181308D
:1004F40021F4F1010E94800A09C0D10116966D9180
:100504007C91179718968D919C911997680F791F74
:100514000E946C0A0E94C9070E949E0A5FE30E941F
:10052400B60A20E030E040E451E40E94B20A2B0114
:100534003C01EFE3F1E60E94850AC701B6010E947F
:10054400B60AA50194010E941D0A9B01AC01C301D6
:10055400B2010E94B20A0E949E0A59E40E94B60A9D
:100564002B013C01A7E3B1E60E947B0A6B897C89DD
:100574008D899E890E941C0A6B017C01E3E3F1E6EC
:100584000E94850A0E94B20AABE3B1E60E947B0A8C
:100594000E941D0A4B015C010E94490A0E94B60A8E
:1005A400EFE2F1E60E94850A0E94B60A9B01AC01C3
:1005B400C501B4010E941D0A4B015C01A7E4B1E628
:1005C4000E94380A23E333E948E853E40E941D0AF1
:1005D4006B017C01A7E2B1E60E947B0AEBE2F1E643
:1005E4000E94800A0E94B60A6B8B7C8B8D8B9E8B3B
:1005F400E3E2F1E680819181A281B3818F8B988FB0
:10060400A98FBA8F20E030E048EC51E4C501B40171
:100614000E941C0AAFE1B1E60E947B0A0E94B60A5E
:100624004B015C010E94490A0E94B60AA701960187
:100634000E94B60AA70196010E94B60A6B017C01CA
:10064400EBE1F1E680819181A281B3818B8F9C8F54
:10065400AD8FBE8F13E060E070E088EC91E420E0A1
:1006640030E048EC51E40E941C0A2F89388D498DF2
:100674005A8D0E94B60A0E944E0A0E941D0AA501C4
:1006840094010E941D0A2B893C894D895E890E9430
:10069400B60A9B01AC01C301B2010E94B20AA701D0
:1006A40096010E941D0A0E94DD030E94DD0323E3DC
:1006B40033E948E853E40E941C0A2B8D3C8D4D8D90
:1006C4005E8D0E941C0A115051F667C080935B61D5
:1006D40080915C61882309F453C010925C6126E622
:1006E40036E646EE5FE3ABE4B1E66D917D918D9124
:1006F4009C910E94B60A0E949E0A52E40E941D0A1E
:100704007B018C0126E636E646EE5FE3E7E4F1E69C
:100714000E94800A0E94B60A0E949E0A52E40E9425
:100724001D0A2AEA29836A837B838C839D83EE8254
:10073400FF820887198785E58A8780910408806489
:10074400809304088E010F5F1F4F8091040885FF7A
:10075400FCCFD8018D918D010E948A09E989FA891B
:100764000E171F0791F78091040885FFFCCF809135
:10077400040886FFFCCF8091026081110E94D10899
:100784008895D5CD0E941509882389F00E94D60446
:10079400882369F00E94AE05C1CDEBE4F1E60E9426
:1007A400BA0A81E080935C6110925B6191CF84E02E
:0607B40080935B61B3CDF0
:1007BA004F925F926F927F928F929F92AF92BF9267
:1007CA00CF92DF92EF92FF920F931F936B017C01FE
:1007DA00DC01CB01B701A6014427552760787F7752
:1007EA004115510560487F4749F40E94490A0E9411
:1007FA00B60AA70196010E941D0A18C01816190602
:10080A001A061B06C4F0892B8A2B8B2B09F4B2C05B
:10081A0081E290E080930060909301600E94490A0F
:10082A000E941C0A9B01AC010E94B20A562F472F54
:10083A00382F292FA3C067E1F594E794D794C7947A
:10084A006A95D1F7C114D104E104F104D1F4C12CA1
:10085A00D12C7601A7FD08C00E94440A2FEFC21AC4
:10086A00D20AE20AF20AF6CF21E0C21AD108E10856
:10087A00F108F094E094D094C094C11CD11CE11CFE
:10088A00F11C2FE7C21AD108E108F108AF77BB279C
:10089A00A068C0FE02C00E94440AF594E794D79467
:1008AA00C7940E94440AE9E1F0E040E050E060E0C9
:1008BA0071E0812C912C540100E010E0980128018C
:1008CA003901440E551E661E771E84159505A60528
:1008DA00B70574F093018201040F151F261F371FF5
:1008EA0084199509A609B709840E951EA61EB71E76
:1008FA000E94440A76956795579547953197F9F678
:10090A00892B8A2B8B2B21F10E94F2090E941C0A47
:10091A000E944E0A0E948F0A87FD1AC00E94F2099D
:10092A000E941D0A0E944E0A0E948F0A181634F469
:10093A0082E0880E911CA11CB11C0AC0D501C40119
:10094A0081709927AA27BB27880E991EAA1EBB1E4B
:10095A00D501C401B595A79597958795B15C37E1FF
:10096A00CC0CDD1CEE1CFF1C3A95D1F7C80ED91E23
:10097A00EA1EFB1E5C2D4D2D3E2D2F2D652F742F4B
:10098A00832F922F1F910F91FF90EF90DF90CF90BE
:10099A00BF90AF909F908F907F906F905F904F9095
:0209AA000895AE
:1009AC000F931F93CF93DF93CDB7DEB76897CDBF6F
:1009BC00DEBF40E10E94A60A8CE094E20E9462082D
:1009CC00811102C080E0BCC00E94DC090E94C907F2
:1009DC000E945D0A0E94B60AE7E3F1E60E94B5099F
:1009EC000E94C9070E94A20A55E30E94B60AE3E3DB
:1009FC00F1E60E94C2090E94C9070E94A20A59E2AC
:100A0C000E94B60AEFE2F1E60E94CF090E94C907E4
:100A1C000E945D0A0E94B60AEBE3F1E60E94BA0A54
:100A2C0048E10E94A60A84E294E20E9462088823AC
:100A3C0009F4C8CF0E94DC090E94C9070E94A20ACF
:100A4C0057E30E94B60AE7E1F1E60E94B5090E945D
:100A5C00C9070E945D0A0E94B60AE3E1F1E60E9412
:100A6C00C2090E94C9070E94A20A58E20E94B60A53
:100A7C00EBE2F1E60E94CF090E94C9070E94A20A8C
:100A8C005DE20E94B60AEFE1F1E60E94BA0A2B89F8
:100A9C006C890E94FB092A890E94AE0A89890E94EE
:100AAC00A7090E94C9070E94A20A5DE20E94B60A29
:100ABC00E3E2F1E60E94BA0A6D897E890E94040A7B
:100ACC000E94C9070E94620A0E94B60AA3E4B1E61A
:100ADC000E94380A6F89788D0E94040A0E94C90707
:100AEC000E94620A0E94B60AEFE3F1E60E94BA0A7B
:100AFC0044E00E94A60A81E894E20E9462088823DE
:100B0C0009F460CF69817A810E94040A0E94C907A6
:100B1C000E94A20A58E30E94B60AE7E2F1E60E949C
:100B2C00BA0A6B817C810E94040A0E94C9070E9448
:100B3C00620A0E94B60AABE1B1E60E94380A81E073
:100B4C006896CDBFDEBFDF91CF911F910F910895B5
:100B5C00CF93DF93CDE0D1E66881798180E090E09E
:100B6C000E94990A6A817B8182E090E00E94990A36
:100B7C006C817D8184E090E00E94990AE7E3F1E6C4
:100B8C000E94710A86E090E00E94140AA3E3B1E689
:100B9C000E94760A8AE090E00E94140AEFE2F1E6E5
:100BAC000E94710A8EE090E00E94140AABE3B1E659
:100BBC000E94760A82E190E00E94140AE7E1F1E6D5
:100BCC000E94710A86E190E00E94140AA3E1B1E64A
:100BDC000E94760A8AE190E00E94140AEBE2F1E6A8
:100BEC000E94710A8EE190E00E94140AAFE1B1E616
:100BFC000E94760A82E290E00E94140AE3E2F1E697
:100C0C000E94710A86E290E00E94140AA3E4B1E605
:100C1C000E94760A8AE290E00E94140AEFE3F1E661
:100C2C000E94710A8EE290E00E94140AA7E2B1E6DB
:100C3C000E94760A82E390E00E94140AEBE1F1E64E
:100C4C000E94710A86E390E00E94140A68817981FF
:100C5C008A819B81682779278C819D8168277927D8
:0C0C6C008AE390E0DF91CF910C94990A8C
:100C780010C00E942A0A58F00E94230A40F029F462
:100C88005F3F29F00C943E0A51110C94320A0C94DF
:100C9800BD0A0E94F30868F39923B1F3552391F331
:100CA800951B550BBB27AA2762177307840738F0D3
:100CB8009F5F5F4F220F331F441FAA1FA9F333D032
:100CC8000E2E3AF0E0E830D091505040E695001CE6
:100CD800CAF729D0FE2F27D0660F771F881FBB1FA2
:100CE800261737074807AB07B0E809F0BB0B802D7C
:100CF800BF01FF2793585F4F3AF09E3F510568F0B8
:100D08000C943E0A0C94320A5F3FE4F3983ED4F305
:100D180086950E94530A9F5FD9F7880F911D969573
:100D2800879597F90895E1E0660F771F881FBB1F25
:100D3800621773078407BA0720F0621B730B840BD2
:0A0D4800BA0BEE1F88F7E09508953E
:100D52000FC00E94230A38F00E942A0A20F095232D
:100D620011F00C943E0A0C94BD0A11240C94320A20
:100D72000E94F30870F3959FC1F3950F50E0551F41
:100D8200629FF001729FBB27F00DB11D639FAA27DE
:100D9200F00DB11DAA1F649F6627B00DA11D661F2D
:100DA200829F2227B00DA11D621F739FB00DA11D4E
:100DB200621F839FA00D611D221F749F3327A00D08
:100DC200611D231F849F600D211D822F762F6A2FA4
:100DD20011249F5750409AF0E1F088234AF0EE0F19
:100DE200FF1FBB1F661F771F881F91505040A9F736
:100DF2009E3F510570F00C943E0A0C94320A5F3FFC
:100E0200E4F3983ED4F386950E94530AE7959F5FD8
:100E1200D1F7FE2B880F911D9695879597F9089526
:100E220011C00E94230A38F00E942A0A20F039F4E5
:100E32009F3F19F426F40C94BD0A0EF4E095E7FBEB
:100E42000C943E0AE92F0E94F30858F3BA1762077E
:100E520073078407950720F079F4A6F50C94310AFC
:100E62000EF4E0950B2EBA2FA02D0B01B9019001C3
:100E72000C01CA01A0011124FF27591B99F0593F07
:100E820050F4503E58F11A16F040A22F232F342F5F
:100E92004427585FF3CF469537952795A795F0409D
:100EA2005395C9F77EF41F16BA0B620B730B840BB2
:100EB200AAF0915091F0FF0FBB1F661F771F881F8A
:100EC200C2F70CC0BA0F621F731F841F38F48795D4
:100ED2000E94530A9E3F08F0B2CF9395880F08F004
:0A0EE2009927EE0F97958795089564
:100EEC001F93CF93DF93182FD92FC62F809107090B
:100EFC0081608093070981E0809304098091050942
:100F0C0085FD0BC08091050982FD07C08091050904
:100F1C0083FD03C00E94670A89F70E949909882300
:100F2C0029F083E08093040980E027C080E280935D
:100F3C000509E12FFD2F80E022E0C817D1F0909138
:100F4C00050995FD0DC09091050992FD09C0909180
:100F5C00050993FD05C0909105099370933079F7BD
:100F6C009091080991938F5FC81739F32093040966
:100F7C00E4CF87E08093040981E0DF91CF911F914A
:020F8C000895C6
:100F8E00E89409C097FB3EF4909580957095619515
:100F9E007F4F8F4F9F4F9923A9F0F92F96E9BB27CB
:100FAE009395F695879577956795B795F111F8CF47
:100FBE00FAF4BB0F11F460FF1BC06F5F7F4F8F4FB2
:100FCE009F4F16C0882311F096E911C0772321F0A8
:100FDE009EE8872F762F05C0662371F096E8862F40
:100FEE0070E060E02AF09A95660F771F881FDAF797
:0A0FFE00880F9695879597F90895DE
:101008001F920F920FB60F9211242F933F934F9375
:101018005F936F937F938F939F93AF93BF93EF9358
:10102800FF9381E080935761E0915561F09156619B
:10103800309709F0099580914301816080934301BD
:10104800FF91EF91BF91AF919F918F917F916F9198
:101058005F914F913F912F910F900FBE0F901F906E
:021068001895D9
:10106A001F920F920FB60F9211242F933F934F9313
:10107A005F936F937F938F939F93AF93BF93EF93F6
:10108A00FF9380910008E0915361F0915461309789
:10109A0009F0099510925861FF91EF91BF91AF91B4
:1010AA009F918F917F916F915F914F913F912F9176
:0A10BA000F900FBE0F901F901895C5
:1010C4001F93CF93DF9390934F61809350610E945D
:1010D400670AC9F0142FEB0184E7809307090E9483
:1010E4003609882381F082E00E94AE08811104C091
:1010F40083E08093040907C0612FCE01DF91CF9173
:101104001F910C94760780E0DF91CF911F91089591
:10111400990F0008550FAA0BE0E8FEEF1616170604
:10112400E807F907C0F012161306E407F50798F06C
:10113400621B730B840B950B39F40A2661F0232B85
:10114400242B252B21F408950A2609F4A140A69501
:081154008FEF811D811D08953C
:10115C00EFE4F1E690E09817D1F021912093080983
:10116C002091050925FD0DC02091050922FD09C01E
:10117C002091050923FD05C020910509237023301A
:10118C0079F72091050924FD04C09F5FE4CF81E02D
:06119C00089580E00895B3
:1011A200CF9380910408806480930408C0E0EC2F00
:1011B200F0E0EE5FFF498081882351F0CF3F41F09C
:1011C2009091040895FFFCCF0E948A09CF5FEFCF70
:1011D2008091040885FFFCCF8091040886FFFCCF34
:0411E200CF9108950C
:1011E60057FD9058440F551F59F05F3F71F04795D2
:1011F600880F97FB991F61F09F3F79F087950895B7
:10120600121613061406551FF2CF4695F1DF08C0D5
:10121600161617061806991FF1CF869571056105F2
:04122600089408958B
:10122A00CF93DF93CDB7DEB72697CDBFDEBF46E0BB
:10123A000E94A60A85E094E20E946208882351F07F
:10124A00EDE0F1E689819A810E94AA0A0E94680962
:10125A0081E001C080E02696CDBFDEBFDF91CF914D
:02126A000895E5
:10126C008091050985FD0BC08091050982FD07C0A1
:10127C008091050983FD03C00E94670A89F70E94CB
:10128C009909882329F083E08093040980E008956C
:04129C0081E0089550
:1012A000262FAF93BF93E0E0F0E1328131FDFDCF17
:1012B0003DE934BF33E13083DC01A050BC4E2C93B8
:1012C0003DE934BF20E020830196BF91AF9108959E
:1012D000808391838B819C8198278927982782839B
:1012E00093838D819E81982789279827848395836E
:0212F00008955F
:1012F200092E0394000C11F4882352F0BB0F40F422
:10130200BF2B11F460FF04C06F5F7F4F8F4F9F4F61
:0213120008953C
:101314009091040895FF09C09091040890649093FB
:0E13240004088093020881E0089580E0089597
:10133200809105098C7141F490910509937081E0C7
:0C134200933019F080E0089581E00895D8
:10134E0090E0982F8827A0E0B0E08A019B01082B3F
:0C135E00192B2A2B3B2BC901B801089564
:10136A000E948A0A2F8168850E94FB092E810E94A9
:0A137A00AE0A8D810E94A7090895B4
:101384000E948A0A2B856C850E94FB092A850E948B
:0A139400AE0A89850E94A70908959A
:10139E000E948A0A2F8568890E94FB092E850E9469
:0A13AE00AE0A8D850E94A70908957C
:1013B8002B816C810E94FB092A810E94AE0A8981D7
:0613C8000E94A709089530
:1013CE00EC010E94C50A0E94C40ACE010E94C60A00
:0613DE00CE010E94C20ACC
:1013E40020E632E442EA5DE060E070E080E89FE3FA
:0213F40008955A
:1013F600862F90E0A0E0B0E0DC0199278827B22B89
:02140600089547
:10140800762767277627072E000C880B990B0895F7
:1014180003D0808199270895FC01E050FC4E08957F
:10142800242F0E945109252F0E9451090C94990AD2
:0E1438005058BB27AA270E9411070C9479096F
:0E14460000240A9416161706180609060895C3
:0E14540000240A9412161306140605060895C5
:0E146200E894BB2766277727CB0197F90895FA
:0C1470006D937D938D939C9313970895CA
:0C147C0097F99F6780E870E060E0089539
:0A148800880F991FAA1FBB1F0895CB
:0A149200A7019601C701B6010895F5
:0A149C0020E030E040E85FE308952F
:0A14A60077956795B795F7950895BF
:0A14B0000E94100A0E94800A0895AD
:0A14BA0020E030E040E85BE3089515
:0A14C40020E030E040E85AE308950C
:0A14CE0080910509837083300895B2
:0A14D800072E000C880B990B0895F5
:0A14E20040815181628173810895F9
:0A14EC004D915D916D917C91089582
:0A14F6002D913D914D915C910895F8
:0A150000608171818281938108955A
:0A150A002081318142815381089550
:0A151400608371838283938308953E
:0A151E000E948A0808F48FEF089578
:0A1528000E94100A8081918108954D
:0A1532000E945009272F0C94510964
:08153C0020E030E040E00895DA
:0815440020E030E040E80895CA
:08154C00BE016F5F7F4F08959F
:081554009827892798270895C4
:08155C00AC01BD01422B089512
:081564000E943C060C94790979
:08156C000E94A9060C94790904
:061574000E948A0A08959E
:06157A009FEF80EC0895D4
:041580000C940000C7
:041584000E94800041
:021588000895C4
:02158A000895C2
:02158C000895C0
:04158E000000C84150
:041592000000C8414C
:02000004008278
:090000000000000000D90D000011
:02000004008377
:040000005CC5C55CBA
:00000001FF
