:100000000C9463000C946F140C946F140C946F1484
:100010000C946F140C94750C0C94CE0E0C946F14FD
:100020000C94540D0C946F140C946F140C946F1466
:100030000C946F140C946F140C946F140C946F1434
:100040000C946F140C946F140C946F140C946F1424
:100050000C946F140C946F140C946F140C946F1414
:100060000C94860D0C946F140C946F140C946F14F4
:100070000C946F140C94C7130C946F140C946F149D
:100080000C946F140C946F140C94B80D0C946F14A2
:1000900060006002806002602800290060286042E1
:1000A000806042604F002926604F60558060556037
:1000B0005D002933605D60AD8060AD60AF00293BBD
:1000C00060AF60B58000809101108F7C8060806897
:1000D0008093011011241FBECFEFCDBFDFE7DEBF3D
:1000E000E0E9F0E040E017C0B591A5913591259188
:1000F000059107FD0CC095918591EF01F92FE82F2F
:1001000005900D92A217B307D9F7FE0104C01D9206
:10011000A217B307E1F7E53CF40731F70E94381165
:080120000C947F12F894FFCF4C
:10012800A7128A12B012450FA20E851369127F1307
:0201380073133F
:0D013A0048656C6C6F20576F726C640D008F
:10014800AAE9B0E0EAEAF0E00C94A7106C017A01A1
:10015800C756DF4F68837983C959D040A12CB12C89
:1001680066246A94762C90E8492E512C25E2222E9A
:10017800C756DF4F68817981C959D040FB0180811A
:10018800882309F428C2CF570E942E14C1580E9410
:10019800D412CB570E942E14C558D04081E090E06D
:1001A8008C0F9D1FC957DF4F88839983C758D0404C
:1001B800C757DF4F48825982C958D040FB0100E039
:1001C80010E08191811112C001151105A1F0A8015B
:1001D800C6010E9471100E940C13800F911FC75610
:1001E800DF4F88839983C959D04005C0853261F3B0
:1001F8000F5F1F4FE6CF0E942614853209F0D9C140
:100208004F019FEF891A990A0E941A130E940C1332
:10021800DC012C912B3221F40E942813246007C0A2
:100228002C329CF02D32E9F40E9428132160CF571C
:10023800DF4F28833983C158D0400196C756DF4F16
:1002480088839983C959D040E1CF203221F40E9494
:1002580028132860ECCF233251F40E942813206120
:10026800E6CF203321F40E9428132260E0CF2A32FF
:1002780029F50196C756DF4F88839983C959D0401D
:10028800D701ED91FC911197CF0102968D939C9324
:10029800808191810E94361397FF1DC00E94281308
:1002A800B1E02B27CF57DF4F28833983C158D0407F
:1002B8009195819591090E9436130DC00E94B00C4A
:1002C8000E9436130E941313C0970A9720F43196A0
:1002D8000E942113F7CFCF57DF4F88819981C158EA
:1002E800D04080FF07C08D7FCF57DF4F8883998329
:1002F800C158D0400E9426148E3209F031C0CD5723
:100308000E942E14C358D040CF010196C756DF4F24
:1003180088839983C959D04021812A32A1F4329621
:10032800C756DF4FE883F983C959D040D701ED910B
:10033800FC911197CF0102968D939C9380819181B6
:100348000E942F130DC00E94B00C0E942F130E9410
:100358001313C0970A9720F431960E942113F7CF00
:10036800CE0187569F4F0E94F40F382E0E94131318
:100378000E94F4128936910509F43EC0B4F483361C
:10038800910509F4D3C044F48532910509F4E4C019
:100398008136910529F1EBC08436910509F42CC00A
:1003A800883691050CF4B6C0E2C08037910509F48F
:1003B80056C04CF48E36910509F4A1C08F369105CC
:1003C80009F437C0D4C08537910509F426C08837A9
:1003D800910509F43AC08337910509F0C8C0B2C045
:1003E8000E9467130E945310892B09F4E0C00E94F1
:1003F800B8130E945D14D8C0632D70E0970141E0E6
:1004080050E00E942A140E940307892B09F4CFC0E8
:100418000E94B3130E945A14C7C00E94DC120E94A3
:100428000307892B09F4C3C00E94B3130E945A140E
:10043800BBC00E94DC120E940307892B09F4B7C0D5
:100448000E94B3130E945A14AFC00E94DC120E948B
:100458000307892B09F4ABC00E9499114BC097017F
:1004680040E050E060EF70E00E942A140E94030709
:10047800892B09F49CC00E94601486E0E9E4F0E648
:10048800DE01AD56BF4F01900D928A95E1F7C55731
:10049800DF4F2881CB58D040C457DF4F3881CC5824
:1004A800D040C357DF4F4881CD58D040C257DF4FA7
:1004B8005881CE58D040C157DF4F6881CF58D040BF
:1004C800C057DF4F7881C059D040CF56DF4F888161
:1004D800C159D040CE56DF4F9881C259D040A0E0D4
:1004E8000E94471231F420E030E0AE014D565F4FD4
:1004F80055C028E70E94E4120E945D1455C0632D80
:1005080070E09701A501400F511F0E942A140E9414
:10051800DF0A4DC00E9467130E945310892B09F40B
:1005280046C00E94B8130E945D143EC0B0E83B125A
:100538003EC00E9453128081C557DF4F8883CB5835
:10054800D04027C0B0E83B1232C00E94531240810D
:10055800518120E030E022C0B0E83B1228C00E9460
:100568006014C557DF4F2882CB58D04012C0C557FA
:10057800DF4F2882CB58D0400E941A13CF570E94D1
:100588002E14C158D040CB570E942E14C5580E9433
:10059800D41221E030E0AE0145575F4FBE016F57DE
:1005A8007F4FC6010E94200D800F911F03C00E943B
:1005B8006014C8018501080F191F0A151B054CF4A2
:1005C8008FE490E080930060909301608FEF9FEF3D
:1005D80003C05801CDCDC501C656DF4FE2E10C94EA
:0205E800D81029
:1005EA004F925F926F927F928F929F92AF92BF9239
:1005FA00CF92DF92EF92FF92CF93DF93CDB7DEB720
:10060A002D97CDBFDEBF8091B360823029F08091F3
:10061A00B360813009F042C16091406070914160DD
:10062A000E94FE130E943A0C4B015C0160913A60F1
:10063A0070913B600E94FE130E943A0C20E030E069
:10064A0040E451E40E9452146B017C01E9E6F0E6B1
:10065A000E9403140E945614A50194010E944C138F
:10066A009B01AC01C701B6010E9452140E944614B4
:10067A0059E40E94561469837A838B839C83809100
:10068A00B360813049F4A6E3B0E66D917C91809124
:10069A0038609091396008C060913C6070913D600B
:1006AA0080913E6090913F60680F791F0E94FE130F
:1006BA000E943A0C0E9446145FE30E94561420E0FE
:1006CA0030E040E451E40E9452142B013C01A5E6BB
:1006DA00B0E60E940814C701B6010E945614A5018B
:1006EA0094010E944C139B01AC01C301B2010E9408
:1006FA0052140E94461459E40E9456142B013C01DC
:10070A00EDE8F0E60E94031469817A818B819C816D
:10071A000E944B136B017C01A9E8B0E60E94081401
:10072A000E945214E1E8F0E60E9403140E944C135E
:10073A004B015C010E940D140E945614A5E8B0E614
:10074A000E9408140E9456149B01AC01C501B40111
:10075A000E944C134B015C01E5E5F0E60E94EA13A6
:10076A0023E333E948E853E40E944C136B017C010C
:10077A00A1E6B0E60E940814E5E7F0E60E9412142A
:10078A000E94561469837A838B839C83ADE6B0E614
:10079A008D919D910D90BC91A02D8D839E83AF83E9
:1007AA00B88720E030E048EC51E4C501B4010E946A
:1007BA004B13E1E7F0E60E9403140E9456144B0122
:1007CA005C010E940D140E945614A70196010E9412
:1007DA005614A70196010E9456146B017C01ADE5DF
:1007EA00B0E68D919D910D90BC91A02D89879A8735
:1007FA00AB87BC8793E09D87B0E0A0E0F8ECE1E42A
:10080A0020E030E048EC51E46B2F7A2F8F2F9E2F97
:10081A000E944B132D813E814F8158850E945614A8
:10082A000E94F9130E944C13A50194010E944C13D3
:10083A0029813A814B815C810E9456149B01AC014B
:10084A00C301B2010E945214A70196010E944C13DF
:10085A000E9466040E94660423E333E948E853E4ED
:10086A000E944B1329853A854B855C850E944B1360
:10087A00AD85A150AD87B62FA72FF82FE92F2D856B
:10088A002111BECFC62ED72EE82EF92EE9E5F0E6C5
:10089A00C082D182E282F38281E001C080E02D969B
:1008AA00CDBFDEBFDF91CF91FF90EF90DF90CF9069
:1008BA00BF90AF909F908F907F906F905F904F9076
:0208CA0008958F
:1008CC004F925F926F927F928F929F92AF92BF9254
:1008DC00CF92DF92EF92FF920F931F936B017C01EB
:1008EC00DC01CB01B701A6014427552760787F773F
:1008FC004115510560487F4749F40E940D140E9430
:10090C005614A70196010E944C1318C0181619060C
:10091C001A061B06C4F0892B8A2B8B2B09F4B2C048
:10092C0081E290E080930060909301600E940D142E
:10093C000E944B139B01AC010E945214562F472F5F
:10094C00382F292FA3C067E1F594E794D794C79467
:10095C006A95D1F7C114D104E104F104D1F4C12C8E
:10096C00D12C7601A7FD08C00E94A9132FEFC21A43
:10097C00D20AE20AF20AF6CF21E0C21AD108E10843
:10098C00F108F094E094D094C094C11CD11CE11CEB
:10099C00F11C2FE7C21AD108E108F108AF77BB2789
:1009AC00A068C0FE02C00E94A913F594E794D794E6
:1009BC00C7940E94A913E9E1F0E040E050E060E048
:1009CC0071E0812C912C540100E010E09801280179
:1009DC003901440E551E661E771E84159505A60515
:1009EC00B70574F093018201040F151F261F371FE2
:1009FC0084199509A609B709840E951EA61EB71E63
:100A0C000E94A91376956795579547953197F9F6F6
:100A1C00892B8A2B8B2B21F10E949E120E944B1347
:100A2C000E94F9130E94171487FD1AC00E949E128F
:100A3C000E944C130E94F9130E941714181634F4D8
:100A4C0082E0880E911CA11CB11C0AC0D501C40106
:100A5C0081709927AA27BB27880E991EAA1EBB1E38
:100A6C00D501C401B595A79597958795B15C37E1EC
:100A7C00CC0CDD1CEE1CFF1C3A95D1F7C80ED91E10
:100A8C00EA1EFB1E5C2D4D2D3E2D2F2D652F742F38
:100A9C00832F922F1F910F91FF90EF90DF90CF90AB
:100AAC00BF90AF909F908F907F906F905F904F9082
:020ABC0008959B
:100ABE00CF92DF92EF92FF921F93CF93DF93CDB73A
:100ACE00DEB76897CDBFDEBF8FE490E60E94FA0EC8
:100ADE00182F882309F4C6C040E10E943E148CE012
:100AEE0094E20E94690F811102C010E0BBC00E9407
:100AFE0074120E943A0C0E94EF130E945614ADE835
:100B0E00B0E60E94FC110E943A0C0E944A1455E372
:100B1E000E945614A9E8B0E60E9409120E943A0CEF
:100B2E000E944A1459E20E945614A5E8B0E60E94AB
:100B3E0016120E943A0C0E94EF130E945614A1E85E
:100B4E00B0E60E94691448E10E943E1484E294E2E9
:100B5E000E94690F882309F4C8CF0E9474120E9464
:100B6E003A0C0E944A1457E30E945614ADE7B0E6C1
:100B7E000E94FC110E943A0C0E94EF130E94561420
:100B8E00A9E7B0E60E9409120E943A0C0E944A148C
:100B9E0058E20E945614A5E7B0E60E9416120E9473
:100BAE003A0C0E944A145DE20E945614A1E7B0E688
:100BBE000E9469142B896C890E94B9122A890E949D
:100BCE004E1489890E94D3110E943A0C0E944A1435
:100BDE005DE20E945614ADE6B0E60E9469146D897E
:100BEE007E890E94EC120E943A0C0E94F4130E941D
:100BFE005614E9E6F0E60E94EA136F89788D0E949A
:100C0E00EC120E943A0C0E94F4130E945614A5E6B0
:100C1E00B0E60E94691444E00E943E1481E894E21A
:100C2E000E94690F882309F460CF69817A810E943E
:100C3E00EC120E943A0C0E944A1458E30E94561479
:100C4E00E1E6F0E60E94EA136B817C810E94EC12D1
:100C5E000E943A0C0E94F4130E945614ADE5B0E6C1
:100C6E000E946914812F6896CDBFDEBFDF91CF91B0
:0C0C7E001F91FF90EF90DF90CF90089541
:100C8A008F929F92AF92BF92CF92DF92EF92FF9292
:100C9A001F93CF93DF9300D0CDB7DEB78FE490E6F2
:100CAA000E94FA0E182F811102C010E098C080E04D
:100CBA0090E00E941C145C0182E090E00E941C14E7
:100CCA006C0184E090E00E941C144C017501EC2434
:100CDA00FD24E826F9268AE390E00E941C14898301
:100CEA009A8389819A81E816F906F9F6EFE4F0E623
:100CFA0080819181A816B906C1F682819381C816AE
:100D0A00D90699F6848195818816990671F686E046
:100D1A0090E00E94C213EDE8F0E60E94EA138AE02E
:100D2A0090E00E94C213A9E8B0E60E9469148EE01E
:100D3A0090E00E94C213E5E8F0E60E94EA1382E11D
:100D4A0090E00E94C213A1E8B0E60E94691486E10D
:100D5A0090E00E94C213EDE7F0E60E94EA138AE1EE
:100D6A0090E00E94C213A9E7B0E60E9469148EE1DE
:100D7A0090E00E94C213E5E7F0E60E94EA1382E2DD
:100D8A0090E00E94C213A1E7B0E60E94691486E2CD
:100D9A0090E00E94C213EDE6F0E60E94EA138AE2AE
:100DAA0090E00E94C213A9E6B0E60E9469148EE29E
:100DBA0090E00E94C213E5E6F0E60E94EA1382E39D
:100DCA0090E00E94C213A1E6B0E60E94691486E38D
:100DDA0090E00E94C213EDE5F0E60E94EA13812F2B
:100DEA000F900F90DF91CF911F91FF90EF90DF90BE
:0C0DFA00CF90BF90AF909F908F90089515
:100E06000F931F93CF93DF93FC01D90168387105C7
:100E160031F194F46138710589F12CF4603871056B
:100E260009F46AC087C06238710509F44DC0643898
:100E3600710509F461C07EC0603A710509F441C0CC
:100E46002CF46039710509F43FC074C0603C71052B
:100E560009F463C0603F710509F45FC06BC00E946E
:100E66006D13452B39F09881892F880F880B908355
:100E760081834DC088818083118255C00E94BD1335
:100E860004968D939C93452B99F088819981AA812C
:100E9600BB81AC01BD01770F440B542FBA0180838F
:100EA6009183A283B383448345834683478321C0CA
:100EB600088119812A813B81008311832283338330
:100EC60034C00E946D131CC00E94BD1308968D93FA
:100ED6009C93788169815A814B813C812D819E81C9
:100EE6008F81708361835283438334832583968302
:100EF600878381E090E020C00E946D13452B79F036
:100F060099812881892F880F880B2083918382837A
:100F16008383848385838683EBCF0E946D13088148
:100F2600198100831183128213821482158216821C
:100F36001782DFCF80E090E0DF91CF911F910F9174
:020F460008950C
:100F4800CF93DF93CFE4D0E66881798180E090E0A9
:100F58000E9421146A817B8182E090E00E94211422
:100F68006C817D8184E090E00E942114EDE8F0E638
:100F78000E94E01386E090E00E940413A9E8B0E61E
:100F88000E94E5138AE090E00E940413E5E8F0E689
:100F98000E94E0138EE090E00E940413A1E8B0E6FE
:100FA8000E94E51382E190E00E940413EDE7F0E669
:100FB8000E94E01386E190E00E940413A9E7B0E6DE
:100FC8000E94E5138AE190E00E940413E5E7F0E649
:100FD8000E94E0138EE190E00E940413A1E7B0E6BE
:100FE8000E94E51382E290E00E940413EDE6F0E629
:100FF8000E94E01386E290E00E940413A9E6B0E69E
:101008000E94E5138AE290E00E940413E5E6F0E608
:101018000E94E0138EE290E00E940413A1E6B0E67D
:101028000E94E51382E390E00E940413EDE5F0E6E8
:101038000E94E01386E390E00E940413688179819E
:101048008A819B81682779278C819D8168277927E8
:0C1058008AE390E0DF91CF910C9421140A
:10106400CF93DF9380E094E02CE0FC012083C0E484
:10107400D4E01882A0E6B4E020E12C9340EA54E0E6
:1010840020E2FA012083FC0114821C8214961C9233
:101094001497FA011482FC010E944413168A178AD9
:1010A400188A198A1A8A1B8A1C8A1D8A1E8A1F8A10
:1010B40050961C92509751961C92519752961C929E
:1010C400529753961C92539754961C925497559644
:1010D4001C92559756961C92569757961C92FA0155
:1010E4000E94441388E8868B178AE0EEF5E01182AB
:1010F40010821582178210861186168283E08283FD
:1011040086E794E180939D6090939E6087E794E1E5
:1011140080939B6090939C6088E794E180939960AE
:1011240090939A6089E794E1809397609093986094
:1011340085E794E1809395609093966084E794E1C9
:0E1144008093936090939460DF91CF91089513
:1011520010C00E94591358F00E94521340F029F413
:101162005F3F29F00C94A31351110C9461130C945A
:101172006C140E94B10F68F39923B1F3552391F3D4
:10118200951B550BBB27AA2762177307840738F0F4
:101192009F5F5F4F220F331F441FAA1FA9F333D053
:1011A2000E2E3AF0E0E830D091505040E695001C07
:1011B200CAF729D0FE2F27D0660F771F881FBB1FC3
:1011C200261737074807AB07B0E809F0BB0B802D9D
:1011D200BF01FF2793585F4F3AF09E3F510568F0D9
:1011E2000C94A3130C9461135F3FE4F3983ED4F381
:1011F20086950E94AE139F5FD9F7880F911D969531
:10120200879597F90895E1E0660F771F881FBB1F46
:10121200621773078407BA0720F0621B730B840BF3
:0A122200BA0BEE1F88F7E09508955F
:10122C000FC00E94521338F00E94591320F09523DE
:10123C0011F00C94A3130C946C1411240C946113E2
:10124C000E94B10F70F3959FC1F3950F50E0551F9D
:10125C00629FF001729FBB27F00DB11D639FAA27FF
:10126C00F00DB11DAA1F649F6627B00DA11D661F4E
:10127C00829F2227B00DA11D621F739FB00DA11D6F
:10128C00621F839FA00D611D221F749F3327A00D29
:10129C00611D231F849F600D211D822F762F6A2FC5
:1012AC0011249F5750409AF0E1F088234AF0EE0F3A
:1012BC00FF1FBB1F661F771F881F91505040A9F757
:1012CC009E3F510570F00C94A3130C9461135F3F77
:1012DC00E4F3983ED4F386950E94AE13E7959F5F96
:1012EC00D1F7FE2B880F911D9695879597F9089548
:1012FC0011C00E94521338F00E94591320F039F497
:10130C009F3F19F426F40C946C140EF4E095E7FB53
:10131C000C94A313E92F0E94B10F58F3BA1762076C
:10132C0073078407950720F079F4A6F50C946013E5
:10133C000EF4E0950B2EBA2FA02D0B01B9019001E4
:10134C000C01CA01A0011124FF27591B99F0593F28
:10135C0050F4503E58F11A16F040A22F232F342F80
:10136C004427585FF3CF469537952795A795F040BE
:10137C005395C9F77EF41F16BA0B620B730B840BD3
:10138C00AAF0915091F0FF0FBB1F661F771F881FAB
:10139C00C2F70CC0BA0F621F731F841F38F48795F5
:1013AC000E94AE139E3F08F0B2CF9395880F08F0C1
:0A13BC009927EE0F97958795089585
:1013C6008F929F92AF92BF92CF92DF92EF92FF924F
:1013D600CF93DF93CDB7DEB72B97CDBFDEBF10928D
:1013E600B1600E94D1136B017C010E94D6134B01A0
:1013F6005C0126E636E646EE5FE3C701B6010E94CB
:1014060056146B017C0126E636E646EE5FE3C5011F
:10141600B4010E9456142AEA29830E94461452E413
:101426000E944C136A837B838C839D830E9446149F
:1014360052E4C701B6010E944C136E837F838887EE
:10144600998785E58A871B86CE0101969F938F93A0
:101456000E94F0100F900F902B96CDBFDEBFDF914C
:10146600CF91FF90EF90DF90CF90BF90AF909F907D
:041476008F900895B6
:10147A008091050982FF0AC086E08093356083E087
:10148A00809334608091050984602CC0809107099B
:10149A00882349F08091050984FF05C085E080937F
:1014AA00356081E00CC080910809882371F0809131
:1014BA00050984FF0AC085E08093356082E0809345
:1014CA0034608091050980610DC08091050983FF10
:1014DA000BC086E08093356083E08093346080910E
:1014EA000509886080930509E0913560F0E0EE0F08
:1014FA00FF1FE85DFE470190F081E02D099580937A
:10150A00356080913460882329F0E0919160F091F0
:06151A009260099408959F
:10152000A0E1B0E0E6E9FAE00C94A9105C013B010F
:101530006A017901280181E04822552400FD14C088
:10154000421753078CF487010C191D094801A801A3
:101550000131110510F040E150E060E270E0CE0191
:1015600001960E94CB120AC0A601B301C5010E94D8
:101570007110CE14DF043CF3C6011DC0003111050B
:1015800048F040E10E94DB13C5010E947110005138
:101590001109F4CFA4014F7055270E943E14C501D4
:1015A0000E9471104114510429F4A601B301C50130
:0E15B0000E947110C7016096E0E10C94DA1001
:1015BE00CF93DF93DC01F9016438710551F164F4C6
:1015CE0061387105D9F06238710509F426C06038AA
:1015DE00710509F031C01DC060397105F1F03CF4A0
:1015EE006838710509F028C00E94321422C0603A92
:1015FE00710579F0603C710561F01EC00E945E12AB
:10160E00052E000C660B770B408351836283738328
:10161E0010C00E94321451830CC00E9432145183A8
:10162E00852F880F880B82838383848385838683AB
:10163E00878381E090E002C080E090E0DF91CF915F
:02164E000895FD
:101650000F931F93CF93DF93DB012D913C91119753
:1016600030FF25C016964D915C91179714962D91D9
:101670003C9115974217530778F41296ED91FC911F
:101680001397808312962D913C9113972F5F3F4FB4
:1016900012962D933C93139716962D913C91179784
:1016A0002F5F3F4F16962D933C93179715C01C96AE
:1016B000ED91FC911D97309719F48FEF9FEF0CC0BF
:1016C0008B01EC010995892BC1F7F801868197817F
:1016D000019686839783CE01DF91CF911F910F9161
:0216E00008956B
:1016E200CF93DF93CDB7DEB72E97CDBFDEBF42E0FB
:1016F200BE01635F7F4F8FEF9FE30E94690F8111ED
:1017020002C080E02DC08E858C7790E095958795FC
:10171200959587958093B3604CE00E943E1483E0D8
:1017220090E40E94690F882361F3E6E3F0E6898181
:101732009A810E9442140E9477118F8198850E949B
:1017420042148683978389859A850E9442148087F2
:1017520091878B859C850E9442148287938781E0C2
:0C1762002E96CDBFDEBFDF91CF91089521
:10176E0060E080E690E00E94361460E081E690E052
:10177E000E94361460E085E690E00E94361460E028
:10178E0088E790E00E9436146CE088E690E00E94B4
:10179E00361460E089E690E00E94361460E080E73F
:1017AE0090E00E94361460E08CE790E00E943614C0
:1017BE0060E082E690E00E94361460E083E690E0FE
:1017CE000E94361460E084E690E00E94361460E0D9
:1017DE0080E890E00E9436148091650081FFFCCF76
:0217EE0008955C
:1017F0000E9423128823D9F18091050984FF0CC02F
:101800008091050986FF08C08091050982FD04C00A
:101810008091050983FF07C08091050982FD03C0FF
:101820008091050983FD0E943D0A8091050987FD8D
:1018300004C08091050986FF1AC08091050984FDC6
:1018400007C08091050982FD03C08091050983FDD1
:101850000C943D0AE0913560F0E0EE0FFF1FE85D6B
:10186000FE470190F081E02D099580933560089541
:10187000E89409C097FB3EF490958095709561952A
:101880007F4F8F4F9F4F9923A9F0F92F96E9BB27E0
:101890009395F695879577956795B795F111F8CF5C
:1018A000FAF4BB0F11F460FF1BC06F5F7F4F8F4FC7
:1018B0009F4F16C0882311F096E911C0772321F0BD
:1018C0009EE8872F762F05C0662371F096E8862F55
:1018D00070E060E02AF09A95660F771F881FDAF7AC
:0A18E000880F9695879597F90895F3
:1018EA001F920F920FB60F9211242F933F934F938B
:1018FA005F936F937F938F939F93AF93BF93EF936E
:10190A00FF938091430180FF07C0E091A360F091AB
:10191A00A460309709F009958091430181FF07C0BF
:10192A00E091A160F091A260309709F0099583E0F7
:10193A0080934301FF91EF91BF91AF919F918F9156
:10194A007F916F915F914F913F912F910F900FBEB1
:06195A000F901F9018958C
:10196000AC01FA0190814F5F5F4F9032D1F3292F84
:10197000092E000C330B295031092530310588F32D
:101980009B3209F540E050E0319602C040E050E063
:1019900080E090E06AE02191022E000C330B20538E
:1019A00031092A30310548F4689FD001699FB00D94
:1019B0001124CD01821B930BEECF452B49F4919559
:1019C0008195910908959D3209F741E050E0DCCFFF
:0219D000089578
:1019D200AF92BF92CF92DF92EF92FF920F931F933B
:1019E200CF93DF935C016B017A01E9010E9423121C
:1019F200811119C0E8E2F0E681E080932860A182BB
:101A0200B28280933360C382D482E582F682C78336
:101A1200D08701871287109234600E94B01280939F
:101A2200356081E001C080E0DF91CF911F910F917D
:0E1A3200FF90EF90DF90CF90BF90AF9008959F
:101A4000A7E0B0E0E6E2FDE00C94AD105C017A01A5
:101A5000C90127E0E2E4F0E6DE01119601900D9263
:101A60002A95E1F7FB01C280D380848095800081B4
:101A70001181452B21F49E012F5F3F4F7901009783
:101A800019F4C7010E94E111D7FC04C0C816D90699
:101A900008F4C6019401AC01B701C5010E94900A87
:081AA0002796ECE00C94DE1027
:101AA8001F920F920FB60F9211242F933F934F93CB
:101AB8005F936F937F938F939F93AF93BF93EF93AE
:101AC800FF931B9B05C0E0919D60F0919E60099576
:101AD8001A9B05C0E0919B60F0919C6009958FEF7F
:101AE80083B9FF91EF91BF91AF919F918F917F91B2
:101AF8006F915F914F913F912F910F900FBE0F9073
:041B08001F9018957D
:101B0C001F920F920FB60F9211242F933F934F9366
:101B1C005F936F937F938F939F93AF93BF93EF9349
:101B2C00FF937D9B05C0E0919960F0919A600995B7
:101B3C007C9B05C0E0919760F091986009958FEFC0
:101B4C008FB9FF91EF91BF91AF919F918F917F9141
:101B5C006F915F914F913F912F910F900FBE0F900E
:041B6C001F90189519
:101B70001F920F920FB60F9211242F933F934F9302
:101B80005F936F937F938F939F93AF93BF93EF93E5
:101B9000FF93BE9B05C0E0919560F091966009951A
:101BA000BD9B05C0E0919360F091946009958FEF23
:101BB00087BBFF91EF91BF91AF919F918F917F91E3
:101BC0006F915F914F913F912F910F900FBE0F90AA
:041BD0001F901895B5
:101BD4000F931F93CF93DF938C010F5F1F4FFC0173
:101BE4008081FB0124853585232B11F0EB0109C08D
:101BF4008FEF9FEF17C00995892BD1F7F8018191D9
:101C04008F01EC85FD85BE018111F5CF8AE0099530
:101C140021E030E0892B11F420E030E08827992777
:0E1C2400821B930BDF91CF911F910F910895BA
:101C3200EF92FF920F931F93CF93DF937C018B015F
:101C4200EA010E942312811119C0E8E2F0E681E064
:101C520080932860E182F2821092336003831483BE
:101C6200C583D6831782108611861286109234603D
:101C72000E94B0128093356081E001C080E0DF9164
:0C1C8200CF911F910F91FF90EF900895FB
:101C8E00E0E0F8E08BE890E080879187158280ECA9
:101C9E00868383E0878313861486168615868CE7E3
:101CAE0094E18093A9609093AA608BE794E180936E
:101CBE00A7609093A8608AE794E18093A5609093C3
:101CCE00A6601092AB601092AC60E091AD60F091A6
:0C1CDE00AE6088E190E680839183089559
:101CEA008091B260813079F030F08230B1F0833087
:101CFA0019F183E01FC00E949713811102C084E08A
:101D0A0019C081E017C00E94200F8823A9F00E9401
:101D1A00710B8823A1F382E00DC080E28093A704AF
:101D2A000E94F502882359F381E08093B1601092F2
:0A1D3A00B26008958093B26008952E
:101D44008091316090913260019721F4809104096F
:101D5400846003C0809104098B7F80930409E8E2C6
:101D6400F0E681859285019781879287A781B08566
:101D7400892B39F00E94941282608093040984E0D4
:101D840008950E9494128460809304090E94791338
:081D94000E94C01080E00895D8
:101D9C001F920F920FB60F9211242F933F934F93D4
:101DAC005F936F937F938F939F93AF93BF93EF93B7
:101DBC00FF93E0919F60F091A060309709F0099536
:101DCC0081E080935301FF91EF91BF91AF919F916F
:101DDC008F917F916F915F914F913F912F910F90C8
:081DEC000FBE0F901F90189527
:101DF4000F931F93CF93DF93CDB7DEB72697CDBF55
:101E0400DEBF8C0146E00E943E1485E094E20E940D
:101E1400690F882351F089819A8198278927982707
:101E2400F8010E94771181E001C080E02696CDBFC1
:0C1E3400DEBFDF91CF911F910F91089548
:101E40000F931F93CF93DF9300D0CDB7DEB7CE01B2
:101E500001960E94CC13882381F099818A8190FF9A
:101E600008C0082F0695069510E081E0082701704C
:101E700001C000E0802F817001C080E00F900F90C2
:0A1E8000DF91CF911F910F9108959B
:101E8A00E8E2F0E685819681892B81F08581968149
:101E9A00019785839683A381B481CD0101968383BB
:101EAA0094838C918093080983E00895809133602C
:101EBA00882321F01092336081E008950E947913FB
:081ECA000E94C01080E00895A1
:101ED2000F931F93CF93DF9300D0CDB7DEB79B0153
:101EE20099838A83042F10E042E00E94DB138AE385
:101EF20090E00E94E90C882341F00E94231288237B
:101F020019F00E94F80BF9CF81E00F900F90DF914A
:081F1200CF911F910F9108957A
:101F1A00990F0008550FAA0BE0E8FEEF16161706F0
:101F2A00E807F907C0F012161306E407F50798F058
:101F3A00621B730B840B950B39F40A2661F0232B71
:101F4A00242B252B21F408950A2609F4A140A695ED
:081F5A008FEF811D811D089528
:101F620057FD9058440F551F59F05F3F71F0479548
:101F7200880F97FB991F61F09F3F79F0879508952D
:101F8200121613061406551FF2CF4695F1DF08C04C
:101F9200161617061806991FF1CF86957105610569
:041FA2000894089502
:101FA600CF93DF9300D000D0CDB7DEB799838A8375
:101FB6007B836C8344E00E94DB138AE390E00E94FB
:101FC600190E882341F00E942312882319F00E94DB
:101FD600F80BF9CF81E02496CDBFDEBFDF91CF911C
:021FE60008955C
:101FE800CF93DF93EC0190E0E92FF0E0EE0FFF1FB5
:101FF800EE5FFF498081811102C081810EC0A881F6
:10200800B9812C91821305C091811196A883B98357
:1020180001C09F5F9B3040F3892FDF91CF910895D6
:102028000F931F93CF93DF9300D0CDB7DEB78B010B
:1020380042E00E943E140E94690F882349F089817A
:102048009A810E944214F8018083918381E001C043
:1020580080E00F900F90DF91CF911F910F9108951D
:10206800E0E4F1E0809141018111FACF8FEF90E037
:1020780084879587108611868FE190E08287938701
:102088001092470181E08093420189E380934001E7
:0E209800809151018111FCCF109252010895E8
:1020A600FA0160387105BCF0623871051CF06338BE
:1020B600710589F4A081B1819D012C5F3F4F20837A
:1020C60031830E94E513FC0140835183628373834D
:0C20D60081E090E0089580E090E0089523
:1020E200A0E0B0E0E7E7F0E10C94B1106C01EB0185
:1020F2008A017B01E40EF51ECE15DF0541F08991C0
:10210200B601082E000C990B0E94280BF5CFC801CE
:0A211200CDB7DEB7E8E00C94E21050
:10211C00E0E0F9E0108212828EE0868381E0838316
:10212C00158217821482108684818860848385814D
:10213C008160858383E794E18093916090939260B2
:02214C000895F4
:10214E002F923F924F925F926F927F928F929F92B9
:10215E00AF92BF92CF92DF92EF92FF920F931F93A7
:10216E00CF93DF93CDB7DEB7CA1BDB0BCDBFDEBF80
:02217E000994C2
:10218000E8E2F0E610828FEF90E081839283138281
:102190001482178210861586E0E0F9E08581806C54
:1021A000858383818F73838385818160858308958F
:1021B0002A88398848885F846E847D848C849B84D7
:1021C000AA84B984C884DF80EE80FD800C811B81E5
:1021D000AA81B981CE0FD11DCDBFDEBFED0108951B
:1021E000A0E0B0E0E6EFF0E10C94B710AE014B5F79
:1021F0005F4FFA0161917191AF01E091AD60F09193
:10220000AE60808191810E940811E2E00C94E81098
:10221000A2E0B0E0EEE0F1E10C94B5108C0149834E
:102220005A83AE014F5F5F4F0E94A400F8012081E6
:1022300024FF02C08FEF9FEF2296E4E00C94E6109B
:10224000262FAF93BF93E0E0F0E1328131FDFDCF67
:102250003DE934BF33E13083DC01A050BC4E2C9308
:102260003DE934BF20E020830196BF91AF910895EE
:102270000E94C5110E9491138AE391E80E94C21244
:1022800086B386FB882780F90E9465110E94750E2F
:0E2290000E9463148823D1F30E94E309F7CF64
:10229E00CF93882341F00E945F05C82F882359F001
:1022AE000E94A40708C00E944506C82F882399F3F0
:0C22BE0081E08093B4608C2FCF910895D4
:1022CA00CF93882311F081E001C080E00E944F1172
:1022DA00C82F0E946614C11103C084E08093B260C3
:0422EA00CF910895F3
:1022EE00808391838B819C8198278927982782836D
:1022FE0093838D819E819827892798278483958340
:02230E00089530
:10231000092E0394000C11F4882352F0BB0F40F4F3
:10232000BF2B11F460FF04C06F5F7F4F8F4F9F4F33
:0223300008950E
:10233200C756DF4FE881F981C959D040CF010196D4
:10234200C756DF4F88839983C959D04020810895A9
:10235200C756DF4F88819981C959D0400196C75627
:0C236200DF4F88839983C959D04008954B
:10236E0041E068ED80E590E00E943A1440E068EDAF
:0C237E0081E590E00E943A1480E0089590
:10238A000E9432080E94B70B0E948E100E943410DD
:0C239A000E94B7110E94470E0C94EF1136
:1023A60090E0982F8827A0E0B0E06A017B01C82A58
:0C23B600D92AEA2AFB2AC701B6010895C3
:1023C200FC01AF014F5F5F4F2081222311F0FA0120
:0C23D200F8CF9F01281B390BC9010895AA
:1023DE0040E068ED80E191E00E943A14E0E1F1E026
:0A23EE0012821382789480E00895B3
:1023F8000E949D132F8168850E94B9122E810E9428
:0A2408004E148D810E94D311089537
:102412000E949D132B856C850E94B9122A850E9409
:0A2422004E1489850E94D31108951D
:10242C000E949D132F8568890E94B9122E850E94E7
:0A243C004E148D850E94D3110895FF
:1024460080912860811105C0809105098095817071
:0824560001C081E081700895CE
:10245E00E0E0F9E083818E7F8383838181608383D3
:08246E008581816085830895DA
:10247600CF93C82F0E948B138823E1F3C0930208E1
:0824860080E090E0CF91089581
:10248E000024A7FD00942A1730054005500560056D
:08249E0070058005900508950A
:1024A6000E94A911D701ED91FC911197CF010296D7
:0624B6008D939C93089534
:1024BC00C081D181CE01029680839183E881F9811C
:0624CC00ED93FC9308955E
:1024D200E0E0F9E08581806C85830E942F121092E2
:0624E200286080E008956F
:1024E8002B816C810E94B9122A810E944E14898125
:0624F8000E94D3110895BB
:1024FE00EC010E947E140E947D14CE010E947F1476
:06250E00CE010E947114D1
:102514008091296090912A60880F816080930709D7
:0425240084E00895B2
:10252800CD01019687839087809108098C938091CB
:0425380004090895F5
:10253C0020E632E442EA5DE060E070E080E89FE390
:02254C000895F0
:10254E0010922860E0E0F9E085818160858388E063
:02255E000895DE
:102560008091296090912A60880F8093070983E009
:022570000895CC
:10257200862F90E0A0E0B0E0DC0199278827B22BFB
:022582000895BA
:10258400E091AD60F091AE60608171810E94EA0DCE
:022594000895A8
:10259600FC01480F591FE417F50711F06193FBCFB3
:0225A600089596
:1025A800D040CD57DF4F68827982C358D040089514
:1025B800632D70E0970140E050E00E942A140895CE
:1025C800AE0145575F4FBE016F577F4FC601089553
:1025D800762767277627072E000C880B990B089516
:1025E8009C01215431092A31310508F4806208958B
:1025F80003D0808199270895FC01E050FC4E08958E
:10260800242F0E942111252F0E9421110C9421149E
:0E261800C756DF4F88819981C959D040089577
:0E2626000E943D138081082E000C990B089530
:0E263400C756DF4F88829982C959D040089559
:0E264200C756DF4FE883F983C959D040089589
:0E265000CF57DF4F28813981C158D0400895FF
:0E265E00CD57DF4F88839983C358D04008952D
:0E266C00CB57DF4F88839983C558D04008951F
:0E267A00C756DF4FE881F981C959D040089555
:0E268800108A118A128A138A148A158A0895FC
:0E2696005058BB27AA270E947E090C94881179
:0E26A40000240A941616170618060906089553
:0E26B20000240A941216130614060506089555
:0E26C000E894BB2766277727CB0197F908958A
:0C26CE00632D70E0A7010E942A140895FB
:0C26DA000E94BD1302968D939C930895FE
:0C26E6000E942F121092286080E00895DE
:0C26F200E0E0F9E08481836084830895B7
:0C26FE000E9479130E94C01080E0089533
:0C270A000E9479130E94C01080E0089526
:0C2716008091040885FB882780F9089555
:0C272200E0E0F8E08681806C868308957A
:0C272E0062E078E081E090E30C94D30FAF
:0C273A006D937D938D939C9313970895ED
:0C27460097F99F6780E870E060E008955C
:0A275200880F991FAA1FBB1F0895EE
:0A275C0077956795B795F7950895F6
:0A2766000E94A9110E94E4120895D8
:0A2770000E9499110E94E4120895DE
:0A277A00CD91DC911197CE01089576
:0A2784000E9400130E941214089531
:0A278E008F938FEF8BB98F91189590
:0A279800BC018FEF9FE30C941410B6
:0A27A200E5E5F0E60E941214089528
:0A27AC00E9E5F0E60E94121408951A
:0A27B60050E0BE016F5F7F4F0895F1
:0A27C0004081518162817381089508
:0A27CA004D915D916D917C91089591
:0A27D400608371838283938308956C
:0A27DE0020E030E040E85BE30895DE
:0A27E80020E030E040E85AE30895D5
:0A27F20020E030E040E85FE30895C6
:0A27FC00072E000C880B990B0895BE
:0A2806002081318142815381089541
:0A2810002D913D914D915C910895CA
:0A281A00A7019601C701B601089559
:0A2824006081718182819381089523
:0A282E000E948D0F08F48FEF08954B
:0A2838000E94001380819181089531
:0A2842000E942011272F0C94211191
:08284C000E943D1380810895F4
:08285400CE0185579F4F089546
:08285C00DF4F18821982089574
:082864000E945E1240830895FA
:08286C00462F68ED0C943A14AC
:08287400FC0164BF40830895DC
:08287C00BE016F5F7F4F08955C
:08288400982789279827089581
:08288C0020E030E040E0089577
:0828940020E030E040E8089567
:08289C00AC01BD01422B0895BF
:0828A4000E94A9080C948811A0
:0828AC000E9416090C9488112A
:0628B40080E090E00895B1
:0628BA0080E090E00895AB
:0628C0000E94A911089519
:0628C6008091B16008954D
:0628CC008091B460089544
:0628D2000E949D13089511
:0628D8009FEF80EC089563
:0428DE000C94000056
:0428E2000E949200BE
:0228E600089553
:0228E800089551
:0228EA0008954F
:0228EC0008954D
:0228EE0008954B
:0228F000089549
:0228F200089547
:0228F400089545
:0228F600089543
:0228F800089541
:0228FA0008953F
:0228FC0008953D
:0228FE0008953B
:1029000068076C094C836A9074A07AC0008068885C
:0629100000846C820081CE
:102916000300000000000000000000003B12000061
:07292600286E756C6C29009E
:06292D00286E696C290010
:042933000000C84197
:042937000000C84193
:02293B00AF608B
:02000004008278
:090000000000000000D00800001F
:00000001FF
