:100000000C945D000C94990E0C94990E0C94990E1E
:100010000C94990E0C94AA080C94960A0C94990EC0
:100020000C941C090C94990E0C94990E0C94990E36
:100030000C94990E0C94990E0C94990E0C94990EA4
:100040000C94990E0C94990E0C94990E0C94990E94
:100050000C94990E0C94990E0C94990E0C94990E84
:100060000C944E090C94990E0C94990E0C94990EC4
:100070000C94990E0C940C0E0C94990E0C94990EF1
:100080000C94990E0C94990E0C9480090C94990E72
:10009000600060028060026012001D5460126032D5
:1000A000806032603A001D64603A608A80608A60D5
:1000B0008C001D6C608C60928000809101108F7CA0
:1000C000806080688093011011241FBECFEFCDBFE8
:1000D000DFE7DEBFE0E9F0E040E017C0B591A591B1
:1000E00035912591059107FD0CC095918591EF0102
:1000F000F92FE82F05900D92A217B307D9F7FE014B
:1001000004C01D92A217B307E1F7E93BF40731F7EA
:0C0110000E94400C0C94390DF894FFCFB5
:10011C00610D440D6A0D0D0B6A0AD90D230DD30D1B
:02012C00C70DFD
:0D012E0048656C6C6F20576F726C640D009B
:10013C004F925F926F927F928F929F92AF92BF92EB
:10014C00CF92DF92EF92FF92CF93DF93CDB7DEB7D2
:10015C002D97CDBFDEBF80919060823029F08091C9
:10016C009060813009F042C160912A6070912B60DF
:10017C000E943E0E0E946F084B015C01609124604E
:10018C00709125600E943E0E0E946F0820E030E0C6
:10019C0040E451E40E94820E6B017C01E6E4F0E63F
:1001AC000E94430E0E94860EA50194010E94AC0D84
:1001BC009B01AC01C701B6010E94820E0E94760E13
:1001CC0059E40E94860E69837A838B839C83809189
:1001DC009060813049F4A0E2B0E66D917C91809101
:1001EC0022609091236008C0609126607091276016
:1001FC008091286090912960680F791F0E943E0EB3
:10020C000E946F080E94760E5FE30E94860E20E02B
:10021C0030E040E451E40E94820E2B013C01A2E448
:10022C00B0E60E94480EC701B6010E94860EA501D9
:10023C0094010E94AC0D9B01AC01C301B2010E9460
:10024C00820E0E94760E59E40E94860E2B013C0110
:10025C00EAE6F0E60E94430E69817A818B819C81EB
:10026C000E94AB0D6B017C01A6E6B0E60E94480E25
:10027C000E94820EEEE5F0E60E94430E0E94AC0D49
:10028C004B015C010E944D0E0E94860EA2E6B0E668
:10029C000E94480E0E94860E9B01AC01C501B40160
:1002AC000E94AC0D4B015C01E2E3F0E60E942A0EC9
:1002BC0023E333E948E853E40E94AC0D6B017C0165
:1002CC00AEE3B0E60E94480EE2E5F0E60E94520E64
:1002DC000E94860E69837A838B839C83AAE4B0E6A2
:1002EC008D919D910D90BC91A02D8D839E83AF839C
:1002FC00B88720E030E048EC51E4C501B4010E941D
:10030C00AB0DEEE4F0E60E94430E0E94860E4B010C
:10031C005C010E944D0E0E94860EA70196010E9460
:10032C00860EA70196010E94860E6B017C01AAE342
:10033C00B0E68D919D910D90BC91A02D89879A87E7
:10034C00AB87BC8793E09D87B0E0A0E0F8ECE1E4DC
:10035C0020E030E048EC51E46B2F7A2F8F2F9E2F4A
:10036C000E94AB0D2D813E814F8158850E94860ED7
:10037C000E94390E0E94AC0DA50194010E94AC0D97
:10038C0029813A814B815C810E94860E9B01AC01D4
:10039C00C301B2010E94820EA70196010E94AC0D0E
:1003AC000E940F020E940F0223E333E948E853E452
:1003BC000E94AB0D29853A854B855C850E94AB0D5F
:1003CC00AD85A150AD87B62FA72FF82FE92F2D851E
:1003DC002111BECFC62ED72EE82EF92EE6E3F0E67D
:1003EC00C082D182E282F38281E001C080E02D964E
:1003FC00CDBFDEBFDF91CF91FF90EF90DF90CF901C
:10040C00BF90AF909F908F907F906F905F904F9028
:02041C00089541
:10041E004F925F926F927F928F929F92AF92BF9206
:10042E00CF92DF92EF92FF920F931F936B017C019D
:10043E00DC01CB01B701A6014427552760787F77F1
:10044E004115510560487F4749F40E944D0E0E94A8
:10045E00860EA70196010E94AC0D18C0181619063B
:10046E001A061B06C4F0892B8A2B8B2B09F4B2C0FB
:10047E0081E290E080930060909301600E944D0EA7
:10048E000E94AB0D9B01AC010E94820E562F472F8E
:10049E00382F292FA3C067E1F594E794D794C7941A
:1004AE006A95D1F7C114D104E104F104D1F4C12C41
:1004BE00D12C7601A7FD08C00E94FD0D2FEFC21AA8
:1004CE00D20AE20AF20AF6CF21E0C21AD108E108F6
:1004DE00F108F094E094D094C094C11CD11CE11C9E
:1004EE00F11C2FE7C21AD108E108F108AF77BB273C
:1004FE00A068C0FE02C00E94FD0DF594E794D7944B
:10050E00C7940E94FD0DE9E1F0E040E050E060E0AC
:10051E0071E0812C912C540100E010E0980128012B
:10052E003901440E551E661E771E84159505A605C7
:10053E00B70574F093018201040F151F261F371F94
:10054E0084199509A609B709840E951EA61EB71E15
:10055E000E94FD0D76956795579547953197F9F65B
:10056E00892B8A2B8B2B21F10E94580D0E94AB0DEB
:10057E000E94390E0E94570E87FD1AC00E94580D18
:10058E000E94AC0D0E94390E0E94570E181634F4BC
:10059E0082E0880E911CA11CB11C0AC0D501C401B9
:1005AE0081709927AA27BB27880E991EAA1EBB1EEB
:1005BE00D501C401B595A79597958795B15C37E19F
:1005CE00CC0CDD1CEE1CFF1C3A95D1F7C80ED91EC3
:1005DE00EA1EFB1E5C2D4D2D3E2D2F2D652F742FEB
:1005EE00832F922F1F910F91FF90EF90DF90CF905E
:1005FE00BF90AF909F908F907F906F905F904F9035
:02060E0008954D
:10061000CF92DF92EF92FF921F93CF93DF93CDB7EC
:10062000DEB76897CDBFDEBF8CE290E60E94C20ABB
:10063000182F882309F4C6C040E10E946E0E8CE09A
:1006400094E20E94550B811102C010E0BBC00E94D1
:100650002E0D0E946F080E942F0E0E94860EAAE6A1
:10066000B0E60E94D80C0E946F080E947A0E55E3F3
:100670000E94860EA6E6B0E60E94E50C0E946F0876
:100680000E947A0E59E20E94860EA2E6B0E60E940F
:10069000F20C0E946F080E942F0E0E94860EAEE59B
:1006A000B0E60E94930E48E10E946E0E84E294E24E
:1006B0000E94550B882309F4C8CF0E942E0D0E947A
:1006C0006F080E947A0E57E30E94860EAAE5B0E6F4
:1006D0000E94D80C0E946F080E942F0E0E94860E66
:1006E000A6E5B0E60E94E50C0E946F080E947A0E13
:1006F00058E20E94860EA2E5B0E60E94F20C0E942B
:100700006F080E947A0E5DE20E94860EAEE4B0E6AB
:100710000E94930E2B896C890E94730D2A890E9476
:100720007E0E89890E94BD0C0E946F080E947A0E7D
:100730005DE20E94860EAAE4B0E60E94930E6D89E7
:100740007E890E94850D0E946F080E94340E0E94CF
:10075000860EE6E4F0E60E942A0E6F89788D0E94EC
:10076000850D0E946F080E94340E0E94860EA2E43E
:10077000B0E60E94930E44E00E946E0E81E894E27F
:100780000E94550B882309F460CF69817A810E9409
:10079000850D0E946F080E947A0E58E30E94860E13
:1007A000EEE3F0E60E942A0E6B817C810E94850DAB
:1007B0000E946F080E94340E0E94860EAAE3B0E6E3
:1007C0000E94930E812F6896CDBFDEBFDF91CF913F
:0C07D0001F91FF90EF90DF90CF900895F4
:1007DC008F929F92AF92BF92CF92DF92EF92FF9245
:1007EC001F93CF93DF9300D0CDB7DEB78CE290E6AA
:1007FC000E94C20A182F811102C010E098C080E03C
:10080C0090E00E945C0E5C0182E090E00E945C0E25
:10081C006C0184E090E00E945C0E4C017501EC24AC
:10082C00FD24E826F9268AE390E00E945C0E898379
:10083C009A8389819A81E816F906F9F6ECE2F0E6DA
:10084C0080819181A816B906C1F682819381C81660
:10085C00D90699F6848195818816990671F686E0F9
:10086C0090E00E94070EEAE6F0E60E942A0E8AE06B
:10087C0090E00E94070EA6E6B0E60E94930E8EE072
:10088C0090E00E94070EE2E6F0E60E942A0E82E15A
:10089C0090E00E94070EAEE5B0E60E94930E86E152
:1008AC0090E00E94070EEAE5F0E60E942A0E8AE12B
:1008BC0090E00E94070EA6E5B0E60E94930E8EE132
:1008CC0090E00E94070EE2E5F0E60E942A0E82E21A
:1008DC0090E00E94070EAEE4B0E60E94930E86E212
:1008EC0090E00E94070EEAE4F0E60E942A0E8AE2EB
:1008FC0090E00E94070EA6E4B0E60E94930E8EE2F2
:10090C0090E00E94070EE2E4F0E60E942A0E82E3D9
:10091C0090E00E94070EAEE3B0E60E94930E86E3D1
:10092C0090E00E94070EEAE3F0E60E942A0E812F67
:10093C000F900F90DF91CF911F91FF90EF90DF9070
:0C094C00CF90BF90AF909F908F900895C7
:10095800CF93DF93CCE2D0E66881798180E090E0A4
:100968000E94610E6A817B8182E090E00E94610EA4
:100978006C817D8184E090E00E94610EEAE6F0E6F9
:100988000E94200E86E090E00E94950DA6E6B0E653
:100998000E94250E8AE090E00E94950DE2E6F0E6BE
:1009A8000E94200E8EE090E00E94950DAEE5B0E624
:1009B8000E94250E82E190E00E94950DEAE5F0E69E
:1009C8000E94200E86E190E00E94950DA6E5B0E613
:1009D8000E94250E8AE190E00E94950DE2E5F0E67E
:1009E8000E94200E8EE190E00E94950DAEE4B0E6E4
:1009F8000E94250E82E290E00E94950DEAE4F0E65E
:100A08000E94200E86E290E00E94950DA6E4B0E6D2
:100A18000E94250E8AE290E00E94950DE2E4F0E63D
:100A28000E94200E8EE290E00E94950DAEE3B0E6A3
:100A38000E94250E82E390E00E94950DEAE3F0E61D
:100A48000E94200E86E390E00E94950D68817981CE
:100A58008A819B81682779278C819D8168277927DE
:0C0A68008AE390E0DF91CF910C94610EC6
:100A7400CF93DF9380E094E02CE0FC012083C0E47A
:100A8400D4E01882A0E6B4E020E12C9340EA54E0DC
:100A940020E2FA012083FC0114821C8214961C9229
:100AA4001497FA011482FC010E949D0D168A178A7C
:100AB400188A198A1A8A1B8A1C8A1D8A1E8A1F8A06
:100AC40050961C92509751961C92519752961C9294
:100AD400529753961C92539754961C92549755963A
:100AE4001C92559756961C92569757961C92FA014B
:100AF4000E949D0D88E8868B178AE0EEF5E011824E
:100B040010821582178210861186168283E08283F2
:100B140080EA9EE080937A6090937B6081EA9EE015
:100B2400809378609093796082EA9EE08093766007
:100B34009093776083EA9EE08093746090937560ED
:100B44008FE99EE080937260909373608EE99EE0DB
:0E0B54008093706090937160DF91CF9108954F
:100B620010C00E94B90D58F00E94B20D40F029F455
:100B72005F3F29F00C94F70D51110C94C10D0C94A8
:100B8200960E0E94770B68F39923B1F3552391F3E4
:100B9200951B550BBB27AA2762177307840738F0EA
:100BA2009F5F5F4F220F331F441FAA1FA9F333D049
:100BB2000E2E3AF0E0E830D091505040E695001CFD
:100BC200CAF729D0FE2F27D0660F771F881FBB1FB9
:100BD200261737074807AB07B0E809F0BB0B802D93
:100BE200BF01FF2793585F4F3AF09E3F510568F0CF
:100BF2000C94F70D0C94C10D5F3FE4F3983ED4F3CF
:100C020086950E94020E9F5FD9F7880F911D9695D7
:100C1200879597F90895E1E0660F771F881FBB1F3C
:100C2200621773078407BA0720F0621B730B840BE9
:0A0C3200BA0BEE1F88F7E095089555
:100C3C000FC00E94B20D38F00E94B90D20F0952320
:100C4C0011F00C94F70D0C94960E11240C94C10D0C
:100C5C000E94770B70F3959FC1F3950F50E0551FD1
:100C6C00629FF001729FBB27F00DB11D639FAA27F5
:100C7C00F00DB11DAA1F649F6627B00DA11D661F44
:100C8C00829F2227B00DA11D621F739FB00DA11D65
:100C9C00621F839FA00D611D221F749F3327A00D1F
:100CAC00611D231F849F600D211D822F762F6A2FBB
:100CBC0011249F5750409AF0E1F088234AF0EE0F30
:100CCC00FF1FBB1F661F771F881F91505040A9F74D
:100CDC009E3F510570F00C94F70D0C94C10D5F3FC5
:100CEC00E4F3983ED4F386950E94020EE7959F5F3D
:100CFC00D1F7FE2B880F911D9695879597F908953E
:100D0C008F929F92AF92BF92CF92DF92EF92FF920F
:100D1C000F931F93CF93DF93CDB7DEB72A97CDBF39
:100D2C00DEBF10928E600E94160E6B017C010E9439
:100D3C001B0E4B015C0126E636E646EE5FE3C7016F
:100D4C00B6010E94860E6B017C0126E636E646EE65
:100D5C005FE3C501B4010E94860E2AEA29830E9432
:100D6C00760E52E40E94AC0D6A837B838C839D8348
:100D7C000E94760E52E4C701B6010E94AC0D6E8340
:100D8C007F838887998785E58A87CE0101967C01C8
:100D9C008C01D02EDE18FAE0DF1651F00E94DF0D28
:100DAC008823C9F3F80181918F010E948A0EF1CF3B
:100DBC002A96CDBFDEBFDF91CF911F910F91FF908F
:100DCC00EF90DF90CF90BF90AF909F908F90089551
:100DDC0011C00E94B20D38F00E94B90D20F039F408
:100DEC009F3F19F426F40C94960E0EF4E095E7FB55
:100DFC000C94F70DE92F0E94770B58F3BA17620782
:100E0C0073078407950720F079F4A6F50C94C00DB0
:100E1C000EF4E0950B2EBA2FA02D0B01B901900109
:100E2C000C01CA01A0011124FF27591B99F0593F4D
:100E3C0050F4503E58F11A16F040A22F232F342FA5
:100E4C004427585FF3CF469537952795A795F040E3
:100E5C005395C9F77EF41F16BA0B620B730B840BF8
:100E6C00AAF0915091F0FF0FBB1F661F771F881FD0
:100E7C00C2F70CC0BA0F621F731F841F38F487951A
:100E8C000E94020E9E3F08F0B2CF9395880F08F097
:0A0E9C009927EE0F979587950895AA
:100EA6008091050982FF0AC086E080931F6083E077
:100EB60080931E608091050984602CC0809107098B
:100EC600882349F08091050984FF05C085E0809359
:100ED6001F6081E00CC080910809882371F0809121
:100EE600050984FF0AC085E080931F6082E0809335
:100EF6001E608091050980610DC08091050983FF00
:100F06000BC086E080931F6083E080931E60809113
:100F16000509886080930509E0911F60F0E0EE0FF7
:100F2600FF1FE45EFE470190F081E02D0995809356
:100F36001F6080911E60882329F0E0916E60F09119
:060F46006F60099408959C
:100F4C00CF93DF93CDB7DEB72E97CDBFDEBF42E098
:100F5C00BE01635F7F4F8FEF9FE30E94550B8111A2
:100F6C0002C080E02DC08E858C7790E0959587959A
:100F7C0095958795809390604CE00E946E0E83E06F
:100F8C0090E40E94550B882361F3E0E2F0E689813E
:100F9C009A810E94720E0E947F0C8F8198850E940C
:100FAC00720E8683978389859A850E94720E80873C
:100FBC0091878B859C850E94720E8287938781E036
:0C0FCC002E96CDBFDEBFDF91CF910895BF
:100FD80060E080E690E00E94660E60E081E690E0C6
:100FE8000E94660E60E085E690E00E94660E60E072
:100FF80088E790E00E94660E6CE088E690E00E9428
:10100800660E60E089E690E00E94660E60E080E788
:1010180090E00E94660E60E08CE790E00E94660E09
:1010280060E082E690E00E94660E60E083E690E071
:101038000E94660E60E084E690E00E94660E60E022
:1010480080E890E00E94660E8091650081FFFCCFE9
:021058000895F9
:10105A000E94FF0C8823D9F18091050984FF0CC0F6
:10106A008091050986FF08C08091050982FD04C0A8
:10107A008091050983FF07C08091050982FD03C09D
:10108A008091050983FD0E9453078091050987FD18
:10109A0004C08091050986FF1AC08091050984FD64
:1010AA0007C08091050982FD03C08091050983FD6F
:1010BA000C945307E0911F60F0E0EE0FFF1FE45E0F
:1010CA00FE470190F081E02D099580931F600895F5
:1010DA00E89409C097FB3EF49095809570956195C8
:1010EA007F4F8F4F9F4F9923A9F0F92F96E9BB277E
:1010FA009395F695879577956795B795F111F8CFFA
:10110A00FAF4BB0F11F460FF1BC06F5F7F4F8F4F64
:10111A009F4F16C0882311F096E911C0772321F05A
:10112A009EE8872F762F05C0662371F096E8862FF2
:10113A0070E060E02AF09A95660F771F881FDAF749
:0A114A00880F9695879597F9089590
:101154001F920F920FB60F9211242F933F934F9328
:101164005F936F937F938F939F93AF93BF93EF930B
:10117400FF938091430180FF07C0E0918060F0916C
:101184008160309709F009958091430181FF07C080
:10119400E0917E60F0917F60309709F0099583E0DB
:1011A40080934301FF91EF91BF91AF919F918F91F4
:1011B4007F916F915F914F913F912F910F900FBE4F
:0611C4000F901F9018952A
:1011CA00AF92BF92CF92DF92EF92FF920F931F934B
:1011DA00CF93DF935C016B017A01E9010E94FF0C56
:1011EA00811119C0E2E1F0E681E080931260A182E8
:1011FA00B28280931D60C382D482E582F682C7835D
:10120A00D0870187128710921E600E946A0D809310
:10121A001F6081E001C080E0DF91CF911F910F91A3
:0E122A00FF90EF90DF90CF90BF90AF900895AF
:101238001F920F920FB60F9211242F933F934F9343
:101248005F936F937F938F939F93AF93BF93EF9326
:10125800FF931B9B05C0E0917A60F0917B60099534
:101268001A9B05C0E0917860F091796009958FEF3D
:1012780083B9FF91EF91BF91AF919F918F917F912A
:101288006F915F914F913F912F910F900FBE0F90EB
:041298001F901895F6
:10129C001F920F920FB60F9211242F933F934F93DF
:1012AC005F936F937F938F939F93AF93BF93EF93C2
:1012BC00FF937D9B05C0E0917660F0917760099576
:1012CC007C9B05C0E0917460F091756009958FEF7F
:1012DC008FB9FF91EF91BF91AF919F918F917F91BA
:1012EC006F915F914F913F912F910F900FBE0F9087
:0412FC001F90189592
:101300001F920F920FB60F9211242F933F934F937A
:101310005F936F937F938F939F93AF93BF93EF935D
:10132000FF93BE9B05C0E0917260F09173600995D8
:10133000BD9B05C0E0917060F091716009958FEFE1
:1013400087BBFF91EF91BF91AF919F918F917F915B
:101350006F915F914F913F912F910F900FBE0F9022
:041360001F9018952D
:101364000F931F93CF93DF938C010F5F1F4FFC01EB
:101374008081FB0124853585232B11F0EB0109C005
:101384008FEF9FEF17C00995892BD1F7F801819151
:101394008F01EC85FD85BE018111F5CF8AE00995A9
:1013A40021E030E0892B11F420E030E088279927F0
:0E13B400821B930BDF91CF911F910F91089533
:1013C200EF92FF920F931F93CF93DF937C018B01D8
:1013D200EA010E94FF0C811119C0E2E1F0E681E00E
:1013E20080931260E182F28210921D600383148363
:1013F200C583D683178210861186128610921E60CC
:101402000E946A0D80931F6081E001C080E0DF913D
:0C141200CF911F910F91FF90EF90089573
:10141E00E0E0F8E08BE890E080879187158280EC21
:10142E00868383E08783138614861686158686EA5E
:10143E009EE0809386609093876085EA9EE080931D
:10144E0084609093856084EA9EE08093826090939E
:10145E0083601092886010928960E0918A60F091AA
:0C146E008B6082E090E6808391830895FB
:10147A0080918F60813079F030F08230B1F0833022
:10148A0019F183E01FC00E94EB0D811102C084E0B4
:10149A0019C081E017C00E94E80A8823A9F00E94B7
:1014AA00A6078823A1F382E00DC080E28093A704F7
:1014BA000E949E00882359F381E080938E601092E7
:0A14CA008F60089580938F600895ED
:1014D40080911B6090911C60019721F48091040914
:1014E400846003C0809104098B7F80930409E2E146
:1014F400F0E681859285019781879287A781B085DF
:10150400892B39F00E944E0D82608093040984E097
:1015140008950E944E0D8460809304090E94CD0DAD
:081524000E94100C80E0089504
:10152C001F920F920FB60F9211242F933F934F934C
:10153C005F936F937F938F939F93AF93BF93EF932F
:10154C00FF93E0917C60F0917D60309709F00995F4
:10155C0081E080935301FF91EF91BF91AF919F91E7
:10156C008F917F916F915F914F913F912F910F9040
:08157C000FBE0F901F9018959F
:101584000F931F93CF93DF93CDB7DEB72697CDBFCD
:10159400DEBF8C0146E00E946E0E85E094E20E945C
:1015A400550B882351F089819A8198278927982798
:1015B400F8010E947F0C81E001C080E02696CDBF37
:0C15C400DEBFDF91CF911F910F910895C1
:1015D0000F931F93CF93DF9300D0CDB7DEB7CE012B
:1015E00001960E94110E882381F099818A8190FFD3
:1015F00008C0082F0695069510E081E008270170C5
:1016000001C000E0802F817001C080E00F900F903A
:0A161000DF91CF911F910F91089513
:10161A00E2E1F0E685819681892B81F085819681C8
:10162A00019785839683A381B481CD010196838333
:10163A0094838C918093080983E0089580911D60BA
:10164A00882321F010921D6081E008950E94CD0D3B
:08165A000E94100C80E00895CD
:10166200990F0008550FAA0BE0E8FEEF16161706B1
:10167200E807F907C0F012161306E407F50798F019
:10168200621B730B840B950B39F40A2661F0232B32
:10169200242B252B21F408950A2609F4A140A695AE
:0816A2008FEF811D811D0895E9
:1016AA000F931F93CF93DF9300D0CDB7DEB79B0183
:1016BA0099838A83042F10E042E00E94A40D0E94BD
:1016CA00E508882341F00E94FF0C882319F00E9444
:1016DA002D08F9CF81E00F900F90DF91CF911F91E4
:0416EA000F910895BF
:1016EE0057FD9058440F551F59F05F3F71F04795C5
:1016FE00880F97FB991F61F09F3F79F087950895AA
:10170E00121613061406551FF2CF4695F1DF08C0C8
:10171E00161617061806991FF1CF869571056105E5
:04172E00089408957E
:101732000F931F93CF93DF9300D0CDB7DEB78B010A
:1017420042E00E946E0E0E94550B882349F0898167
:101752009A810E94720EF8018083918381E001C018
:1017620080E00F900F90DF91CF911F910F9108951C
:10177200E0E4F1E0809141018111FACF8FEF90E036
:1017820084879587108611868FE190E08287938700
:101792001092470181E08093420189E380934001E6
:0E17A200809151018111FCCF109252010895E7
:1017B000CF93DF9300D000D0CDB7DEB799838A8373
:1017C0007B836C8344E00E94A40D0E94E10988237E
:1017D00041F00E94FF0C882319F00E942D08F9CFD8
:0E17E00081E02496CDBFDEBFDF91CF9108954A
:1017EE00E0E0F9E0108212828EE0868381E083834E
:1017FE001582178214821086848188608483858185
:10180E00816085838DE99EE080936E6090936F601A
:02181E0008952B
:10182000E2E1F0E610828FEF90E0818392831382F1
:101830001482178210861586E0E0F9E08581806CBD
:10184000858383818F7383838581816085830895F8
:10185000262FAF93BF93E0E0F0E1328131FDFDCF61
:101860003DE934BF33E13083DC01A050BC4E2C9302
:101870003DE934BF20E020830196BF91AF910895E8
:101880000E94AF0C0E94E50D8EE291E80E947C0D53
:1018900086B386FB882780F90E946D0C0E943D0A62
:0E18A0000E948D0E8823D1F30E948606F7CF9A
:1018AE00CF93882341F00E940803C82F882359F054
:1018BE000E94AC0408C00E94EE03C82F882399F33F
:0C18CE0081E0809391608C2FCF910895F1
:1018DA00CF93882311F081E001C080E00E94570C69
:1018EA00C82F0E94900EC11103C084E080938F60BC
:0418FA00CF910895ED
:1018FE00808391838B819C81982789279827828367
:10190E0093838D819E819827892798278483958339
:02191E0008952A
:10192000092E0394000C11F4882352F0BB0F40F4ED
:10193000BF2B11F460FF04C06F5F7F4F8F4F9F4F2D
:02194000089508
:1019420041E068ED80E590E00E946A0E40E068EDBB
:0C19520081E590E00E946A0E80E008959C
:10195E000E943A050E94EC070E94F70B0E94B90BF9
:0C196E000E94A10C0E940F0A0C94CB0CEC
:10197A0090E0982F8827A0E0B0E06A017B01C82A8E
:0C198A00D92AEA2AFB2AC701B6010895F9
:1019960040E068ED80E191E00E946A0EE0E1F1E04E
:0A19A60012821382789480E0089505
:1019B0000E94F10D2F8168850E94730D2E810E9477
:0A19C0007E0E8D810E94BD0C08957B
:1019CA000E94F10D2B856C850E94730D2A850E9459
:0A19DA007E0E89850E94BD0C089561
:1019E4000E94F10D2F8568890E94730D2E850E9437
:0A19F4007E0E8D850E94BD0C089543
:1019FE0080911260811105C08091050980958170DA
:081A0E0001C081E08170089520
:101A1600E0E0F9E083818E7F838383818160838325
:081A260085818160858308952C
:101A2E00CF93C82F0E94DF0D8823E1F3C0930208E5
:081A3E0080E090E0CF910895D3
:101A4600E0E0F9E08581806C85830E940B0D1092A1
:061A5600126080E008951B
:101A5C002B816C810E94730D2A810E947E0E8981DC
:061A6C000E94BD0C08956C
:101A7200EC010E94A80E0E94A70ECE010E94A90EA0
:061A8200CE010E949B0E44
:101A88008091136090911460880F8160809307099A
:041A980084E0089549
:101A9C00CD01019687839087809108098C93809162
:041AAC00040908958C
:101AB00020E632E442EA5DE060E070E080E89FE327
:021AC000089587
:101AC20010921260E0E0F9E085818160858388E010
:021AD200089575
:101AD4008091136090911460880F8093070983E0CC
:021AE400089563
:101AE600862F90E0A0E0B0E0DC0199278827B22B92
:021AF600089551
:101AF800E0918A60F0918B60608171810E94B209E7
:021B080008953E
:101B0A00762767277627072E000C880B990B0895EE
:101B1A0003D0808199270895FC01E050FC4E089576
:101B2A00242F0E94290C252F0E94290C0C94610E47
:0E1B3A00108A118A128A138A148A158A089555
:0E1B480050E0BE016F5F7F4F8AE390E008958A
:0E1B56005058BB27AA270E94EE060C94900C54
:0E1B640000240A94161617061806090608959E
:0E1B720000240A9412161306140605060895A0
:0E1B8000E894BB2766277727CB0197F90895D5
:0C1B8E000E940B0D1092126080E0089580
:0C1B9A00E0E0F9E084818360848308951A
:0C1BA6000E94CD0D0E94100C80E00895FC
:0C1BB2000E94CD0D0E94100C80E00895F0
:0C1BBE008091040885FB882780F90895B9
:0C1BCA00E0E0F8E08681806C86830895DE
:0C1BD60062E078E081E090E30C94D80B12
:0C1BE2006D937D938D939C931397089551
:0C1BEE0097F99F6780E870E060E00895C0
:0A1BFA00880F991FAA1FBB1F089552
:0A1C040077956795B795F795089559
:0A1C0E000E94910D0E94520E0895ED
:0A1C18008F938FEF8BB98F91189511
:0A1C2200BC018FEF9FE30C94990BB7
:0A1C2C00E2E3F0E60E94520E089574
:0A1C3600E6E3F0E60E94520E089566
:0A1C40004081518162817381089593
:0A1C4A004D915D916D917C9108951C
:0A1C540060837183828393830895F7
:0A1C5E0020E030E040E85BE3089569
:0A1C680020E030E040E85AE3089560
:0A1C720020E030E040E85FE3089551
:0A1C7C00072E000C880B990B089549
:0A1C860020813181428153810895CD
:0A1C90002D913D914D915C91089556
:0A1C9A00A7019601C701B6010895E5
:0A1CA40060817181828193810895AF
:0A1CAE000E94310B08F48FEF089537
:0A1CB8000E94910D80819181089532
:0A1CC2000E94280C272F0C94290C17
:081CCC00462F68ED0C946A0E2E
:081CD400FC0164BF4083089588
:081CDC00BE016F5F7F4F089508
:081CE40098278927982708952D
:081CEC0020E030E040E0089523
:081CF40020E030E040E8089513
:081CFC00AC01BD01422B08956B
:081D04000E94B1050C94900C43
:081D0C000E941E060C94900CCD
:061D14008093020808950F
:061D1A0080918E60089527
:061D20008091916008951E
:061D26000E94F10D08957A
:061D2C009FEF80EC08951A
:041D32000C9400000D
:041D36000E948C007B
:021D3A0008950A
:021D3C00089508
:021D3E00089506
:021D4000089504
:021D4200089502
:021D4400089500
:021D46000895FE
:021D48000895FC
:021D4A000895FA
:021D4C000895F8
:021D4E000895F6
:021D50000895F4
:021D52000895F2
:101D5400030000000000000000000000170D000058
:041D64000000C84172
:041D68000000C8416E
:021D6C008C6089
:02000004008278
:090000000000000000D00800001F
:00000001FF
