:100000000C9463000C941B170C941B170C941B1777
:100010000C941B170C94B7100C942A130C941B17F8
:100020000C9409120C941B170C941B170C941B179F
:100030000C941B170C941B170C941B170C941B1778
:100040000C941B170C941B170C941B170C941B1768
:100050000C941B170C941B170C941B170C941B1758
:100060000C943B120C941B170C941B170C941B172D
:100070000C941B170C94E9160C941B170C941B176B
:100080000C941B170C941B170C946D120C941B17DB
:10009000600060028060026028002E586028604284
:1000A0008060426049002E7E6049604F80604F60F2
:1000B0005D002E85605D60AD8060AD60AF002E9309
:1000C00060AF60B58000809101108F7C8060806897
:1000D0008093011011241FBECFEFCDBFDFE7DEBF3D
:1000E000E0E9F0E040E017C0B591A5913591259188
:1000F000059107FD0CC095918591EF01F92FE82F2F
:1001000005900D92A217B307D9F7FE0104C01D9206
:10011000A217B307E1F7E53CF40731F70E947E151B
:080120000C943C16F894FFCF8B
:10012800511647165A16E8137C1009178716C51377
:02013800D115DF
:0D013A0048656C6C6F20576F726C640D008F
:10014800AAE9B0E0EAEAF0E00C9405156C017A013E
:10015800C756DF4F68837983C959D040A12CB12C89
:1001680066246A94762C90E8492E512C25E2222E9A
:10017800C756DF4F68817981C959D040FB0180811A
:10018800882309F471C3CF57DF4F18821982C158E9
:10019800D040CD57DF4F68827982C358D040CB57C3
:1001A800DF4F18821982C558D04081E090E08C0F4B
:1001B8009D1FC957DF4F88839983C758D040C757B9
:1001C800DF4F48825982C958D040FB0100E010E057
:1001D8008191811116C001151105C1F0A801C60150
:1001E8000E94B314C756DF4F88819981C959D040FE
:1001F800800F911FC756DF4F88839983C959D04014
:1002080005C0853241F30F5F1F4FE2CFC756DF4F5E
:10021800E881F981C959D0408081853209F012C33B
:100228004F019FEF891A990AC756DF4F8882998232
:10023800C959D040C756DF4F88819981C959D040E4
:10024800DC012C912B3241F4CF57DF4F28813981C3
:10025800C158D04024600BC02C32BCF02D3249F577
:10026800CF57DF4F28813981C158D0402160CF57FF
:10027800DF4F28833983C158D0400196C756DF4FD6
:1002880088839983C959D040D5CF203241F4CF57BC
:10029800DF4F28813981C158D0402860E8CF233208
:1002A80091F4CF57DF4F28813981C158D040206160
:1002B800DECF203341F4CF57DF4F28813981C15831
:1002C800D0402260D4CF2A3289F50196C756DF4F35
:1002D80088839983C959D040D701ED91FC91119732
:1002E800CF0102968D939C9380819181CB57DF4FEC
:1002F80088839983C558D04097FF35C0CF57DF4FC3
:1003080028813981C158D040B1E02B27CF57DF4F22
:1003180028833983C158D040919581959109CB574D
:10032800DF4F88839983C558D0401DC00E942D1186
:10033800CB57DF4F88839983C558D040C756DF4FC6
:10034800E881F981C959D0408081082E000C990BA9
:10035800C0970A9740F43196C756DF4FE883F98370
:10036800C959D040EBCFCF57DF4F88819981C15809
:10037800D04080FF07C08D7FCF57DF4F8883998398
:10038800C158D040C756DF4FE881F981C959D040DC
:1003980080818E3209F046C0CD57DF4F188219820E
:1003A800C358D040CF010196C756DF4F8883998341
:1003B800C959D04021812A32C1F43296C756DF4F3D
:1003C800E883F983C959D040D701ED91FC91119781
:1003D800CF0102968D939C9380819181CD57DF4FF9
:1003E80088839983C358D0401DC00E942D11CD57D2
:1003F800DF4F88839983C358D040C756DF4FE881C1
:10040800F981C959D0408081082E000C990BC097FA
:100418000A9740F43196C756DF4FE883F983C959E4
:10042800D040EBCFCE0187569F4F0E947314382ED1
:10043800C756DF4FE881F981C959D0408081082E1D
:10044800000C990B0E948F168936910509F456C045
:10045800B4F48336910509F46BC144F485329105EF
:1004680009F4A2C18136910529F1B4C184369105F8
:1004780009F444C0883691050CF436C1ABC1803705
:10048800910509F4C4C04CF48E36910509F420C1D5
:100498008F36910509F47AC09DC18537910509F415
:1004A80051C08837910509F495C08337910509F043
:1004B80091C15DC1632D70E0A701CE0185579F4FA3
:1004C8000E949314892B09F4B0C1C756DF4FE88105
:1004D800F981C959D040CF010196C756DF4F8883AB
:1004E8009983C959D0402081AE0145575F4FBE015D
:1004F8006F577F4FC6010E94181794C1632D70E093
:10050800970141E050E0CE0185579F4F0E940D0BA7
:10051800892B09F48AC1C756DF4F88819981C95947
:10052800D0400196C756DF4F88839983C959D04078
:10053800AE0145575F4FBE016F577F4FC6010E94FE
:10054800151770C1632D70E0970140E050E0CE01AF
:1005580085579F4F0E940D0B892B09F466C1C7561A
:10056800DF4F88819981C959D0400196C756DF4F1E
:1005780088839983C959D040AE0145575F4FBE0162
:100588006F577F4FC6010E9415174CC1632D70E04D
:10059800970140E050E0CE0185579F4F0E940D0B18
:1005A800892B09F442C1C756DF4F88819981C959FF
:1005B800D0400196C756DF4F88839983C959D040E8
:1005C800AE0145575F4FBE016F577F4FC6010E946E
:1005D800151728C1632D70E0970140E050E0CE0167
:1005E80085579F4F0E940D0B892B09F41EC1C756D2
:1005F800DF4FE881F981C959D040CF010196C7562C
:10060800DF4F88839983C959D040208157C097010B
:1006180040E050E060EF70E0CE0185579F4F0E94A8
:100628000D0B892B09F401C1C756DF4F88819981C9
:10063800C959D0400196C756DF4F88839983C95955
:10064800D04086E0EFE4F0E6DE01AD56BF4F019002
:100658000D928A95E1F7C557DF4F2881CB58D040D6
:10066800C457DF4F3881CC58D040C357DF4F48813B
:10067800CD58D040C257DF4F5881CE58D040C157CF
:10068800DF4F6881CF58D040C057DF4F7881C059BD
:10069800D040CF56DF4F8881C159D040CE56DF4F6A
:1006A8009881C259D040A0E00E94301631F420E071
:1006B80030E0AE014D565F4FAFC028E7AE01455759
:1006C8005F4FBE016F577F4FC6010E941817AAC01F
:1006D800632D70E09701A501400F511FCE0185578A
:1006E8009F4F0E94B40CA1C0632D70E0A701CE01FA
:1006F80085579F4F0E949314892B09F496C0C756BB
:10070800DF4FE881F981C959D040CF010196C7561A
:10071800DF4F88839983C959D0402081AE0145575E
:100728005F4FBE016F577F4FC6010E9418177AC0EE
:10073800B0E83B127AC0C756DF4F88819981C95902
:10074800D0400196C756DF4F88839983C959D04056
:10075800D701ED91FC911197CF0102968D939C934F
:100768008081C557DF4F8883CB58D04050C0B0E850
:100778003B125BC0C756DF4F88819981C959D04069
:100788000196C756DF4F88839983C959D040D7014E
:10079800ED91FC911197CF0102968D939C93408126
:1007A800518120E030E038C0B0E83B123EC0C75667
:1007B800DF4F88819981C959D0400196C756DF4FCC
:1007C80088839983C959D040C557DF4F2882CB58B1
:1007D800D0401DC0C557DF4F2882CB58D040C756E0
:1007E800DF4F88829982C959D040CF57DF4F18828E
:1007F8001982C158D040CB57DF4F18821982C5588B
:10080800D040CD57DF4F68827982C358D04021E06D
:1008180030E0AE0145575F4FBE016F577F4FC601AD
:100828000E94D511800F911F0EC0C756DF4F8881D7
:100838009981C959D0400196C756DF4F888399835B
:10084800C959D040C8018501080F191F0A151B0591
:100858004CF48FE490E080930060909301608FEFF8
:100868009FEF03C0580184CCC501C656DF4FE2E1B3
:040878000C94661561
:10087C00CF92DF92EF92FF921F93CF93DF93CDB77E
:10088C00DEB76897CDBFDEBF89E490E60E946611A3
:10089C00182F882309F41AC240E1BE016F5F7F4F05
:1008AC008CE094E20E945613882309F40AC22B812F
:1008BC006C81862F90E0A0E0B0E0DC0199278827BE
:1008CC00B22B2A81AC01BD01422B898190E0982F7B
:1008DC008827A0E0B0E06A017B01C82AD92AEA2A5D
:1008EC00FB2AC701B6010E94411020E030E040E82D
:1008FC005BE30E94051760938D6070938E6080930C
:10090C008F60909390602F816885862F90E0A0E097
:10091C00B0E0DC0199278827B22B2E81AC01BD01F8
:10092C00422B8D8190E0982F8827A0E0B0E06A01DF
:10093C007B01C82AD92AEA2AFB2AC701B6010E94E0
:10094C00411020E030E040E855E30E940517609329
:10095C00896070938A6080938B6090938C602B85F8
:10096C006C85862F90E0A0E0B0E0DC019927882709
:10097C00B22B2A85AC01BD01422B898590E0982FC2
:10098C008827A0E0B0E06A017B01C82AD92AEA2AAC
:10099C00FB2AC701B6010E94411020E030E040E87C
:1009AC0059E20E940517609385607093866080936E
:1009BC008760909388602F856889862F90E0A0E0EF
:1009CC00B0E0DC0199278827B22B2E85AC01BD0144
:1009DC00422B8D8590E0982F8827A0E0B0E06A012B
:1009EC007B01C82AD92AEA2AFB2AC701B6010E9430
:1009FC00411020E030E040E85BE30E940517609373
:100A0C00816070938260809383609093846048E1EE
:100A1C00BE016F5F7F4F84E294E20E9456138823DD
:100A2C0009F451C12B816C81862F90E0A0E0B0E0DD
:100A3C00DC0199278827B22B2A81AC01BD01422BFE
:100A4C00898190E0982F8827A0E0B0E06A017B01B3
:100A5C00C82AD92AEA2AFB2AC701B6010E944110EA
:100A6C0020E030E040E857E30E94051760937D607A
:100A7C0070937E6080937F60909380602F816885F7
:100A8C00862F90E0A0E0B0E0DC0199278827B22BFC
:100A9C002E81AC01BD01422B8D8190E0982F8827CF
:100AAC00A0E0B0E06A017B01C82AD92AEA2AFB2A15
:100ABC00C701B6010E94411020E030E040E85BE342
:100ACC000E9405176093796070937A6080937B60C5
:100ADC0090937C602B856C85862F90E0A0E0B0E035
:100AEC00DC0199278827B22B2A85AC01BD01422B4A
:100AFC00898590E0982F8827A0E0B0E06A017B01FF
:100B0C00C82AD92AEA2AFB2AC701B6010E94411039
:100B1C0020E030E040E858E20E94051760937560D1
:100B2C007093766080937760909378602F85688956
:100B3C00862F90E0A0E0B0E0DC0199278827B22B4B
:100B4C002E85AC01BD01422B8D8590E0982F882716
:100B5C00A0E0B0E06A017B01C82AD92AEA2AFB2A64
:100B6C00C701B6010E94411020E030E040E85DE290
:100B7C000E9405176093716070937260809373602C
:100B8C00909374602B896C89862F90E0A0E0B0E084
:100B9C00DC0199278827B22B2A89AC01BD01422B95
:100BAC00898990E0982F8827A0E0B0E06A017B014A
:100BBC00C82AD92AEA2AFB2AC701B6010E94411089
:100BCC0020E030E040E85DE20E94051760936D6024
:100BDC0070936E6080936F60909370606D8970E01D
:100BEC00762F66278E89682B072E000C880B990BA5
:100BFC000E94411020E030E040E85AE30E940517C3
:100C0C006093696070936A6080936B6090936C6082
:100C1C006F8970E0762F6627888D682B072E000C65
:100C2C00880B990B0E94411020E030E040E85AE319
:100C3C000E9405176093656070936660809367608F
:100C4C009093686044E0BE016F5F7F4F81E894E24F
:100C5C000E9456138823C9F1698170E0762F6627AC
:100C6C008A81682B072E000C880B990B0E9441106F
:100C7C0020E030E040E858E30E9405176093616083
:100C8C007093626080936360909364606B8170E09A
:100C9C00762F66278C81682B072E000C880B990BFE
:100CAC000E94411020E030E040E85AE30E94051712
:100CBC0060935D6070935E6080935F609093606002
:100CCC0005C010E003C010E001C010E0812F689651
:100CDC00CDBFDEBFDF91CF911F91FF90EF90DF90E2
:040CEC00CF90089508
:100CF0004F925F926F927F928F929F92AF92BF922C
:100D0000CF92DF92EF92FF92CF93DF93CDB7DEB712
:100D10006197CDBFDEBF8091B360823029F08091B2
:100D2000B360813009F08DC1609140607091416085
:100D3000072E000C880B990B0E9441104B015C019F
:100D400060913A6070913B60072E000C880B990B04
:100D50000E94411020E030E040E451E40E9401177D
:100D60006B017C012091696030916A6040916B60F9
:100D700050916C600E940517A50194010E94AF1666
:100D80009B01AC01C701B6010E94011720E030E0D1
:100D900040E059E40E94051769837A838B839C8322
:100DA0008091B3608130A9F4E6E3F0E6608171815F
:100DB00082819381680F791F072E000C880B990B95
:100DC0000E94411020E030E040E05FE30E94051700
:100DD00014C0E6E3F0E66681778180859185680F2F
:100DE000791F072E000C880B990B0E94411020E000
:100DF00030E040E05FE30E94051720E030E040E48F
:100E000051E40E9401172B013C0120916560309153
:100E100066604091676050916860C701B6010E94AA
:100E20000517A50194010E94AF169B01AC01C301F7
:100E3000B2010E94011720E030E040E059E40E9436
:100E400005176D837E838F83988720918D60309105
:100E50008E6040918F605091906069817A818B8122
:100E60009C810E94AE164B015C01209189603091FB
:100E70008A6040918B6050918C600E940117209194
:100E800081603091826040918360509184600E94C3
:100E9000AF162B013C01A5019401C501B4010E94CC
:100EA0000517209185603091866040918760509150
:100EB00088600E9405179B01AC01C301B2010E942A
:100EC000AF162B013C016093556070935660809380
:100ED00057609093586023E333E948E853E40E9455
:100EE000AF164B015C0120916160309162604091CE
:100EF00063605091646060917560709176608091DC
:100F00007760909178600E94051769837A838B835C
:100F10009C8380916D6090916E60A0916F60B091A4
:100F2000706089879A87AB87BC8720E030E048EC07
:100F300051E4C301B2010E94AE162091716030915C
:100F4000726040917360509174600E9405176D87C4
:100F50007E878F87988BA5019401C501B4010E94FB
:100F60000517A50194010E940517A50194010E948F
:100F700005172B013C01C0905D60D0905E60E09051
:100F80005F60F090606093E0B0E0A0E0F8ECE1E436
:100F9000998B20E030E048EC51E46B2F7A2F8F2FB3
:100FA0009E2F0E94AE1629853A854B855C850E944E
:100FB000051720E030E040E85FE30E94AF162D8582
:100FC0003E854F8558890E94AF1629813A814B8111
:100FD0005C810E9405179B01AC016D817E818F8130
:100FE00098850E9401174B015C01A3019201C50184
:100FF000B4010E94AF160E9434080E94340823E313
:1010000033E948E853E40E94AE16A70196010E9416
:10101000AE16A989A150A98BB62FA72FF82FE92FBB
:1010200029892111B6CFC62ED72EE82EF92EC092CF
:101030005960D0925A60E0925B60F0925C6081E00F
:1010400001C080E06196CDBFDEBFDF91CF91FF9000
:10105000EF90DF90CF90BF90AF909F908F907F9058
:081060006F905F904F9008951E
:101068004F925F926F927F928F929F92AF92BF92B0
:10107800CF92DF92EF92FF920F931F936B017C0147
:10108800DC01CB01B701A6014427552760787F779B
:101098004115510560487F4759F4A7019601C701DA
:1010A800B6010E940517A70196010E94AF161AC043
:1010B800181619061A061B06D4F0892B8A2B8B2BB7
:1010C80009F4CCC081E290E08093006090930160C5
:1010D800A7019601C701B6010E94AE169B01AC019B
:1010E8000E940117562F472F382F292FBBC067E1C1
:1010F800F594E794D794C7946A95D1F7C114D104AD
:10110800E104F104E1F4C12CD12C7601A7FD0AC059
:10111800880F991FAA1FBB1F2FEFC21AD20AE20A13
:10112800F20AF4CF21E0C21AD108E108F108F094DC
:10113800E094D094C094C11CD11CE11CF11C2FE791
:10114800C21AD108E108F108AF77BB27A068C0FE32
:1011580004C0880F991FAA1FBB1FF594E794D79462
:10116800C794880F991FAA1FBB1FE9E1F0E040E070
:1011780050E060E071E0812C912C540100E010E017
:10118800980128013901440E551E661E771E8415E4
:101198009505A605B70574F093018201040F151F84
:1011A800261F371F84199509A609B709840E951EAD
:1011B800A61EB71E880F991FAA1FBB1F7695679595
:1011C800579547953197E9F6892B8A2B8B2BA1F1F7
:1011D80020E632E442EA5DE060E070E080E89FE308
:1011E8000E94AE1620E030E040E85FE30E94EE1671
:1011F80087FD22C020E632E442EA5DE060E070E06C
:1012080080E89FE30E94AF1620E030E040E85FE30B
:101218000E94EE16181634F482E0880E911CA11C68
:10122800B11C0AC0D501C40181709927AA27BB2720
:10123800880E991EAA1EBB1ED501C401B595A79597
:1012480097958795B15C37E1CC0CDD1CEE1CFF1C33
:101258003A95D1F7C80ED91EEA1EFB1E5C2D4D2DFE
:101268003E2D2F2D652F742F832F922F1F910F91B5
:10127800FF90EF90DF90CF90BF90AF909F908F90AE
:0A1288007F906F905F904F900895E3
:101292008F929F92AF92BF92CF92DF92EF92FF9284
:1012A2001F93CF93DF9300D0CDB7DEB789E490E6EA
:1012B2000E946611182F882309F4DCC080E090E0B8
:1012C2000E94F3166C0182E090E00E94F3165C012A
:1012D20084E090E00E94F3164C017601EA24FB249C
:1012E200E826F9268AE390E00E94F31689839A831E
:1012F20089819A81E816F90609F0B5C080914960A2
:1013020090914A60C816D90609F0AFC080914B602F
:1013120090914C60A816B90609F0A9C080914D6061
:1013220090914E608816990609F0A3C086E090E07D
:101332000E94CA1660938D6070938E6080938F6056
:10134200909390608AE090E00E94CA166093896050
:1013520070938A6080938B6090938C608EE090E0B3
:101362000E94CA166093856070938660809387603E
:101372009093886082E190E00E94CA166093816037
:1013820070938260809383609093846086E190E0A2
:101392000E94CA1660937D6070937E6080937F6026
:1013A200909380608AE190E00E94CA16609379600F
:1013B20070937A6080937B6090937C608EE190E082
:1013C2000E94CA166093756070937660809377600E
:1013D2009093786082E290E00E94CA1660937160F6
:1013E20070937260809373609093746086E290E071
:1013F2000E94CA1660936D6070936E6080936F60F6
:10140200909370608AE290E00E94CA1660936960CD
:1014120070936A6080936B6090936C608EE290E050
:101422000E94CA16609365607093666080936760DD
:101432009093686082E390E00E94CA1660936160B4
:1014420070936260809363609093646086E390E03F
:101452000E94CA1660935D6070935E6080935F60C5
:101462009093606007C010E005C010E003C010E078
:1014720001C010E0812F0F900F90DF91CF911F914B
:10148200FF90EF90DF90CF90BF90AF909F908F90A2
:021492000895BB
:10149400CF93DF93C9E4D0E66881798180E090E05E
:1014A4000E94F8166A817B8182E090E00E94F8161F
:1014B4006C817D8184E090E00E94F81640918D60FB
:1014C40050918E6060918F607091906086E090E0A2
:1014D4000E9497164091896050918A6060918B6058
:1014E40070918C608AE090E00E949716409185602C
:1014F4005091866060918760709188608EE090E082
:101504000E9497164091816050918260609183603F
:101514007091846082E190E00E94971640917D6012
:1015240050917E6060917F607091806086E190E070
:101534000E9497164091796050917A6060917B6027
:1015440070917C608AE190E00E94971640917560EA
:101554005091766060917760709178608EE190E050
:101564000E9497164091716050917260609173600F
:101574007091746082E290E00E94971640916D60D1
:1015840050916E6060916F607091706086E290E03F
:101594000E9497164091696050916A6060916B60F7
:1015A40070916C608AE290E00E94971640916560A9
:1015B4005091666060916760709168608EE290E01F
:1015C4000E949716409161605091626060916360DF
:1015D4007091646082E390E00E94971640915D6090
:1015E40050915E6060915F607091606086E390E00E
:1015F4000E949716688179818A819B81682779275F
:101604008C819D81682779278AE390E00E94F816EF
:06161400DF91CF91089563
:10161A000F931F93CF93DF93FC01D90168387105AB
:10162A0031F194F461387105B1F12CF46038710527
:10163A0009F478C09FC06238710509F459C064384A
:10164A00710509F46FC096C0603A710509F448C083
:10165A002CF46039710509F44BC08CC0603C7105EB
:10166A0009F476C0603F710509F472C083C0CD9158
:10167A00DC911197CE0102968D939C93452B39F0FC
:10168A009881892F880F880B908381835BC088811A
:10169A008083118268C0CD91DC911197CE010496A6
:1016AA008D939C93452B99F088819981AA81BB815E
:1016BA00AC01BD01770F440B542FBA01808391838B
:1016CA00A283B383448345834683478328C0088122
:1016DA0019812A813B81008311832283338345C088
:1016EA00CD91DC911197CE0102968D939C9323C0E4
:1016FA00CD91DC911197CE0108968D939C937881B8
:10170A0069815A814B813C812D819E818F817083B1
:10171A00618352834383348325839683878381E05D
:10172A0090E02AC0CD91DC911197CE0102968D935B
:10173A009C93452BA1F099812881892F880F880BCA
:10174A002083918382838383848385838683E6CF00
:10175A00CD91DC911197CE0102968D939C930881CD
:10176A0019810083118312821382148215821682D0
:10177A001782D5CF80E090E0DF91CF911F910F9132
:02178A000895C0
:10178C00CF93DF9380E094E02CE0FC012083C0E455
:10179C00D4E01882A0E6B4E020E12C9340EA54E0B7
:1017AC0020E2FA012083FC0114821C8214961C9204
:1017BC001497FA011482FC01108A118A128A138A76
:1017CC00148A158A168A178A188A198A1A8A1B8A01
:1017DC001C8A1D8A1E8A1F8A50961C9250975196FD
:1017EC001C92519752961C92529753961C92539757
:1017FC0054961C92549755961C92559756961C923B
:10180C00569757961C92FA01108A118A128A138ADB
:10181C00148A158A88E8868B178AE0EEF5E0118227
:10182C0010821582178210861186168283E08283BD
:10183C0080E297E180939D6090939E6081E297E1B6
:10184C0080939B6090939C6082E297E18093996077
:10185C0090939A6083E297E180939760909398605D
:10186C0084E297E1809395609093966085E297E18E
:0E187C008093936090939460DF91CF910895D4
:10188A0010C00E94BC1658F00E94B51640F029F408
:10189A005F3F29F00C94E31651110C94C4160C9472
:1018AA0012170E94511468F39923B1F3552391F347
:1018BA00951B550BBB27AA2762177307840738F0B5
:1018CA009F5F5F4F220F331F441FAA1FA9F335D012
:1018DA000E2E3AF0E0E832D091505040E695001CC6
:1018EA00CAF72BD0FE2F29D0660F771F881FBB1F80
:1018FA00261737074807AB07B0E809F0BB0B802D5E
:10190A00BF01FF2793585F4F3AF09E3F510578F089
:10191A000C94E3160C94C4165F3FE4F3983ED4F398
:10192A00869577956795B795F7959F5FC9F7880F5D
:10193A00911D9695879597F90895E1E0660F771FAF
:10194A00881FBB1F621773078407BA0720F0621B40
:0E195A00730B840BBA0BEE1F88F7E09508950F
:10196800CF93DF93DC01F90164387105D9F164F490
:101978006138710521F16238710509F440C0603899
:10198800710509F054C02EC060397105C1F184F4A5
:101998006838710509F04BC0C081D181CE0102962B
:1019A80080839183E881F981ED93FC9340833CC067
:1019B800603A7105B9F0603C7105A1F038C0C0818A
:1019C800D181CE01029680839183E881F981ED93DC
:1019D800FC93052E000C660B770B408351836283C2
:1019E800738322C0C081D181CE0102968083918306
:1019F800E881F981ED93FC934083518315C0C08140
:101A0800D181CE01029680839183E881F981ED939B
:101A1800FC9340835183852F880F880B82838383AF
:101A2800848385838683878381E090E002C080E099
:081A380090E0DF91CF910895C9
:101A40000FC00E94B51638F00E94BC1620F09523F6
:101A500011F00C94E3160C94121711240C94C41674
:101A60000E94511470F3959FC1F3950F50E0551FDC
:101A7000629FF001729FBB27F00DB11D639FAA27E3
:101A8000F00DB11DAA1F649F6627B00DA11D661F32
:101A9000829F2227B00DA11D621F739FB00DA11D53
:101AA000621F839FA00D611D221F749F3327A00D0D
:101AB000611D231F849F600D211D822F762F6A2FA9
:101AC00011249F5750409AF0F1F088234AF0EE0F0E
:101AD000FF1FBB1F661F771F881F91505040A9F73B
:101AE0009E3F510580F00C94E3160C94C4165F3FA2
:101AF000E4F3983ED4F3869577956795B795F79577
:101B0000E7959F5FC1F7FE2B880F911D96958795EE
:041B100097F90895A4
:101B140011C00E94B51638F00E94BC1620F039F4AA
:101B24009F3F19F426F40C9412170EF4E095E7FB8A
:101B34000C94E316E92F0E94511458F3BA17620764
:101B440073078407950720F079F4A6F50C94C3165F
:101B54000EF4E0950B2EBA2FA02D0B01B9019001C4
:101B64000C01CA01A0011124FF27591B99F0593F08
:101B740050F4503E68F11A16F040A22F232F342F50
:101B84004427585FF3CF469537952795A795F0409E
:101B94005395C9F77EF41F16BA0B620B730B840BB3
:101BA400BAF09150A1F0FF0FBB1F661F771F881F6B
:101BB400C2F70EC0BA0F621F731F841F48F48795C3
:101BC40077956795B795F7959E3F08F0B0CF9395B5
:0E1BD400880F08F09927EE0F979587950895D2
:101BE200CF93DF93CDB7DEB72E97CDBFDEBF42E0F6
:101BF200BE016F5F7F4F8FEF9FE30E9456138823D2
:101C020009F447C08A818C7790E0959587959595E0
:101C120087958093B3604CE0BE016D5F7F4F83E098
:101C220090E40E9456138823B1F1E6E3F0E68B813B
:101C320090E0982F88272C81822B808391838D813D
:101C420090E0982F88272E81822B828393838F8125
:101C520090E0982F88272885822B84839583898515
:101C620090E0982F88272A85822B868397838B85FD
:101C720090E0982F88272C85822B808791878D85ED
:101C820090E0982F88272E85822B8287938781E088
:101C920003C080E001C080E02E96CDBFDEBFDF91A1
:041CA200CF91089541
:101CA600CF93DF938091050982FF0CC0E8E2F0E64E
:101CB60086E0858783E08487E0E0F9E085818460BB
:101CC600858337C080910709882381F080910509B3
:101CD60084FF0CC0E8E2F0E685E0858781E0848732
:101CE600E0E0F9E085818061858323C08091080961
:101CF600882381F08091050984FF0CC0E8E2F0E6B4
:101D060085E0858782E08487E0E0F9E0858180616F
:101D160085830FC08091050983FF0BC0E8E2F0E6DA
:101D260086E0858783E08487E0E0F9E08581886046
:101D36008583C8E2D0E6ED85F0E0EE0FFF1FE85D93
:101D4600FE470190F081E02D09958D878C858823CB
:101D560029F0E0919160F09192600995DF91CF9121
:021D66000895DE
:101D68008F929F92AF92BF92CF92DF92EF92FF92A3
:101D7800CF93DF93CDB7DEB72B97CDBFDEBF1092E1
:101D8800B1600E9463166B017C010E946C164B01C6
:101D98005C0126E636E646EE5FE3C701B6010E941F
:101DA80005176B017C0126E636E646EE5FE3C501C2
:101DB800B4010E9405172AEA298320E030E040E0B8
:101DC80052E40E94AF166A837B838C839D8320E054
:101DD80030E040E052E4C701B6010E94AF166E83BE
:101DE8007F838887998785E58A871B86CE01019638
:101DF8009F938F930E941E150F900F902B96CDBF27
:101E0800DEBFDF91CF91FF90EF90DF90CF90BF9032
:081E1800AF909F908F90089598
:101E2000A0E1B0E0E6E1FFE00C9407155C013B01A6
:101E30006A017901280181E04822552400FD14C07F
:101E4000421753078CF487010C191D094801A8019A
:101E50000131110510F040E150E060E270E0CE0188
:101E600001960E947E160AC0A601B301C5010E9418
:101E7000B314CE14DF043CF3C60120C000311105B9
:101E800058F040E150E0BE016F5F7F4FC5010E94F6
:101E9000B31400511109F2CFA4014F705527BE01B0
:101EA0006F5F7F4FC5010E94B3144114510429F4A0
:101EB000A601B301C5010E94B314C7016096E0E119
:041EC0000C94681501
:101EC40040E068ED80E690E00E94FD1640E068ED99
:101ED40081E690E00E94FD1640E068ED85E690E022
:101EE4000E94FD1640E068ED88E790E00E94FD1630
:101EF4004CE068ED88E690E00E94FD1640E068ED55
:101F040089E690E00E94FD1640E068ED80E790E0ED
:101F14000E94FD1640E068ED8CE790E00E94FD16FB
:101F240040E068ED82E690E00E94FD1640E068ED36
:101F340083E690E00E94FD1640E068ED84E690E0C0
:101F44000E94FD1640E068ED80E890E00E94FD16D6
:0C1F5400E0E6F0E0858181FFFDCF0895FC
:101F60000F931F93CF93DF93DB012D913C9111973A
:101F700030FF25C016964D915C91179714962D91C0
:101F80003C9115974217530778F41296ED91FC9106
:101F90001397808312962D913C9113972F5F3F4F9B
:101FA00012962D933C93139716962D913C9117976B
:101FB0002F5F3F4F16962D933C93179715C01C9695
:101FC000ED91FC911D97309719F48FEF9FEF0CC0A6
:101FD0008B01EC010995892BC1F7F8018681978166
:101FE000019686839783CE01DF91CF911F910F9148
:021FF000089552
:101FF200CF93DF930E9418168823E9F18091050997
:1020020084FF0CC08091050986FF08C080910509F4
:1020120082FD04C08091050983FF07C080910509F4
:1020220082FD03C08091050983FD0E94530E8091B9
:102032000509882324F08091050986FF1CC0809140
:10204200050984FD08C08091050982FD04C08091C4
:10205200050983FF03C00E94530E0DC0C8E2D0E6FB
:10206200ED85F0E0EE0FFF1FE85DFE470190F08185
:0C207200E02D09958D87DF91CF91089536
:10207E00E89409C097FB3EF4909580957095619514
:10208E007F4F8F4F9F4F9923A9F0F92F96E9BB27CA
:10209E009395F695879577956795B795F111F8CF46
:1020AE00FAF4BB0F11F460FF1BC06F5F7F4F8F4FB1
:1020BE009F4F16C0882311F096E911C0772321F0A7
:1020CE009EE8872F762F05C0662371F096E8862F3F
:1020DE0070E060E02AF09A95660F771F881FDAF796
:0A20EE00880F9695879597F90895DD
:1020F8008091316090913260019731F4E0E0F9E02D
:1021080084818460848305C0E0E0F9E084818B7F6A
:102118008483E8E2F0E6818592850197818792873A
:10212800892B79F0A781B085CD01019687839087A7
:10213800E0E0F9E080858C9384818260848384E088
:102148000895E8E2F0E6A781B085CD01019687837E
:102158009087E0E0F9E080858C93848184608483B3
:062168000E94C51308955A
:10216E001F920F920FB60F9211242F933F934F93FE
:10217E005F936F937F938F939F93AF93BF93EF93E1
:10218E00FF938091430180FF07C0E091A360F0911F
:10219E00A460309709F009958091430181FF07C033
:1021AE00E091A160F091A260309709F0099583E06B
:1021BE0080934301FF91EF91BF91AF919F918F91CA
:1021CE007F916F915F914F913F912F910F900FBE25
:0621DE000F901F90189500
:1021E4008091B260813091F028F08230F9F0833030
:1021F40089F12DC00E94A716811104C084E0809348
:10220400B260089581E08093B26008950E947C13C7
:10221400882301F10E94F10D811104C084E08093B0
:10222400B260089582E08093B260089580E2809362
:10223400A7040E947806882331F081E08093B1607E
:102244001092B260089584E08093B260089583E0B0
:062254008093B2600895C2
:10225A00AC01FA0190814F5F5F4F9032D1F3292F81
:10226A00092E000C330B295031092530310588F32A
:10227A009B3209F540E050E0319602C040E050E060
:10228A0080E090E06AE02191022E000C330B20538B
:10229A0031092A30310548F4689FD001699FB00D91
:1022AA001124CD01821B930BEECF452B49F4919556
:1022BA008195910908959D3209F741E050E0DCCFFC
:0222CA00089575
:1022CC000F931F93CF93DF93CDB7DEB72697CDBF78
:1022DC00DEBF8C0146E0BE016F5F7F4F85E094E26C
:1022EC000E9456138823D9F0898190E0982F882773
:1022FC002A81822BF801808391838B8190E0982F27
:10230C0088272C81822B828393838D8190E0982F58
:10231C0088272E81822B8483958381E001C080E005
:10232C002696CDBFDEBFDF91CF911F910F910895FF
:10233C008F929F92AF92BF92CF92DF92EF92FF92C9
:10234C000F931F93CF93DF935C016B017A014901CB
:10235C000E941816811115C0C8E2D0E681E088836E
:10236C00A982BA828B87CB82DC82ED82FE828F823D
:10237C00988609871A871C860E945A168D8781E0D9
:10238C0001C080E0DF91CF911F910F91FF90EF90F2
:0E239C00DF90CF90BF90AF909F908F900895EC
:1023AA00A7E0B0E0EBEDF1E10C940B155C017A01CA
:1023BA00C90127E0E2E4F0E6DE01119601900D92F0
:1023CA002A95E1F7FB01C280D38084809580008141
:1023DA001181452B21F49E012F5F3F4F7901009710
:1023EA0019F4C7010E94FD15D7FC04C0C816D90606
:1023FA0008F4C6019401AC01B701C5010E94100F8F
:08240A002796ECE00C946C1520
:102412001F920F920FB60F9211242F933F934F9357
:102422005F936F937F938F939F93AF93BF93EF933A
:10243200FF931B9B05C0E0919D60F0919E60099502
:102442001A9B05C0E0919B60F0919C6009958FEF0B
:1024520083B9FF91EF91BF91AF919F918F917F913E
:102462006F915F914F913F912F910F900FBE0F90FF
:042472001F9018950A
:102476001F920F920FB60F9211242F933F934F93F3
:102486005F936F937F938F939F93AF93BF93EF93D6
:10249600FF937D9B05C0E0919960F0919A60099544
:1024A6007C9B05C0E0919760F091986009958FEF4D
:1024B6008FB9FF91EF91BF91AF919F918F917F91CE
:1024C6006F915F914F913F912F910F900FBE0F909B
:0424D6001F901895A6
:1024DA001F920F920FB60F9211242F933F934F938F
:1024EA005F936F937F938F939F93AF93BF93EF9372
:1024FA00FF93BE9B05C0E0919560F09196600995A7
:10250A00BD9B05C0E0919360F091946009958FEFAF
:10251A0087BBFF91EF91BF91AF919F918F917F916F
:10252A006F915F914F913F912F910F900FBE0F9036
:04253A001F90189541
:10253E000F931F93CF93DF938C010F5F1F4FFC01FF
:10254E008081FB0124853585232B11F0EB0109C019
:10255E008FEF9FEF17C00995892BD1F7F801819165
:10256E008F01EC85FD85BE018111F5CF8AE00995BD
:10257E0021E030E0892B11F420E030E08827992704
:0E258E00821B930BDF91CF911F910F91089547
:10259C00CF92DF92EF92FF920F931F93CF93DF9323
:1025AC006C017B018A010E941816811115C0C8E2CA
:1025BC00D0E681E08883C982DA821B86EB82FC82BA
:1025CC000D831E831F82188619861A861C860E940C
:1025DC005A168D8781E001C080E0DF91CF911F9169
:0C25EC000F91FF90EF90DF90CF900895CA
:1025F800E0E0F8E08BE890E080879187158280EC36
:10260800868383E08783138614861686158686E27A
:1026180097E18093A9609093AA6087E297E18093FD
:10262800A7609093A86088E297E18093A560909353
:10263800A6601092AB601092AC60E091AD60F09132
:0C264800AE6088E190E6808391830895E5
:102654001F920F920FB60F9211242F933F934F9313
:102664005F936F937F938F939F93AF93BF93EF93F6
:10267400FF93E0919F60F091A060309709F0099575
:1026840081E080935301FF91EF91BF91AF919F91AE
:102694008F917F916F915F914F913F912F910F9007
:0826A4000FBE0F901F90189566
:1026AC000F931F93CF93DF9300D0CDB7DEB79B0171
:1026BC0099838A83042F10E042E050E0BE016F5FE3
:1026CC007F4F8AE390E00E949E11811103C007C0E6
:1026DC000E94F90F0E9418168111FACF81E00F9019
:0C26EC000F90DF91CF911F910F91089586
:1026F8000F931F93CF93DF9300D0CDB7DEB7CE01F2
:1027080001960E94DD16882381F089819A8180FFD5
:1027180008C0092F0695069510E081E0082701708A
:1027280001C000E0802F817001C080E00F900F9001
:0A273800DF91CF911F910F910895DA
:10274200990F0008550FAA0BE0E8FEEF16161706C0
:10275200E807F907C0F012161306E407F50798F028
:10276200621B730B840B950B39F40A2661F0232B41
:10277200242B252B21F408950A2609F4A140A695BD
:082782008FEF811D811D0895F8
:10278A00E0E0F9E0848183608483A8E2B0E61C92E9
:10279A008FEF90E011968D939C93129713961D924A
:1027AA001C92149717961D921C9218971D961C92AC
:1027BA008581806C858383818F7383838581816022
:0627CA00858380E0089504
:1027D00080912D6090912E60892B91F0E8E2F0E6D7
:1027E00085819681019785839683A381B481CD01EC
:1027F0000196838394838C918093080983E00895E4
:1028000080913360882321F01092336081E0089535
:062810000E94C5130895AB
:102816000F931F93CF93DF9300D0CDB7DEB78B0115
:1028260042E0BE016F5F7F4F0E945613882359F026
:10283600898190E0982F88272A81822BF80180834E
:10284600918381E001C080E00F900F90DF91CF91DE
:062856001F910F9108958F
:10285C00CF93DF9300D000D0CDB7DEB799838A83B6
:10286C007B836C8344E050E0BE016F5F7F4F8AE353
:10287C0090E00E94CE12811103C007C00E94F90F94
:10288C000E9418168111FACF81E02496CDBFDEBFCD
:06289C00DF91CF910895C9
:1028A20057FD9058440F551F59F05F3F71F04795FF
:1028B200880F97FB991F61F09F3F79F087950895E4
:1028C200121613061406551FF2CF4695F1DF08C003
:1028D200161617061806991FF1CF86957105610520
:0428E20008940895B9
:1028E600CF93DF93EC0190E0E92FF0E0EE0FFF1FAE
:1028F600EE5FFF498081811102C081810EC0A881EF
:10290600B9812C91821305C091811196A883B98350
:1029160001C09F5F9B3040F3892FDF91CF910895CF
:10292600FA0160387105CCF0623871051CF0633825
:10293600710599F4A081B1819D012C5F3F4F2083E1
:1029460031834D915D916D917C91FC014083518362
:102956006283738381E090E0089580E090E00895BB
:10296600A0E0B0E0E9EBF4E10C940F156C01EB018B
:102976008A017B01E40EF51ECE15DF0541F0899133
:10298600B601082E000C990B0E94B00FF5CFC801B6
:0A299600CDB7DEB7E8E00C94701531
:1029A000E0E4F1E081818111FDCFE0E4F1E08FEF1F
:1029B00090E084879587108611868FE190E082876A
:1029C0009387178281E0828389E3808381898111E3
:0829D000FDCF109252010895A1
:1029D800E0E0F9E0108212828EE0868381E0838352
:1029E8001582178214821086848188608483858189
:1029F800816085838FE197E18093916090939260E5
:022A080008952F
:102A0A002F923F924F925F926F927F928F929F92F4
:102A1A00AF92BF92CF92DF92EF92FF920F931F93E2
:102A2A00CF93DF93CDB7DEB7CA1BDB0BCDBFDEBFBB
:022A3A000994FD
:102A3C00A0E0B0E0E4E2F5E10C941515AE014B5FBB
:102A4C005F4FFA0161917191AF01E091AD60F0912E
:102A5C00AE60808191810E943615E2E00C9476156F
:102A6C00A2E0B0E0ECE3F5E10C9413158C01498382
:102A7C005A83AE014F5F5F4F0E94A400F801208182
:102A8C0024FF02C08FEF9FEF2296E4E00C947415A4
:102A9C00262FAF93BF93E0E0F0E1328131FDFDCF03
:102AAC003DE934BF33E13083DC01A050BC4E2C93A4
:102ABC003DE934BF20E020830196BF91AF9108958A
:102ACC002A88398848885F846E847D848C849B84B2
:102ADC00AA84B984C884DF80EE80FD800C811B81C0
:102AEC00AA81B981CE0FD11DCDBFDEBFED010895F6
:102AFC000E94E0150E94D7168AE391E80E94751691
:102B0C0086B386FB882780F90E94AB150E94F210D1
:0E2B1C000E940C178823D1F30E94B40EF7CF4D
:102B2A00CF93811105C00E944909C82F811108C09D
:102B3A000E943E04C82F882331F00E944A0A03C02B
:0C2B4A0081E08093B4608C2FCF9108953F
:102B5600CF93882329F081E00E949515C82F04C0E1
:102B660080E00E949515C82F0E940F17C11103C05F
:0A2B760084E08093B260CF910895CF
:102B8000092E0394000C11F4882352F0BB0F40F47B
:102B9000BF2B11F460FF04C06F5F7F4F8F4F9F4FBB
:022BA000089596
:102BA200E0E0F9E083818E7F838383818160838388
:0E2BB2008581816085831092286080E00895FF
:102BC0000E94C60B0E94620F0E94EC140E94D01457
:0E2BD0000E94EF150E94FC120E940B16089541
:102BDE0041E068ED80E590E00E94FD1640E068ED72
:0C2BEE0081E590E00E94FD1680E0089553
:102BFA00FC01AF014F5F5F4F2081222311F0FA01E0
:0C2C0A00F8CF9F01281B390BC901089569
:102C160040E068ED80E191E00E94FD16E0E1F1E020
:0A2C260012821382789480E0089572
:102C300080912860811105C080910509809581707F
:082C400001C081E081700895DC
:102C4800CF93C82F0E94D1168823E1F3C0930208BE
:082C580080E090E0CF910895A7
:102C60000024A7FD00942A17300540055005600593
:082C7000700580059005089530
:102C7800EC010E942A170E942917CE010E942B17E7
:062C8800CE010E941D17A1
:102C8E008091296090912A60880F81608093070956
:042C9E0084E0089531
:102CA20010922860E0E0F9E085818160858388E008
:022CB200089583
:102CB4008091296090912A60880F8093070983E0AE
:022CC400089571
:102CC6006091556070915660809157609091586000
:022CD60008955F
:102CD8006091596070915A6080915B6090915C60DE
:022CE80008954D
:102CEA00E091AD60F091AE60608171810E949F12A7
:022CFA0008953B
:102CFC00FC01480F591FE417F50711F06193FBCF46
:022D0C00089528
:102D0E00E0E0F9E08581806C85830E94D1150895FD
:102D1E009C01215431092A31310508F4806208954D
:102D2E00242F0E944F15252F0E944F150C94F81634
:102D3E0003D0808199270895FC01E050FC4E089540
:0E2D4E0062E078E081E090E30E942E14089588
:0E2D5C005058BB27AA270E948A0D0C94C01560
:0E2D6A0000240A941616170618060906089586
:0E2D780000240A941216130614060506089588
:0E2D8600E894BB2766277727CB0197F90895BD
:0E2D94000E94A316608171818281938108954F
:0C2DA2008091040885FB882780F90895C3
:0C2DAE00E0E0F8E08681806C86830895E8
:0C2DBA00BC018FEF9FE30E940B140895F2
:0C2DC60097F99F6780E870E060E00895D6
:0A2DD2008F938FEF8BB98F91189546
:0A2DDC000E94A11308F48FEF089580
:0A2DE6000E94A316808191810895D8
:0A2DF0000E944E15272F0C944F157A
:082DFA00FC0164BF4083089551
:082E02000E94450C0C94C01560
:082E0A000E94200D0C94C0157C
:062E12000E94C5130895A3
:062E18008091B1600895F5
:062E1E008091B4600895EC
:062E24009FEF80EC089511
:062E2A0080E090E0089535
:062E300080E090E008952F
:042E36000C940000F8
:042E3A000E94920060
:022E3E000895F5
:022E40000895F3
:022E42000895F1
:022E44000895EF
:022E46000895ED
:022E48000895EB
:022E4A000895E9
:022E4C000895E7
:022E4E000895E5
:022E50000895E3
:022E52000895E1
:022E54000895DF
:022E56000895DD
:102E580068076C094C836A9074A07AC000806888FF
:062E680000846C82008171
:102E6E000300000000000000000000002416000017
:072E7E00286E756C6C290041
:062E8500286E696C2900B3
:042E8B000000C8413A
:042E8F000000C84136
:022E9300AF602E
:02000004008278
:090000000000000000D00800001F
:00000001FF
