:100000000C945D000C946E100C946E100C946E1099
:100010000C946E100C94630B0C94690D0C946E1080
:100020000C94480C0C946E100C946E100C946E1082
:100030000C946E100C946E100C946E100C946E1048
:100040000C946E100C946E100C946E100C946E1038
:100050000C946E100C946E100C946E100C946E1028
:100060000C947A0C0C946E100C946E100C946E1010
:100070000C946E100C943F100C946E100C946E1037
:100080000C946E100C946E100C94AC0C0C946E10BE
:100090006000600280600260120020FE6012603228
:1000A000806032603A00210E603A608A80608A6027
:1000B0008C002116608C60928000809101108F7CF2
:1000C000806080688093011011241FBECFEFCDBFE8
:1000D000DFE7DEBFE0E9F0E040E017C0B591A591B1
:1000E00035912591059107FD0CC095918591EF0102
:1000F000F92FE82F05900D92A217B307D9F7FE014B
:1001000004C01D92A217B307E1F7E93BF40731F7EA
:0C0110000E94FF0E0C94A30FF894FFCF88
:10011C00B80FAE0FC10F270E280B5F10E50F040EA2
:02012C00520F70
:0D012E0048656C6C6F20576F726C640D009B
:10013C00CF92DF92EF92FF921F93CF93DF93CDB7C5
:10014C00DEB76897CDBFDEBF8CE290E60E94D90B7C
:10015C00182F882309F41AC240E1BE016F5F7F4F4C
:10016C008CE094E20E94950D882309F40AC22B813D
:10017C006C81862F90E0A0E0B0E0DC019927882705
:10018C00B22B2A81AC01BD01422B898190E0982FC2
:10019C008827A0E0B0E06A017B01C82AD92AEA2AA4
:1001AC00FB2AC701B6010E94ED0A20E030E040E8CE
:1001BC005BE30E945B1060936A6070936B6080934A
:1001CC006C6090936D602F816885862F90E0A0E025
:1001DC00B0E0DC0199278827B22B2E81AC01BD0140
:1001EC00422B8D8190E0982F8827A0E0B0E06A0127
:1001FC007B01C82AD92AEA2AFB2AC701B6010E9428
:10020C00ED0A20E030E040E855E30E945B1060937B
:10021C0066607093676080936860909369602B85CB
:10022C006C85862F90E0A0E0B0E0DC019927882750
:10023C00B22B2A85AC01BD01422B898590E0982F09
:10024C008827A0E0B0E06A017B01C82AD92AEA2AF3
:10025C00FB2AC701B6010E94ED0A20E030E040E81D
:10026C0059E20E945B1060936260709363608093AC
:10027C006460909365602F856889862F90E0A0E07C
:10028C00B0E0DC0199278827B22B2E85AC01BD018B
:10029C00422B8D8590E0982F8827A0E0B0E06A0172
:1002AC007B01C82AD92AEA2AFB2AC701B6010E9477
:1002BC00ED0A20E030E040E85BE30E945B106093C5
:1002CC005E6070935F60809360609093616048E1C2
:1002DC00BE016F5F7F4F84E294E20E94950D8823EC
:1002EC0009F451C12B816C81862F90E0A0E0B0E025
:1002FC00DC0199278827B22B2A81AC01BD01422B46
:10030C00898190E0982F8827A0E0B0E06A017B01FA
:10031C00C82AD92AEA2AFB2AC701B6010E94ED0A8B
:10032C0020E030E040E857E30E945B1060935A6095
:10033C0070935B6080935C6090935D602F816885A7
:10034C00862F90E0A0E0B0E0DC0199278827B22B43
:10035C002E81AC01BD01422B8D8190E0982F882716
:10036C00A0E0B0E06A017B01C82AD92AEA2AFB2A5C
:10037C00C701B6010E94ED0A20E030E040E85BE3E3
:10038C000E945B1060935660709357608093586026
:10039C00909359602B856C85862F90E0A0E0B0E09F
:1003AC00DC0199278827B22B2A85AC01BD01422B91
:1003BC00898590E0982F8827A0E0B0E06A017B0146
:1003CC00C82AD92AEA2AFB2AC701B6010E94ED0ADB
:1003DC0020E030E040E858E20E945B1060935260ED
:1003EC007093536080935460909355602F85688907
:1003FC00862F90E0A0E0B0E0DC0199278827B22B93
:10040C002E85AC01BD01422B8D8590E0982F88275D
:10041C00A0E0B0E06A017B01C82AD92AEA2AFB2AAB
:10042C00C701B6010E94ED0A20E030E040E85DE231
:10043C000E945B1060934E6070934F60809350608D
:10044C00909351602B896C89862F90E0A0E0B0E0EE
:10045C00DC0199278827B22B2A89AC01BD01422BDC
:10046C00898990E0982F8827A0E0B0E06A017B0191
:10047C00C82AD92AEA2AFB2AC701B6010E94ED0A2A
:10048C0020E030E040E85DE20E945B1060934A603F
:10049C0070934B6080934C6090934D606D8970E0CD
:1004AC00762F66278E89682B072E000C880B990BEC
:1004BC000E94ED0A20E030E040E85AE30E945B1015
:1004CC006093466070934760809348609093496056
:1004DC006F8970E0762F6627888D682B072E000CAD
:1004EC00880B990B0E94ED0A20E030E040E85AE3BB
:1004FC000E945B10609342607093436080934460F1
:10050C009093456044E0BE016F5F7F4F81E894E2B9
:10051C000E94950D8823C9F1698170E0762F6627BA
:10052C008A81682B072E000C880B990B0E94ED0A10
:10053C0020E030E040E858E30E945B1060933E609E
:10054C0070933F6080934060909341606B8170E04A
:10055C00762F66278C81682B072E000C880B990B45
:10056C000E94ED0A20E030E040E85AE30E945B1064
:10057C0060933A6070933B6080933C6090933D60D5
:10058C0005C010E003C010E001C010E0812F689698
:10059C00CDBFDEBFDF91CF911F91FF90EF90DF9029
:0405AC00CF9008954F
:1005B0004F925F926F927F928F929F92AF92BF9273
:1005C000CF92DF92EF92FF92CF93DF93CDB7DEB75A
:1005D0006197CDBFDEBF80919060823029F080911D
:1005E0009060813009F08DC160912A6070912B601C
:1005F000072E000C880B990B0E94ED0A4B015C0141
:100600006091246070912560072E000C880B990B77
:100610000E94ED0A20E030E040E451E40E945710CF
:100620006B017C01209146603091476040914860A9
:10063000509149600E945B10A50194010E94051031
:100640009B01AC01C701B6010E94571020E030E0C9
:1006500040E059E40E945B1069837A838B839C831A
:10066000809190608130A9F4E0E2F0E660817181D0
:1006700082819381680F791F072E000C880B990BDC
:100680000E94ED0A20E030E040E05FE30E945B1052
:1006900014C0E0E2F0E66681778180859185680F7D
:1006A000791F072E000C880B990B0E94ED0A20E0A1
:1006B00030E040E05FE30E945B1020E030E040E487
:1006C00051E40E9457102B013C012091426030916F
:1006D00043604091446050914560C701B6010E945B
:1006E0005B10A50194010E9405109B01AC01C301A0
:1006F000B2010E94571020E030E040E059E40E942F
:100700005B106D837E838F83988720916A60309120
:100710006B6040916C6050916D6069817A818B81D2
:100720009C810E9404104B015C0120916660309115
:10073000676040916860509169600E9457102091F5
:100740005E6030915F6040916060509161600E9496
:1007500005102B013C01A5019401C501B4010E94C3
:100760005B102091626030916360409164605091B1
:1007700065600E945B109B01AC01C301B2010E9445
:1007800005102B013C0160933260709333608093BD
:1007900034609093356023E333E948E853E40E94E2
:1007A00005104B015C0120913E6030913F6040910B
:1007B00040605091416060915260709153608091AF
:1007C0005460909155600E945B1069837A838B839B
:1007D0009C8380914A6090914B60A0914C60B09155
:1007E0004D6089879A87AB87BC8720E030E048EC72
:1007F00051E4C301B2010E94041020914E60309177
:100800004F6040915060509151600E945B106D8725
:100810007E878F87988BA5019401C501B4010E9442
:100820005B10A50194010E945B10A50194010E9438
:100830005B102B013C01C0903A60D0903B60E0908F
:100840003C60F0903D6093E0B0E0A0E0F8ECE1E4C3
:10085000998B20E030E048EC51E46B2F7A2F8F2FFA
:100860009E2F0E94041029853A854B855C850E9445
:100870005B1020E030E040E85FE30E9405102D852A
:100880003E854F8558890E94051029813A814B8108
:100890005C810E945B109B01AC016D817E818F8128
:1008A00098850E9457104B015C01A3019201C5017C
:1008B000B4010E9405100E9494040E94940423E352
:1008C00033E948E853E40E940410A70196010E940E
:1008D0000410A989A150A98BB62FA72FF82FE92FB3
:1008E00029892111B6CFC62ED72EE82EF92EC09217
:1008F0003660D0923760E0923860F092396081E0E3
:1009000001C080E06196CDBFDEBFDF91CF91FF9047
:10091000EF90DF90CF90BF90AF909F908F907F909F
:080920006F905F904F90089565
:100928004F925F926F927F928F929F92AF92BF92F7
:10093800CF92DF92EF92FF920F931F936B017C018E
:10094800DC01CB01B701A6014427552760787F77E2
:100958004115510560487F4759F4A7019601C70121
:10096800B6010E945B10A70196010E9405101AC0EB
:10097800181619061A061B06D4F0892B8A2B8B2BFE
:1009880009F4CCC081E290E080930060909301600C
:10099800A7019601C701B6010E9404109B01AC0192
:1009A8000E945710562F472F382F292FBBC067E1B9
:1009B800F594E794D794C7946A95D1F7C114D104F4
:1009C800E104F104E1F4C12CD12C7601A7FD0AC0A1
:1009D800880F991FAA1FBB1F2FEFC21AD20AE20A5B
:1009E800F20AF4CF21E0C21AD108E108F108F09424
:1009F800E094D094C094C11CD11CE11CF11C2FE7D9
:100A0800C21AD108E108F108AF77BB27A068C0FE79
:100A180004C0880F991FAA1FBB1FF594E794D794A9
:100A2800C794880F991FAA1FBB1FE9E1F0E040E0B7
:100A380050E060E071E0812C912C540100E010E05E
:100A4800980128013901440E551E661E771E84152B
:100A58009505A605B70574F093018201040F151FCB
:100A6800261F371F84199509A609B709840E951EF4
:100A7800A61EB71E880F991FAA1FBB1F76956795DC
:100A8800579547953197E9F6892B8A2B8B2BA1F13E
:100A980020E632E442EA5DE060E070E080E89FE34F
:100AA8000E94041020E030E040E85FE30E94441018
:100AB80087FD22C020E632E442EA5DE060E070E0B3
:100AC80080E89FE30E94051020E030E040E85FE303
:100AD8000E944410181634F482E0880E911CA11C60
:100AE800B11C0AC0D501C40181709927AA27BB2768
:100AF800880E991EAA1EBB1ED501C401B595A795DF
:100B080097958795B15C37E1CC0CDD1CEE1CFF1C7A
:100B18003A95D1F7C80ED91EEA1EFB1E5C2D4D2D45
:100B28003E2D2F2D652F742F832F922F1F910F91FC
:100B3800FF90EF90DF90CF90BF90AF909F908F90F5
:0A0B48007F906F905F904F9008952A
:100B52008F929F92AF92BF92CF92DF92EF92FF92CB
:100B62001F93CF93DF9300D0CDB7DEB78CE290E630
:100B72000E94D90B182F882309F4DCC080E090E092
:100B82000E9449106C0182E090E00E9449105C01D1
:100B920084E090E00E9449104C017601EA24FB2493
:100BA200E826F9268AE390E00E94491089839A8315
:100BB20089819A81E816F90609F0B5C080912C6006
:100BC20090912D60C816D90609F0AFC080912E60B1
:100BD20090912F60A816B90609F0A9C080913060E3
:100BE200909131608816990609F0A3C086E090E0E2
:100BF2000E94201060936A6070936B6080936C60B7
:100C020090936D608AE090E00E942010609366608D
:100C12007093676080936860909369608EE090E063
:100C22000E9420106093626070936360809364609E
:100C32009093656082E190E00E94201060935E6074
:100C420070935F60809360609093616086E190E052
:100C52000E94201060935A6070935B6080935C6086
:100C620090935D608AE190E00E942010609356604C
:100C72007093576080935860909359608EE190E032
:100C82000E9420106093526070935360809354606E
:100C92009093556082E290E00E94201060934E6033
:100CA20070934F60809350609093516086E290E021
:100CB2000E94201060934A6070934B6080934C6056
:100CC20090934D608AE290E00E942010609346600B
:100CD2007093476080934860909349608EE290E001
:100CE2000E9420106093426070934360809344603E
:100CF2009093456082E390E00E94201060933E60F2
:100D020070933F60809340609093416086E390E0EF
:100D12000E94201060933A6070933B6080933C6025
:100D220090933D6007C010E005C010E003C010E0E2
:100D320001C010E0812F0F900F90DF91CF911F9192
:100D4200FF90EF90DF90CF90BF90AF909F908F90E9
:020D5200089502
:100D5400CF93DF93CCE2D0E66881798180E090E0A4
:100D64000E944E106A817B8182E090E00E944E10C6
:100D74006C817D8184E090E00E944E1040916A6015
:100D840050916B6060916C6070916D6086E090E052
:100D94000E94ED0F409166605091676060916860B9
:100DA400709169608AE090E00E94ED0F409162606A
:100DB4005091636060916460709165608EE090E032
:100DC4000E94ED0F40915E6050915F6060916060A1
:100DD4007091616082E190E00E94ED0F40915A6051
:100DE40050915B6060915C6070915D6086E190E021
:100DF4000E94ED0F40915660509157606091586089
:100E0400709159608AE190E00E94ED0F4091526028
:100E14005091536060915460709155608EE190E000
:100E24000E94ED0F40914E6050914F606091506070
:100E34007091516082E290E00E94ED0F40914A600F
:100E440050914B6060914C6070914D6086E290E0EF
:100E54000E94ED0F40914660509147606091486058
:100E6400709149608AE290E00E94ED0F40914260E7
:100E74005091436060914460709145608EE290E0CF
:100E84000E94ED0F40913E6050913F606091406040
:100E94007091416082E390E00E94ED0F40913A60CE
:100EA40050913B6060913C6070913D6086E390E0BE
:100EB4000E94ED0F688179818A819B816827792757
:100EC4008C819D81682779278AE390E00E944E10E7
:060ED400DF91CF910895AB
:100EDA00CF93DF9380E094E02CE0FC012083C0E410
:100EEA00D4E01882A0E6B4E020E12C9340EA54E072
:100EFA0020E2FA012083FC0114821C8214961C92BF
:100F0A001497FA011482FC01108A118A128A138A30
:100F1A00148A158A168A178A188A198A1A8A1B8ABB
:100F2A001C8A1D8A1E8A1F8A50961C9250975196B7
:100F3A001C92519752961C92529753961C92539711
:100F4A0054961C92549755961C92559756961C92F5
:100F5A00569757961C92FA01108A118A128A138A96
:100F6A00148A158A88E8868B178AE0EEF5E01182E2
:100F7A0010821582178210861186168283E0828378
:100F8A0083E790E180937A6090937B6084E790E1B5
:100F9A00809378609093796085E790E1809376609A
:100FAA009093776086E790E1809374609093756080
:100FBA0087E790E1809372609093736088E790E18D
:0E0FCA008093706090937160DF91CF910895D5
:100FD80010C00E94121058F00E940B1040F029F423
:100FE8005F3F29F00C94391051110C941A100C948D
:100FF8006B100E94900E68F39923B1F3552391F377
:10100800951B550BBB27AA2762177307840738F06F
:101018009F5F5F4F220F331F441FAA1FA9F335D0CC
:101028000E2E3AF0E0E832D091505040E695001C80
:10103800CAF72BD0FE2F29D0660F771F881FBB1F3A
:10104800261737074807AB07B0E809F0BB0B802D18
:10105800BF01FF2793585F4F3AF09E3F510578F044
:101068000C9439100C941A105F3FE4F3983ED4F3B3
:10107800869577956795B795F7959F5FC9F7880F18
:10108800911D9695879597F90895E1E0660F771F6A
:10109800881FBB1F621773078407BA0720F0621BFB
:0E10A800730B840BBA0BEE1F88F7E0950895CA
:1010B6000FC00E940B1038F00E94121020F09523EA
:1010C60011F00C9439100C946B1011240C941A1016
:1010D6000E94900E70F3959FC1F3950F50E0551F37
:1010E600629FF001729FBB27F00DB11D639FAA2777
:1010F600F00DB11DAA1F649F6627B00DA11D661FC6
:10110600829F2227B00DA11D621F739FB00DA11DE6
:10111600621F839FA00D611D221F749F3327A00DA0
:10112600611D231F849F600D211D822F762F6A2F3C
:1011360011249F5750409AF0F1F088234AF0EE0FA1
:10114600FF1FBB1F661F771F881F91505040A9F7CE
:101156009E3F510580F00C9439100C941A105F3F95
:10116600E4F3983ED4F3869577956795B795F7950A
:10117600E7959F5FC1F7FE2B880F911D9695879582
:0411860097F9089538
:10118A008F929F92AF92BF92CF92DF92EF92FF928D
:10119A001F93CF93DF93CDB7DEB72A97CDBFDEBFBC
:1011AA0010928E600E94CA0F6B017C010E94D30FBD
:1011BA004B015C0126E636E646EE5FE3C701B6015F
:1011CA000E945B106B017C0126E636E646EE5FE381
:1011DA00C501B4010E945B102AEA298320E030E0AD
:1011EA0040E052E40E9405106A837B838C839D83CE
:1011FA0020E030E040E052E4C701B6010E94051049
:10120A006E837F838887998785E58A87CE010196D1
:10121A007C0110E00E942710882349F0F701819190
:10122A007F010E9462101F5F1A30A1F702C01A30B4
:10123A0088F32A96CDBFDEBFDF91CF911F91FF9031
:10124A00EF90DF90CF90BF90AF909F908F900895CE
:10125A0011C00E940B1038F00E94121020F039F4CD
:10126A009F3F19F426F40C946B100EF4E095E7FBFB
:10127A000C943910E92F0E94900E58F3BA1762079E
:10128A0073078407950720F079F4A6F50C941910D2
:10129A000EF4E0950B2EBA2FA02D0B01B901900187
:1012AA000C01CA01A0011124FF27591B99F0593FCB
:1012BA0050F4503E68F11A16F040A22F232F342F13
:1012CA004427585FF3CF469537952795A795F04061
:1012DA005395C9F77EF41F16BA0B620B730B840B76
:1012EA00BAF09150A1F0FF0FBB1F661F771F881F2E
:1012FA00C2F70EC0BA0F621F731F841F48F4879586
:10130A0077956795B795F7959E3F08F0B0CF939577
:0E131A00880F08F09927EE0F97958795089594
:10132800CF93DF93CDB7DEB72E97CDBFDEBF42E0B8
:10133800BE016F5F7F4F8FEF9FE30E94950D88235B
:1013480009F447C08A818C7790E0959587959595A3
:101358008795809390604CE0BE016D5F7F4F83E07E
:1013680090E40E94950D8823B1F1E0E2F0E68B81CC
:1013780090E0982F88272C81822B808391838D8100
:1013880090E0982F88272E81822B828393838F81E8
:1013980090E0982F88272885822B848395838985D8
:1013A80090E0982F88272A85822B868397838B85C0
:1013B80090E0982F88272C85822B808791878D85B0
:1013C80090E0982F88272E85822B8287938781E04B
:1013D80003C080E001C080E02E96CDBFDEBFDF9164
:0413E800CF91089504
:1013EC00CF93DF938091050982FF0CC0E2E1F0E618
:1013FC0086E0858783E08487E0E0F9E0858184607E
:10140C00858337C080910709882381F08091050975
:10141C0084FF0CC0E2E1F0E685E0858781E08487FB
:10142C00E0E0F9E085818061858323C08091080923
:10143C00882381F08091050984FF0CC0E2E1F0E67D
:10144C0085E0858782E08487E0E0F9E08581806132
:10145C0085830FC08091050983FF0BC0E2E1F0E6A4
:10146C0086E0858783E08487E0E0F9E08581886009
:10147C008583C2E1D0E6ED85F0E0EE0FFF1FE45E60
:10148C00FE470190F081E02D09958D878C8588238E
:10149C0029F0E0916E60F0916F600995DF91CF912A
:0214AC000895A1
:1014AE0040E068ED80E690E00E94531040E068ED69
:1014BE0081E690E00E94531040E068ED85E690E0F2
:1014CE000E94531040E068ED88E790E00E945310B0
:1014DE004CE068ED88E690E00E94531040E068ED25
:1014EE0089E690E00E94531040E068ED80E790E0BE
:1014FE000E94531040E068ED8CE790E00E9453107C
:10150E0040E068ED82E690E00E94531040E068ED06
:10151E0083E690E00E94531040E068ED84E690E090
:10152E000E94531040E068ED80E890E00E94531056
:0C153E00E0E6F0E0858181FFFDCF08951C
:10154A00CF93DF930E948B0F8823E9F180910509DD
:10155A0084FF0CC08091050986FF08C080910509A7
:10156A0082FD04C08091050983FF07C080910509A7
:10157A0082FD03C08091050983FD0E94F6098091CE
:10158A000509882324F08091050986FF1CC08091F3
:10159A00050984FD08C08091050982FD04C0809177
:1015AA00050983FF03C00E94F6090DC0C2E1D0E617
:1015BA00ED85F0E0EE0FFF1FE45EFE470190F0813B
:0C15CA00E02D09958D87DF91CF910895E9
:1015D600E89409C097FB3EF49095809570956195C7
:1015E6007F4F8F4F9F4F9923A9F0F92F96E9BB277D
:1015F6009395F695879577956795B795F111F8CFF9
:10160600FAF4BB0F11F460FF1BC06F5F7F4F8F4F63
:101616009F4F16C0882311F096E911C0772321F059
:101626009EE8872F762F05C0662371F096E8862FF1
:1016360070E060E02AF09A95660F771F881FDAF748
:0A164600880F9695879597F908958F
:1016500080911B6090911C60019731F4E0E0F9E00B
:1016600084818460848305C0E0E0F9E084818B7F1D
:101670008483E2E1F0E681859285019781879287F4
:10168000892B79F0A781B085CD010196878390875A
:10169000E0E0F9E080858C9384818260848384E03B
:1016A0000895E2E1F0E6A781B085CD010196878338
:1016B0009087E0E0F9E080858C9384818460848366
:0616C0000E94040E0895D3
:1016C6001F920F920FB60F9211242F933F934F93B1
:1016D6005F936F937F938F939F93AF93BF93EF9394
:1016E600FF938091430180FF07C0E0918060F091F5
:1016F6008160309709F009958091430181FF07C009
:10170600E0917E60F0917F60309709F0099583E063
:1017160080934301FF91EF91BF91AF919F918F917C
:101726007F916F915F914F913F912F910F900FBED7
:061736000F901F901895B2
:10173C0080918F60813091F028F08230F9F0833005
:10174C0089F12DC00E94FD0F811104C084E08093AB
:10175C008F60089581E080938F6008950E94BB0D87
:10176C00882301F10E949409811104C084E08093C4
:10177C008F60089582E080938F60089580E280935B
:10178C00A7040E94D802882331F081E080938E60F8
:10179C0010928F60089584E080938F60089583E0A9
:0617AC0080938F60089598
:1017B2000F931F93CF93DF93CDB7DEB72697CDBF9D
:1017C200DEBF8C0146E0BE016F5F7F4F85E094E291
:1017D2000E94950D8823D9F0898190E0982F88275F
:1017E2002A81822BF801808391838B8190E0982F4C
:1017F20088272C81822B828393838D8190E0982F7E
:1018020088272E81822B8483958381E001C080E02A
:101812002696CDBFDEBFDF91CF911F910F91089524
:101822008F929F92AF92BF92CF92DF92EF92FF92EE
:101832000F931F93CF93DF935C016B017A014901F0
:101842000E948B0F811115C0C2E1D0E681E088832E
:10185200A982BA828B87CB82DC82ED82FE828F8262
:10186200988609871A871C860E94C10F8D8781E09E
:1018720001C080E0DF91CF911F910F91FF90EF9017
:0E188200DF90CF90BF90AF909F908F90089511
:101890001F920F920FB60F9211242F933F934F93E5
:1018A0005F936F937F938F939F93AF93BF93EF93C8
:1018B000FF931B9B05C0E0917A60F0917B600995D6
:1018C0001A9B05C0E0917860F091796009958FEFDF
:1018D00083B9FF91EF91BF91AF919F918F917F91CC
:1018E0006F915F914F913F912F910F900FBE0F908D
:0418F0001F90189598
:1018F4001F920F920FB60F9211242F933F934F9381
:101904005F936F937F938F939F93AF93BF93EF9363
:10191400FF937D9B05C0E0917660F0917760099517
:101924007C9B05C0E0917460F091756009958FEF20
:101934008FB9FF91EF91BF91AF919F918F917F915B
:101944006F915F914F913F912F910F900FBE0F9028
:041954001F90189533
:101958001F920F920FB60F9211242F933F934F931C
:101968005F936F937F938F939F93AF93BF93EF93FF
:10197800FF93BE9B05C0E0917260F091736009957A
:10198800BD9B05C0E0917060F091716009958FEF83
:1019980087BBFF91EF91BF91AF919F918F917F91FD
:1019A8006F915F914F913F912F910F900FBE0F90C4
:0419B8001F901895CF
:1019BC000F931F93CF93DF938C010F5F1F4FFC018D
:1019CC008081FB0124853585232B11F0EB0109C0A7
:1019DC008FEF9FEF17C00995892BD1F7F8018191F3
:1019EC008F01EC85FD85BE018111F5CF8AE009954B
:1019FC0021E030E0892B11F420E030E08827992792
:0E1A0C00821B930BDF91CF911F910F910895D4
:101A1A00CF92DF92EF92FF920F931F93CF93DF93B0
:101A2A006C017B018A010E948B0F811115C0C2E1F2
:101A3A00D0E681E08883C982DA821B86EB82FC8247
:101A4A000D831E831F82188619861A861C860E9499
:101A5A00C10F8D8781E001C080E0DF91CF911F9196
:0C1A6A000F91FF90EF90DF90CF90089557
:101A7600E0E0F8E08BE890E080879187158280ECC3
:101A8600868383E08783138614861686158689E700
:101A960090E180938660909387608AE790E18093D7
:101AA6008460909385608BE790E180938260909349
:101AB60083601092886010928960E0918A60F0914C
:0C1AC6008B6082E090E68083918308959D
:101AD2001F920F920FB60F9211242F933F934F93A1
:101AE2005F936F937F938F939F93AF93BF93EF9384
:101AF200FF93E0917C60F0917D60309709F0099549
:101B020081E080935301FF91EF91BF91AF919F913B
:101B12008F917F916F915F914F913F912F910F9094
:081B22000FBE0F901F901895F3
:101B2A000F931F93CF93DF9300D0CDB7DEB79B01FE
:101B3A0099838A83042F10E042E050E0BE016F5F70
:101B4A007F4F8AE390E00E94110C811103C007C005
:101B5A000E94A50A0E948B0F8111FACF81E00F9093
:0C1B6A000F90DF91CF911F910F91089513
:101B76000F931F93CF93DF9300D0CDB7DEB7CE017F
:101B860001960E943310882381F089819A8180FF13
:101B960008C0092F0695069510E081E00827017018
:101BA60001C000E0802F817001C080E00F900F908F
:0A1BB600DF91CF911F910F91089568
:101BC000990F0008550FAA0BE0E8FEEF161617064E
:101BD000E807F907C0F012161306E407F50798F0B6
:101BE000621B730B840B950B39F40A2661F0232BCF
:101BF000242B252B21F408950A2609F4A140A6954B
:081C00008FEF811D811D089585
:101C0800E0E0F9E0848183608483A2E1B0E61C927D
:101C18008FEF90E011968D939C93129713961D92D7
:101C28001C92149717961D921C9218971D961C9239
:101C38008581806C858383818F73838385818160AF
:061C4800858380E0089591
:101C4E008091176090911860892B91F0E2E1F0E697
:101C5E0085819681019785839683A381B481CD0179
:101C6E000196838394838C918093080983E0089571
:101C7E0080911D60882321F010921D6081E00895EF
:061C8E000E94040E0895FF
:101C94000F931F93CF93DF9300D0CDB7DEB78B01A3
:101CA40042E0BE016F5F7F4F0E94950D882359F07B
:101CB400898190E0982F88272A81822BF8018083DC
:101CC400918381E001C080E00F900F90DF91CF916C
:061CD4001F910F9108951D
:101CDA00CF93DF9300D000D0CDB7DEB799838A8344
:101CEA007B836C8344E050E0BE016F5F7F4F8AE3E1
:101CFA0090E00E940D0D811103C007C00E94A50A41
:101D0A000E948B0F8111FACF81E02496CDBFDEBFEE
:061D1A00DF91CF91089556
:101D200057FD9058440F551F59F05F3F71F047958C
:101D3000880F97FB991F61F09F3F79F08795089571
:101D4000121613061406551FF2CF4695F1DF08C090
:101D5000161617061806991FF1CF869571056105AD
:041D60000894089546
:101D6400E0E4F1E081818111FDCFE0E4F1E08FEF67
:101D740090E084879587108611868FE190E08287B2
:101D84009387178281E0828389E38083818981112B
:081D9400FDCF109252010895E9
:101D9C00E0E0F9E0108212828EE0868381E083839A
:101DAC0015821782148210868481886084838581D1
:101DBC008160858382E790E180936E6090936F6081
:021DCC00089578
:101DCE00262FAF93BF93E0E0F0E1328131FDFDCFDE
:101DDE003DE934BF33E13083DC01A050BC4E2C937F
:101DEE003DE934BF20E020830196BF91AF91089565
:101DFE000E94610F0E942D108EE291E80E94DC0F6E
:101E0E0086B386FB882780F90E942C0F0E949E0BBA
:0E1E1E000E9465108823D1F30E94C508F7CFFB
:101E2C00CF93811105C00E94A905C82F811108C04C
:101E3C000E949E00C82F882331F00E94AA0603C07E
:0C1E4C0081E0809391608C2FCF9108956D
:101E5800CF93882329F081E00E94160FC82F04C071
:101E680080E00E94160FC82F0E946810C11103C09D
:0A1E780084E080938F60CF910895FD
:101E8200092E0394000C11F4882352F0BB0F40F486
:101E9200BF2B11F460FF04C06F5F7F4F8F4F9F4FC6
:021EA2000895A1
:101EA400E0E0F9E083818E7F838383818160838393
:0E1EB4008581816085831092126080E0089520
:101EC2000E946D070E94570A0E94CE0E0E94B20E17
:0E1ED2000E94700F0E943B0D0E947E0F08952B
:101EE00041E068ED80E590E00E94531040E068ED2D
:0C1EF00081E590E00E94531080E008950E
:101EFC0040E068ED80E191E00E945310E0E1F1E0F8
:0A1F0C0012821382789480E0089599
:101F160080911260811105C08091050980958170BC
:081F260001C081E08170089503
:101F2E00CF93C82F0E9427108823E1F3C093020895
:081F3E0080E090E0CF910895CE
:101F4600EC010E947D100E947C10CE010E947E1042
:061F5600CE010E94701094
:101F5C008091136090911460880F816080930709C1
:041F6C0084E0089570
:101F700010921260E0E0F9E085818160858388E05D
:021F80000895C2
:101F82008091136090911460880F8093070983E019
:021F92000895B0
:101F940060913260709133608091346090913560CB
:021FA40008959E
:101FA60060913660709137608091386090913960A9
:021FB60008958C
:101FB800E0918A60F0918B60608171810E94DE0CF3
:021FC80008957A
:101FCA00E0E0F9E08581806C85830E94520F0895D4
:101FDA00242F0E94E80E252F0E94E80E0C944E1022
:101FEA0003D0808199270895FC01E050FC4E0895A2
:0E1FFA0062E078E081E090E30E946D0E0895B1
:0E2008005058BB27AA270E942D090C94410FA7
:0E20160000240A9416161706180609060895E7
:0E20240000240A9412161306140605060895E9
:0E203200E894BB2766277727CB0197F908951E
:0E2040000E94F90F6081718182819381089561
:0C204E008091040885FB882780F9089524
:0C205A00E0E0F8E08681806C8683089549
:0C206600BC018FEF9FE30E944A0E08951A
:0C20720097F99F6780E870E060E0089537
:0A207E008F938FEF8BB98F911895A7
:0A2088000E94E00D08F48FEF0895A8
:0A2092000E94F90F808191810895EA
:0A209C000E94E70E272F0C94E80EB7
:0820A600FC0164BF40830895B2
:0820AE000E94EC070C94410FA5
:0820B6000E945B080C94410F2D
:0620BE000E94040E0895CB
:0620C4008093020808955C
:0620CA0080918E60089574
:0620D0008091916008956B
:0620D6009FEF80EC08956D
:0420DC000C94000060
:0420E0000E948C00CE
:0220E40008955D
:0220E60008955B
:0220E800089559
:0220EA00089557
:0220EC00089555
:0220EE00089553
:0220F000089551
:0220F20008954F
:0220F40008954D
:0220F60008954B
:0220F800089549
:0220FA00089547
:0220FC00089545
:1020FE00030000000000000000000000970F000029
:04210E000000C841C4
:042112000000C841C0
:022116008C60DB
:02000004008278
:090000000000000000D00800001F
:00000001FF
