:100000000C9451000C94D20D0C94D20D0C94D20D82
:100010000C94D20D0C94910A0C94D20D0C94D20D28
:100020000C94D20D0C94D20D0C94D20D0C94D20DD4
:100030000C94D20D0C94D20D0C94D20D0C94D20DC4
:100040000C94D20D0C94D20D0C94D20D0C94D20DB4
:100050000C94D20D0C94C20A0C94D20D0C94D20DB7
:100060000C94D20D0C94D20D0C94D20D0C94D20D94
:100070000C94D20D0C94D20D0C94D20D0C94D20D84
:100080000C94D20D0C94D20D0C94D20D0C94D20D74
:1000900060006115806115611D001BB2611D615D0D
:1000A0008000809101108F7C8060806880930110B7
:1000B00011241FBECFEFCDBFDFE7DEBFE0E9F0E0E8
:1000C00040E017C0B591A59135912591059107FDA7
:1000D0000CC095918591EF01F92FE82F05900D92B5
:1000E000A217B307D9F7FE0104C01D92A217B307E8
:1000F000E1F7E13AF40731F70E94960C0C94270DD2
:04010000F894FFCFA1
:10010400AF92BF92CF92DF92FF920F931F93CF9340
:10011400DF93CDB7DEB76897CDBFDEBF8FE091E642
:100124000E94E509182F81110EC0812F6896CDBF5A
:10013400DEBFDF91CF911F910F91FF90DF90CF90A1
:10014400BF90AF90089534E2F32EF0921D618CE0DD
:1001540080931E6100E19E012F5F3F4F42E06DE1FD
:1001640071E68AE30E940009882309F4E0C12B8127
:100174006C81862F90E0A0E0B0E0DC01992788270D
:10018400B22B2A81AC01BD01422B898190E0982FCA
:100194008827A0E0B0E05A016B01A82AB92ACA2A2C
:1001A400DB2AC601B5010E94240A20E030E040E8C1
:1001B4005BE30E94C50D609351617093526180931B
:1001C4005361909354612F816885862F90E0A0E05D
:1001D400B0E0DC0199278827B22B2E81AC01BD0148
:1001E400422B8D8190E0982F8827A0E0B0E05A013F
:1001F4006B01A82AB92ACA2ADB2AC601B5010E94C2
:10020400240A20E030E040E855E30E94C50D6093E5
:100214004D6170934E6180934F61909350612B8533
:100224006C85862F90E0A0E0B0E0DC019927882758
:10023400B22B2A85AC01BD01422B898590E0982F11
:100244008827A0E0B0E05A016B01A82AB92ACA2A7B
:10025400DB2AC601B5010E94240A20E030E040E810
:1002640059E20E94C50D6093496170934A6180937D
:100274004B6190934C612F856889862F90E0A0E0B4
:10028400B0E0DC0199278827B22B2E85AC01BD0193
:10029400422B8D8590E0982F8827A0E0B0E05A018A
:1002A4006B01A82AB92ACA2ADB2AC601B5010E9411
:1002B400240A20E030E040E85BE30E94C50D60932F
:1002C4004561709346618093476190934861F092D1
:1002D4001D61F0921E6108E19E012F5F3F4F42E0D5
:1002E4006DE171E68AE30E940009882309F41FC1C5
:1002F4002B816C81862F90E0A0E0B0E0DC0199278F
:100304008827B22B2A81AC01BD01422B898190E060
:10031400982F8827A0E0B0E05A016B01A82AB92AD7
:10032400CA2ADB2AC601B5010E94240A20E030E073
:1003340040E857E30E94C50D6093416170934261A8
:1003440080934361909344612F816885862F90E068
:10035400A0E0B0E0DC0199278827B22B2E81AC0104
:10036400BD01422B8D8190E0982F8827A0E0B0E05A
:100374005A016B01A82AB92ACA2ADB2AC601B50187
:100384000E94240A20E030E040E85BE30E94C50DAF
:1003940060933D6170933E6180933F6190934061AF
:1003A4002B856C85862F90E0A0E0B0E0DC019927D6
:1003B4008827B22B2A85AC01BD01422B898590E0A8
:1003C400982F8827A0E0B0E05A016B01A82AB92A27
:1003D400CA2ADB2AC601B5010E94240A20E030E0C3
:1003E40040E858E20E94C50D6093396170933A6108
:1003F40080933B6190933C612F856889862F90E0C0
:10040400A0E0B0E0DC0199278827B22B2E85AC014F
:10041400BD01422B8D8590E0982F8827A0E0B0E0A5
:100424005A016B01A82AB92ACA2ADB2AC601B501D6
:100434000E94240A20E030E040E85DE20E94C50DFD
:10044400609335617093366180933761909338611E
:100454002B896C89862F90E0A0E0B0E0DC0199271D
:100464008827B22B2A89AC01BD01422B898990E0EF
:10047400982F8827A0E0B0E05A016B01A82AB92A76
:10048400CA2ADB2AC601B5010E94240A20E030E012
:1004940040E85DE20E94C50D609331617093326162
:1004A40080933361909334616D897E8976276727C1
:1004B4007627072E000C880B990B0E94240A20E053
:1004C40030E040E85AE30E94C50D60932D617093BB
:1004D4002E6180932F61909330616F89788D762798
:1004E40067277627072E000C880B990B0E94240A95
:1004F40020E030E040E85AE30E94C50D6093296192
:1005040070932A6180932B6190932C61F0921D610A
:1005140081E880931E6104E09E012F5F3F4F42E01B
:100524006DE171E68AE30E940009811102C010E0C6
:10053400FCCD69817A81762767277627072E000C00
:10054400880B990B0E94240A20E030E040E858E32D
:100554000E94C50D60932561709326618093276185
:10056400909328616B817C81762767277627072EF5
:10057400000C880B990B0E94240A20E030E040E82C
:100584005AE30E94C50D60932161709322618093A8
:08059400236190932461C9CD9D
:10059C004F925F926F927F928F929F92AF92BF9287
:1005AC00CF92DF92EF92FF92CF93DF93CDB7DEB76E
:1005BC002D97CDBFDEBF809159618230B9F080910B
:1005CC005961813099F080E02D96CDBFDEBFDF916F
:1005DC00CF91FF90EF90DF90CF90BF90AF909F9016
:1005EC008F907F906F905F904F90089560910D6108
:1005FC0070910E61072E000C880B990B0E94240A37
:10060C004B015C016091076170910861072E000C31
:10061C00880B990B0E94240A20E030E040E451E45E
:10062C000E94C10D6B017C0120912D6130912E61D6
:10063C0040912F61509130610E94C50DA50194012C
:10064C000E94740D9B01AC01C701B6010E94C10D43
:10065C0020E030E040E059E40E94C50D69837A83C4
:10066C008B839C8380915961813009F432C16091F4
:10067C00096170910A6180910B6190910C61680F16
:10068C00791F072E000C880B990B0E94240A20E07E
:10069C0030E040E05FE30E94C50D20E030E040E434
:1006AC0051E40E94C10D2B013C0120912961309134
:1006BC002A6140912B6150912C61C701B6010E94B7
:1006CC00C50DA50194010E94740D9B01AC01C301E1
:1006DC00B2010E94C10D20E030E040E059E40E94DC
:1006EC00C50D2B013C01209151613091526140911B
:1006FC0053615091546169817A818B819C810E94F4
:10070C00730D6B017C0120914D6130914E614091D4
:10071C004F61509150610E94C10D20914561309103
:10072C00466140914761509148610E94740D4B01A4
:10073C005C01A7019601C701B6010E94C50D20916D
:10074C00496130914A6140914B6150914C610E94DA
:10075C00C50D9B01AC01C501B4010E94740D4B0188
:10076C005C0160931561709316618093176190938F
:10077C00186123E333E948E853E40E94740D6B01DC
:10078C007C01209125613091266140912761509127
:10079C0028616091396170913A6180913B619091CF
:1007AC003C610E94C50D69837A838B839C83809105
:1007BC00316190913261A0913361B09134618D833C
:1007CC009E83AF83B88720E030E048EC51E4C5014C
:1007DC00B4010E94730D20913561309136614091C6
:1007EC003761509138610E94C50D4B015C01A70126
:1007FC009601C701B6010E94C50DA70196010E9482
:10080C00C50DA70196010E94C50D6B017C0180915D
:10081C00216190912261A0912361B091246189871B
:10082C009A87AB87BC8793E09D87B0E0A0E0F8EC9B
:10083C00E1E420E030E048EC51E46B2F7A2F8F2F6D
:10084C009E2F0E94730D2D813E814F8158850E94F1
:10085C00C50D20E030E040E85FE30E94740DA50177
:10086C0094010E94740D29813A814B815C810E9414
:10087C00C50D9B01AC01C301B2010E94C10DA701C2
:10088C0096010E94740D0E9478040E94780423E360
:10089C0033E948E853E40E94730D29853A854B856A
:1008AC005C850E94730DAD85A150AD87AA2329F0FC
:1008BC00B62FA72FF82FE92FBCCF6B017C01C0926C
:1008CC001961D0921A61E0921B61F0921C6181E077
:1008DC007BCE609103617091046180910561909170
:0408EC000661CDCE06
:1008F0004F925F926F927F928F929F92AF92BF9230
:10090000CF92DF92EF92FF920F931F936B017C01C6
:10091000DC01CB01B701A6014427552760787F771A
:100920004115510560487F4759F4A7019601C70159
:10093000B6010E94C50DA70196010E94740D1AC050
:10094000181619061A061B06D4F0892B8A2B8B2B36
:1009500009F4CCC081E290E0809302609093036040
:10096000A7019601C701B6010E94730D9B01AC015E
:100970000E94C10D562F472F382F292FBBC067E18A
:10098000F594E794D794C7946A95D1F7C114D1042C
:10099000E104F104E1F4C12CD12C7601A7FD0AC0D9
:1009A000880F991FAA1FBB1F2FEFC21AD20AE20A93
:1009B000F20AF4CF21E0C21AD108E108F108F0945C
:1009C000E094D094C094C11CD11CE11CF11C2FE711
:1009D000C21AD108E108F108AF77BB27A068C0FEB2
:1009E00004C0880F991FAA1FBB1FF594E794D794E2
:1009F000C794880F991FAA1FBB1FE9E1F0E040E0F0
:100A000050E060E071E0812C912C540100E010E096
:100A1000980128013901440E551E661E771E841563
:100A20009505A605B70574F093018201040F151F03
:100A3000261F371F84199509A609B709840E951E2C
:100A4000A61EB71E880F991FAA1FBB1F7695679514
:100A5000579547953197E9F6892B8A2B8B2BA1F176
:100A600020E632E442EA5DE060E070E080E89FE387
:100A70000E94730D20E030E040E85FE30E94AE0D7D
:100A800087FD22C020E632E442EA5DE060E070E0EB
:100A900080E89FE30E94740D20E030E040E85FE3CF
:100AA0000E94AE0D181634F482E0880E911CA11C31
:100AB000B11C0AC0D501C40181709927AA27BB27A0
:100AC000880E991EAA1EBB1ED501C401B595A79517
:100AD00097958795B15C37E1CC0CDD1CEE1CFF1CB3
:100AE0003A95D1F7C80ED91EEA1EFB1E5C2D4D2D7E
:100AF0003E2D2F2D652F742F832F922F1F910F9135
:100B0000FF90EF90DF90CF90BF90AF909F908F902D
:0A0B10007F906F905F904F90089562
:100B1A008F929F92AF92BF92CF92DF92EF92FF9203
:100B2A001F93CF93DF9300D0CDB7DEB78FE091E666
:100B3A000E94E509182F8823F9F080E090E00E94CE
:100B4A00B30D6C0182E090E00E94B30D5C0184E079
:100B5A0090E00E94B30D4C017601EA24FB24E826BA
:100B6A00F9268AE390E00E94B30D89839A838981EA
:100B7A009A81E816F90681F010E0812F0F900F9004
:100B8A00DF91CF911F91FF90EF90DF90CF90BF90B0
:100B9A00AF909F908F90089580910F61909110610E
:100BAA00C816D90649F78091116190911261A81669
:100BBA00B90611F78091136190911461881699060C
:100BCA00D9F686E090E00E948F0D60935161709390
:100BDA00526180935361909354618AE090E00E943D
:100BEA008F0D60934D6170934E6180934F61909326
:100BFA0050618EE090E00E948F0D6093496170937E
:100C0A004A6180934B6190934C6182E190E00E942B
:100C1A008F0D60934561709346618093476190930D
:100C2A00486186E190E00E948F0D60934161709364
:100C3A00426180934361909344618AE190E00E940B
:100C4A008F0D60933D6170933E6180933F619093F5
:100C5A0040618EE190E00E948F0D6093396170933C
:100C6A003A6180933B6190933C6182E290E00E94FA
:100C7A008F0D6093356170933661809337619093DD
:100C8A00386186E290E00E948F0D60933161709323
:100C9A00326180933361909334618AE290E00E94DA
:100CAA008F0D60932D6170932E6180932F619093C5
:100CBA0030618EE290E00E948F0D609329617093FB
:100CCA002A6180932B6190932C6182E390E00E94C9
:100CDA008F0D6093256170932661809327619093AD
:100CEA00286186E390E00E948F0D609321617093E2
:0C0CFA00226180932361909324613FCF1E
:100D0600CF93DF93CFE0D1E66881798180E090E0F0
:100D16000E94B80D6A817B8182E090E00E94B80D46
:100D26006C817D8184E090E00E94B80D4091516114
:100D360050915261609153617091546186E090E0E8
:100D46000E945C0D40914D6150914E6160914F61E2
:100D5600709150618AE090E00E945C0D409149617B
:100D660050914A6160914B6170914C618EE090E0C8
:100D76000E945C0D409145615091466160914761CA
:100D86007091486182E190E00E945C0D4091416162
:100D960050914261609143617091446186E190E0B7
:100DA6000E945C0D40913D6150913E6160913F61B2
:100DB600709140618AE190E00E945C0D409139613A
:100DC60050913A6160913B6170913C618EE190E097
:100DD6000E945C0D4091356150913661609137619A
:100DE6007091386182E290E00E945C0D4091316121
:100DF60050913261609133617091346186E290E086
:100E06000E945C0D40912D6150912E6160912F6181
:100E1600709130618AE290E00E945C0D40912961F8
:100E260050912A6160912B6170912C618EE290E065
:100E36000E945C0D40912561509126616091276169
:100E46007091286182E390E00E945C0D40912161DF
:100E560050912261609123617091246186E390E054
:100E66000E945C0D688179818A819B816827792738
:100E76008C819D81682779278AE390E0DF91CF9165
:040E86000C94B80D03
:100E8A000F93CF93DF93CDB7DEB72E97CDBFDEBFDB
:100E9A008FE380931D618FEF80931E6102E09E01B4
:100EAA00235F3F4F42E06DE171E68AE30E94000949
:100EBA008823D9F08E858C7790E0959587959595BE
:100ECA0087958093596180E480931D6183E08093C4
:100EDA001E610CE09E012F5F3F4F42E06DE171E61B
:100EEA008AE30E940009811108C080E02E96CDBFD6
:100EFA00DEBFDF91CF910F91089589819A8198275A
:100F0A008927982780930361909304618B819C8140
:100F1A0098278927982780930561909306618D8188
:100F2A009E81982789279827809307619093086163
:100F3A008F819885982789279827809309619093AC
:100F4A000A6189859A8598278927982780930B6152
:100F5A0090930C618B859C85982789279827809385
:100F6A000D6190930E6181E02E96CDBFDEBFDF91B9
:060F7A00CF910F910895D4
:100F800010C00E94810D58F00E947A0D40F029F4A3
:100F90005F3F29F00C94A80D51110C94890D0C940D
:100FA000CF0D0E94040C68F39923B1F3552391F3FC
:100FB000951B550BBB27AA2762177307840738F0C8
:100FC0009F5F5F4F220F331F441FAA1FA9F335D025
:100FD0000E2E3AF0E0E832D091505040E695001CD9
:100FE000CAF72BD0FE2F29D0660F771F881FBB1F93
:100FF000261737074807AB07B0E809F0BB0B802D71
:10100000BF01FF2793585F4F3AF09E3F510578F09C
:101010000C94A80D0C94890D5F3FE4F3983ED4F333
:10102000869577956795B795F7959F5FC9F7880F70
:10103000911D9695879597F90895E1E0660F771FC2
:10104000881FBB1F621773078407BA0720F0621B53
:0E105000730B840BBA0BEE1F88F7E095089522
:10105E000FC00E947A0D38F00E94810D20F095236A
:10106E0011F00C94A80D0C94CF0D11240C94890D35
:10107E000E94040C70F3959FC1F3950F50E0551F1D
:10108E00629FF001729FBB27F00DB11D639FAA27CF
:10109E00F00DB11DAA1F649F6627B00DA11D661F1E
:1010AE00829F2227B00DA11D621F739FB00DA11D3F
:1010BE00621F839FA00D611D221F749F3327A00DF9
:1010CE00611D231F849F600D211D822F762F6A2F95
:1010DE0011249F5750409AF0F1F088234AF0EE0FFA
:1010EE00FF1FBB1F661F771F881F91505040A9F727
:1010FE009E3F510580F00C94A80D0C94890D5F3F16
:10110E00E4F3983ED4F3869577956795B795F79562
:10111E00E7959F5FC1F7FE2B880F911D96958795DA
:04112E0097F9089590
:1011320011C00E947A0D38F00E94810D20F039F41E
:101142009F3F19F426F40C94CF0D0EF4E095E7FBC3
:101152000C94A80DE92F0E94040C58F3BA176207E9
:1011620073078407950720F079F4A6F50C94880D8F
:101172000EF4E0950B2EBA2FA02D0B01B9019001B0
:101182000C01CA01A0011124FF27591B99F0593FF4
:1011920050F4503E68F11A16F040A22F232F342F3C
:1011A2004427585FF3CF469537952795A795F0408A
:1011B2005395C9F77EF41F16BA0B620B730B840B9F
:1011C200BAF09150A1F0FF0FBB1F661F771F881F57
:1011D200C2F70EC0BA0F621F731F841F48F48795AF
:1011E20077956795B795F7959E3F08F0B0CF9395A1
:0E11F200880F08F09927EE0F979587950895BE
:10120000EF92FF920F931F93CF93DF939091050975
:1012100093709330A1F1E901142F7B0190E0880FC6
:10122000991F809307090E94260C882341F1612FA2
:10123000C7010E94460B182F882351F1809107099E
:1012400081608093070981E0809304090DC080913B
:10125000050982FD0DC08091050983FD09C08091BB
:1012600005098370833021F08091050985FFEFCF58
:10127000809105098C71B9F083E08093040910E036
:10128000812FDF91CF911F910F91FF90EF900895E3
:1012900083E080930409812FDF91CF911F910F91FB
:1012A000FF90EF9008950E94440D8111E5CF602FCB
:0812B000CE010E94700BE4CF97
:1012B800CF92DF92FF920F931F93CF93DF93CDB717
:1012C800DEB72A97CDBFDEBFEAEAE9836A837B836C
:1012D8008C839D832E833F834887598785E58A873A
:1012E800809104088064809304088E010E5F1F4F6C
:1012F8006E018BE0C80ED11C8AEAF82E0E949C0D64
:101308008823E1F38F2D0E94E40C0C151D0521F0B4
:10131800F801F1908F01F2CF0E949C0D8823E1F330
:101328000E94540D8111FCCF2A96CDBFDEBFDF91FC
:0E133800CF911F910F91FF90DF90CF900895FD
:101346008F929F92AF92BF92CF92DF92EF92FF92CF
:1013560010925B610E94320D4B015C010E943B0DB5
:101366006B017C0126E636E646EE5FE3C501B40175
:101376000E94C50D4B015C0126E636E646EE5FE3AC
:10138600C701B6010E94C50D20E030E040E052E4FE
:101396000E94740D6B017C0120E030E040E052E4D5
:1013A600C501B4010E94740DA70196010E945C0953
:1013B600FF90EF90DF90CF90BF90AF909F908F906F
:0413C6000C94EF0A8A
:1013CA00EF92FF920F93CF93DF93CDB7DEB72697B5
:1013DA00CDBFDEBF7C0184E280931D6185E08093EE
:1013EA001E6106E09E012F5F3F4F42E06DE171E60C
:1013FA008AE30E9400098823B9F089819A81982793
:10140A0089279827F701808391838B819C8198276C
:10141A0089279827828393838D819E81982789279C
:10142A0098278483958381E02696CDBFDEBFDF911E
:0A143A00CF910F91FF90EF900895FD
:10144400E89409C097FB3EF490958095709561955A
:101454007F4F8F4F9F4F9923A9F0F92F96E9BB2710
:101464009395F695879577956795B795F111F8CF8C
:10147400FAF4BB0F11F460FF1BC06F5F7F4F8F4FF7
:101484009F4F16C0882311F096E911C0772321F0ED
:101494009EE8872F762F05C0662371F096E8862F85
:1014A40070E060E02AF09A95660F771F881FDAF7DC
:0A14B400880F9695879597F9089523
:1014BE0080915C618130F1F0A8F0823031F08330A0
:1014CE0019F083E080935C61089580E28093A70415
:1014DE000E94CE02882351F081E080935B611092CE
:1014EE005C6108950E94A20D811110C084E080936A
:1014FE005C6108950E941B0B882331F30E944507FF
:10150E008823A1F382E080935C61089581E080934B
:04151E005C6108956F
:101522001F920F920FB60F9211242F933F934F9356
:101532005F936F937F938F939F93AF93BF93EF9339
:10154200FF9381E080935761E0910060F091016028
:10155200309709F00995809143018160809343019E
:10156200FF91EF91BF91AF919F918F917F916F9179
:101572005F914F913F912F910F900FBE0F901F904F
:021582001895BA
:101584001F920F920FB60F9211242F933F934F93F4
:101594005F936F937F938F939F93AF93BF93EF93D7
:1015A400FF9380910008E0915561F0915661309766
:1015B40009F0099510925861FF91EF91BF91AF9195
:1015C4009F918F917F916F915F914F913F912F9157
:0A15D4000F900FBE0F901F901895A6
:1015DE001F93CF93DF9380910460882309F180914C
:1015EE00040880648093040810E0C4E0D0E60E94F2
:1015FE009C0D8823E1F388810E94E40C1F5FC12FAC
:10160E00D0E0CC5FDF498881882311F01F3F79F746
:10161E000E949C0D8823E1F30E94540D8111FCCF92
:08162E00DF91CF911F91089597
:101636000F931F93CF93DF9300D0CDB7DEB7BE01D4
:101646006F5F7F4F8FEF9FE30E94970B882361F0B8
:1016560089819A8180FF0FC0092F0695069510E0B3
:10166600C80121E0822781700F900F90DF91CF9102
:101676001F910F91089580E00F900F90DF91CF9109
:061686001F910F91089571
:10168C00662321F1FC016150262F30E02F5F3F4F84
:10169C00280F391F8191809308090DC0809105098D
:1016AC0082FD0DC08091050983FD09C0809105095B
:1016BC008370833021F08091050985FFEFCF8091F5
:1016CC00050984FD05C0E217F30721F781E00895B1
:0416DC0080E008950D
:1016E00020E2209305096623F1F0FC0190E022E05E
:1016F0000DC08091050982FD0DC08091050983FD13
:1017000009C0809105098370833021F0809105091B
:1017100085FFEFCF8091080981939F5F691719F0CA
:0E17200020930409F3CF87E080930409089515
:10172E000F93CF93DF93EB0190931D6180931E6116
:10173E0002E02FE131E642E06DE171E68AE30E94BC
:10174E000009882371F080911F6190912061982784
:10175E00892798278883998381E0DF91CF910F9114
:0C176E00089580E0DF91CF910F91089565
:10177A00990F0008550FAA0BE0E8FEEF1616170698
:10178A00E807F907C0F012161306E407F50798F000
:10179A00621B730B840B950B39F40A2661F0232B19
:1017AA00242B252B21F408950A2609F4A140A69595
:0817BA008FEF811D811D0895D0
:1017C2001F93CF93DF939091050993709330B1F0FB
:1017D200142FEB0190E0880F991F809307090E9454
:1017E200260C882359F0612FCE010E94460B93E00C
:1017F20090930409DF91CF911F91089580E0DF91CA
:06180200CF911F91089533
:1018080057FD9058440F551F59F05F3F71F04795A9
:10181800880F97FB991F61F09F3F79F0879508958E
:10182800121613061406551FF2CF4695F1DF08C0AD
:10183800161617061806991FF1CF869571056105CA
:041848000894089563
:10184C008091050985FD0DC08091050982FD09C0B7
:10185C008091050983FD05C0809105098370833053
:10186C0079F7809105098C7129F083E08093040944
:10187C0080E008950E94440D8111F7CF81E0089516
:10188C00109200601092016081E08093450180937A
:10189C004201109247018091410182FDFCCF8FE003
:1018AC0090E080934A0190934B018091410180FD1F
:0A18BC00FCCF89EB809340010895F2
:1018C600CF93811105C00E948D05C82F811108C0D4
:1018D6000E948200C82F811109C08C2FCF910895D4
:1018E60081E080935A618C2FCF9108950E948306E0
:0618F6008C2FCF91089534
:1018FC00262FAF93BF93E0E0F0E1328131FDFDCFB5
:10190C003DE934BF33E13083DC01A050BC4E2C9355
:10191C003DE934BF20E020830196BF91AF9108953B
:10192C000E94BD0D0E94F30C86B386FB882780F9BC
:10193C000E94AC0C789401C088950E945F0A0E94AA
:0C194C00CC0D8823C9F30E94A309F6CF3C
:10195800CF93882369F081E00E94630CC82F0E940E
:10196800C90DC11103C084E080935C61CF910895D3
:0A19780080E00E94630CC82FF2CF3C
:101982001092556110925661E0E0F8E081E08387A1
:1019920080E9858383E087838BE890E08087918765
:0419A200168208950C
:1019A600092E0394000C11F4882352F0BB0F40F467
:1019B600BF2B11F460FF04C06F5F7F4F8F4F9F4FA7
:0219C600089582
:1019C8009091040895FF09C0909104089064909341
:0E19D80004088093020881E0089580E00895DD
:1019E6000E946C0D0E94010D0E944C0D0E94C10CBC
:0C19F6000E940F0D0E94960D0C94460CF0
:101A0200E0E0F9E084E08083118281E082838DEF5F
:0C1A120085838FE0868385E08383089540
:101A1E00E0E6F4E080E18583818380E28283E0EE7C
:0A1A2E00F5E0828183608283089551
:101A3800EDE1F1E6908381837283638344E0BF0123
:061A48008AE30C94E10B9F
:101A4E00EC010E94D70D0E94D60DCE010E94D80D3A
:061A5E00CE010E94D40D30
:101A64006091156170911661809117619091186170
:021A74000895D3
:101A76006091196170911A6180911B6190911C614E
:021A86000895C1
:101A880090910509937081E0933009F080E0089502
:101A9800E0E0F4E08CE0818398E093878487089500
:101AA8008091040886FB882780F991E089270895AA
:101AB800242F0E947F0C252F0E947F0C0C94B80DB8
:101AC80003D0808199270895FC01E050FC4E0895C9
:0E1AD800E0EAF4E088E8868B80E281830895DE
:0E1AE6005058BB27AA270E9499080C94D30CD5
:0E1AF40000240A94161617061806090608950F
:0E1B020000240A941216130614060506089510
:0E1B1000E894BB2766277727CB0197F9089545
:0E1B1E000E94680D608171818281938108951B
:0C1B2C00E0E0F8E0868180648683089584
:0C1B38008091040885FB882780F908953F
:0C1B440062E078E081E090E30C941C0D5E
:0C1B500097F99F6780E870E060E008955E
:0A1B5C000E94BD0B08F48FEF0895FE
:0A1B66000E94680D808191810895AE
:0A1B70000E947E0C272F0C947F0CBE
:081B7A0083E080935000089500
:081B82000E94C0070C94D30C73
:081B8A000E942F080C94D30CFB
:061B920080915A610895E4
:061B980080915B610895DD
:061B9E009FEF80EC0895AA
:041BA4000C9400009D
:041BA8000E94800017
:021BAC0008959A
:021BAE00089598
:021BB000089596
:041BB2000000C84126
:041BB6000000C84122
:02000004008278
:090000000000000000D90D000011
:02000004008377
:040000005CC5C55CBA
:00000001FF
